{
  "contracts/MockTreasuryFactory.sol": {
    "MockTreasury": {
      "abi": [
        {
          "inputs": [
            {
              "internalType": "uint256",
              "name": "_minimumAmount",
              "type": "uint256"
            },
            {
              "internalType": "uint256",
              "name": "_deadline",
              "type": "uint256"
            },
            {
              "internalType": "address[]",
              "name": "_whitelistedTokens",
              "type": "address[]"
            }
          ],
          "stateMutability": "nonpayable",
          "type": "constructor"
        },
        {
          "inputs": [],
          "name": "EnforcedPause",
          "type": "error"
        },
        {
          "inputs": [],
          "name": "ExpectedPause",
          "type": "error"
        },
        {
          "inputs": [
            {
              "internalType": "address",
              "name": "owner",
              "type": "address"
            }
          ],
          "name": "OwnableInvalidOwner",
          "type": "error"
        },
        {
          "inputs": [
            {
              "internalType": "address",
              "name": "account",
              "type": "address"
            }
          ],
          "name": "OwnableUnauthorizedAccount",
          "type": "error"
        },
        {
          "inputs": [],
          "name": "ReentrancyGuardReentrantCall",
          "type": "error"
        },
        {
          "inputs": [
            {
              "internalType": "address",
              "name": "token",
              "type": "address"
            }
          ],
          "name": "SafeERC20FailedOperation",
          "type": "error"
        },
        {
          "anonymous": false,
          "inputs": [
            {
              "indexed": true,
              "internalType": "bytes32",
              "name": "lockId",
              "type": "bytes32"
            }
          ],
          "name": "ChangeExecuted",
          "type": "event"
        },
        {
          "anonymous": false,
          "inputs": [
            {
              "indexed": true,
              "internalType": "bytes32",
              "name": "lockId",
              "type": "bytes32"
            },
            {
              "indexed": true,
              "internalType": "enum MockTreasury.ChangeType",
              "name": "changeType",
              "type": "uint8"
            }
          ],
          "name": "ChangeRequested",
          "type": "event"
        },
        {
          "anonymous": false,
          "inputs": [
            {
              "indexed": false,
              "internalType": "address",
              "name": "signer",
              "type": "address"
            },
            {
              "indexed": false,
              "internalType": "uint256",
              "name": "newThreshold",
              "type": "uint256"
            }
          ],
          "name": "NewSigner",
          "type": "event"
        },
        {
          "anonymous": false,
          "inputs": [
            {
              "indexed": true,
              "internalType": "address",
              "name": "previousOwner",
              "type": "address"
            },
            {
              "indexed": true,
              "internalType": "address",
              "name": "newOwner",
              "type": "address"
            }
          ],
          "name": "OwnershipTransferred",
          "type": "event"
        },
        {
          "anonymous": false,
          "inputs": [
            {
              "indexed": false,
              "internalType": "address",
              "name": "account",
              "type": "address"
            }
          ],
          "name": "Paused",
          "type": "event"
        },
        {
          "anonymous": false,
          "inputs": [
            {
              "indexed": false,
              "internalType": "address",
              "name": "token",
              "type": "address"
            },
            {
              "indexed": false,
              "internalType": "bool",
              "name": "status",
              "type": "bool"
            }
          ],
          "name": "TokenWhitelistUpdated",
          "type": "event"
        },
        {
          "anonymous": false,
          "inputs": [
            {
              "indexed": false,
              "internalType": "address",
              "name": "account",
              "type": "address"
            }
          ],
          "name": "Unpaused",
          "type": "event"
        },
        {
          "inputs": [
            {
              "internalType": "bytes32",
              "name": "",
              "type": "bytes32"
            }
          ],
          "name": "changes",
          "outputs": [
            {
              "internalType": "bytes",
              "name": "data",
              "type": "bytes"
            },
            {
              "internalType": "uint256",
              "name": "releaseTime",
              "type": "uint256"
            },
            {
              "internalType": "bool",
              "name": "executed",
              "type": "bool"
            },
            {
              "internalType": "enum MockTreasury.ChangeType",
              "name": "changeType",
              "type": "uint8"
            }
          ],
          "stateMutability": "view",
          "type": "function"
        },
        {
          "inputs": [],
          "name": "deadline",
          "outputs": [
            {
              "internalType": "uint256",
              "name": "",
              "type": "uint256"
            }
          ],
          "stateMutability": "view",
          "type": "function"
        },
        {
          "inputs": [
            {
              "internalType": "address",
              "name": "token",
              "type": "address"
            },
            {
              "internalType": "uint256",
              "name": "amount",
              "type": "uint256"
            }
          ],
          "name": "deposit",
          "outputs": [],
          "stateMutability": "nonpayable",
          "type": "function"
        },
        {
          "inputs": [
            {
              "internalType": "address",
              "name": "",
              "type": "address"
            },
            {
              "internalType": "address",
              "name": "",
              "type": "address"
            }
          ],
          "name": "deposits",
          "outputs": [
            {
              "internalType": "uint256",
              "name": "",
              "type": "uint256"
            }
          ],
          "stateMutability": "view",
          "type": "function"
        },
        {
          "inputs": [
            {
              "internalType": "bytes32",
              "name": "lockId",
              "type": "bytes32"
            }
          ],
          "name": "executeChange",
          "outputs": [],
          "stateMutability": "nonpayable",
          "type": "function"
        },
        {
          "inputs": [],
          "name": "minimumAmount",
          "outputs": [
            {
              "internalType": "uint256",
              "name": "",
              "type": "uint256"
            }
          ],
          "stateMutability": "view",
          "type": "function"
        },
        {
          "inputs": [],
          "name": "owner",
          "outputs": [
            {
              "internalType": "address",
              "name": "",
              "type": "address"
            }
          ],
          "stateMutability": "view",
          "type": "function"
        },
        {
          "inputs": [],
          "name": "parameterTimelock",
          "outputs": [
            {
              "internalType": "uint256",
              "name": "",
              "type": "uint256"
            }
          ],
          "stateMutability": "view",
          "type": "function"
        },
        {
          "inputs": [],
          "name": "pause",
          "outputs": [],
          "stateMutability": "nonpayable",
          "type": "function"
        },
        {
          "inputs": [],
          "name": "paused",
          "outputs": [
            {
              "internalType": "bool",
              "name": "",
              "type": "bool"
            }
          ],
          "stateMutability": "view",
          "type": "function"
        },
        {
          "inputs": [],
          "name": "renounceOwnership",
          "outputs": [],
          "stateMutability": "nonpayable",
          "type": "function"
        },
        {
          "inputs": [
            {
              "internalType": "enum MockTreasury.ChangeType",
              "name": "changeType",
              "type": "uint8"
            },
            {
              "internalType": "bytes",
              "name": "data",
              "type": "bytes"
            }
          ],
          "name": "requestChange",
          "outputs": [
            {
              "internalType": "bytes32",
              "name": "",
              "type": "bytes32"
            }
          ],
          "stateMutability": "nonpayable",
          "type": "function"
        },
        {
          "inputs": [
            {
              "internalType": "address[]",
              "name": "tokens",
              "type": "address[]"
            },
            {
              "internalType": "bool",
              "name": "status",
              "type": "bool"
            }
          ],
          "name": "setTokenWhitelist",
          "outputs": [],
          "stateMutability": "nonpayable",
          "type": "function"
        },
        {
          "inputs": [],
          "name": "spenderTimelock",
          "outputs": [
            {
              "internalType": "uint256",
              "name": "",
              "type": "uint256"
            }
          ],
          "stateMutability": "view",
          "type": "function"
        },
        {
          "inputs": [
            {
              "internalType": "address",
              "name": "",
              "type": "address"
            }
          ],
          "name": "spenders",
          "outputs": [
            {
              "internalType": "bool",
              "name": "",
              "type": "bool"
            }
          ],
          "stateMutability": "view",
          "type": "function"
        },
        {
          "inputs": [],
          "name": "spendingTimelock",
          "outputs": [
            {
              "internalType": "uint256",
              "name": "",
              "type": "uint256"
            }
          ],
          "stateMutability": "view",
          "type": "function"
        },
        {
          "inputs": [],
          "name": "timelockTimelock",
          "outputs": [
            {
              "internalType": "uint256",
              "name": "",
              "type": "uint256"
            }
          ],
          "stateMutability": "view",
          "type": "function"
        },
        {
          "inputs": [
            {
              "internalType": "address",
              "name": "newOwner",
              "type": "address"
            }
          ],
          "name": "transferOwnership",
          "outputs": [],
          "stateMutability": "nonpayable",
          "type": "function"
        },
        {
          "inputs": [],
          "name": "unpause",
          "outputs": [],
          "stateMutability": "nonpayable",
          "type": "function"
        },
        {
          "inputs": [
            {
              "internalType": "address",
              "name": "",
              "type": "address"
            }
          ],
          "name": "whitelistedTokens",
          "outputs": [
            {
              "internalType": "bool",
              "name": "",
              "type": "bool"
            }
          ],
          "stateMutability": "view",
          "type": "function"
        }
      ],
      "evm": {
        "bytecode": {
          "linkReferences": {},
          "object": "6080604052346101d3576112ce80380380610019816101ee565b9283398101906060818303126101d35780516020820151604083015190926001600160401b0382116101d3570183601f820112156101d3578051936001600160401b0385116101d8578460051b916020806100758186016101ee565b8098815201938201019182116101d357602001915b8183106101b35750505060ff196000541660005560018055331561019d5760028054336001600160a01b0319821681179092556001600160a01b03167f8be0079c531659141344cd1fd0a4f28419497f9722a3daafe3b4186f6b6457e0600080a36007556008556201518060035562093a806004556203f4806005556212750060065560005b815181101561018e576001906001600160a01b0361012e8285610213565b5116600052600a60205260406000208260ff198254161790557f67821d5384bb02aab1ba91a477f89c9966cd30f475b02618bdc58712bca512756040838060a01b0361017a8487610213565b51168151908152846020820152a101610110565b604051611090908161023e8239f35b631e4fbdf760e01b600052600060045260246000fd5b82516001600160a01b03811681036101d35781526020928301920161008a565b600080fd5b634e487b7160e01b600052604160045260246000fd5b6040519190601f01601f191682016001600160401b038111838210176101d857604052565b80518210156102275760209160051b010190565b634e487b7160e01b600052603260045260246000fdfe6080604052600436101561001257600080fd5b60003560e01c80630443efb714610d3c578063064a82ca14610d1e5780630bde28761461099d57806329dcb0cf1461097f578063303b4e8d146109615780633f4ba83a146108f857806347e7ef24146107a55780635b8bc67d146107875780635c975abb1461076457806360f9c01b1461074657806363a31bd414610707578063715018a6146106aa5780638456cb59146106505780638da5cb5b146106275780638f601f66146105c6578063b27aa22914610480578063bb0c829814610462578063c320049a146101c6578063daf9c210146101875763f2fde38b146100f857600080fd5b3461018257602036600319011261018257610111610ee3565b610119610fac565b6001600160a01b0316801561016c57600280546001600160a01b0319811683179091556001600160a01b03167f8be0079c531659141344cd1fd0a4f28419497f9722a3daafe3b4186f6b6457e0600080a3005b631e4fbdf760e01b600052600060045260246000fd5b600080fd5b34610182576020366003190112610182576001600160a01b036101a8610ee3565b16600052600a602052602060ff604060002054166040519015158152f35b346101825760203660031901126101825760043580600052600b60205260406000206002810190815460ff811661042a57600182015442106103ee5760081c60ff169060048210156103d857816102e1576102219150610e3f565b606081805181010312610182578061023e60206102af9301610f60565b90610250606060408301519201610f60565b9160018060a01b03169081600052600a60205261027460ff60406000205416610f1c565b60405163a9059cbb60e01b60208201526001600160a01b03909316602484015260448084019190915282526102aa606483610e1d565b61101c565b805460ff191660011790557facba7db33afd41cd69adcb9749e50b9fd484953f306d98d2d6e0a8ce0adb7d5c600080a2005b60006001830361034c57506102f69150610e3f565b60408180518101031261018257604061031160208301610f60565b9101518015158103610182576103479160018060a01b0316600052600960205260406000209060ff801983541691151516179055565b6102af565b50600282036103825761035f9150610e3f565b6040818051810103126101825760406020820151910151906008556007556102af565b600360009214610394575b50506102af565b61039d90610e3f565b906080828051810103126103d5575060208101519060408101516080606083015192015192600355600455600555600655828061038d565b80fd5b634e487b7160e01b600052602160045260246000fd5b60405162461bcd60e51b8152602060048201526014602482015273151a5b595b1bd8dac81b9bdd08195e1c1a5c995960621b6044820152606490fd5b60405162461bcd60e51b815260206004820152601060248201526f105b1c9958591e48195e1958dd5d195960821b6044820152606490fd5b34610182576000366003190112610182576020600754604051908152f35b346101825760403660031901126101825760043567ffffffffffffffff811161018257366023820112156101825780600401359067ffffffffffffffff8211610182578160051b60248183010190368211610182576024359283151592838503610182576104ec610fac565b6000956104ff6020604051950185610e1d565b83526024602084019201915b8183106105a257505050835b815181101561059e576001906001600160a01b036105358285610ff2565b51168652600a60205261055785604088209060ff801983541691151516179055565b7f67821d5384bb02aab1ba91a477f89c9966cd30f475b02618bdc58712bca512756040838060a01b0361058a8487610ff2565b51168151908152866020820152a101610517565b8480f35b82356001600160a01b03811681036105c25781526020928301920161050b565b8780fd5b34610182576040366003190112610182576105df610ee3565b602435906001600160a01b03821682036101825760018060a01b0316600052600c60205260406000209060018060a01b03166000526020526020604060002054604051908152f35b34610182576000366003190112610182576002546040516001600160a01b039091168152602090f35b3461018257600036600319011261018257610669610fac565b610671610fd5565b600160ff1960005416176000557f62e78cea01bee320cd4e420270b5ea74000d11b0c9f74754ebdbfc544b05a2586020604051338152a1005b34610182576000366003190112610182576106c3610fac565b600280546001600160a01b031981169091556000906001600160a01b03167f8be0079c531659141344cd1fd0a4f28419497f9722a3daafe3b4186f6b6457e08280a3005b34610182576020366003190112610182576001600160a01b03610728610ee3565b166000526009602052602060ff604060002054166040519015158152f35b34610182576000366003190112610182576020600454604051908152f35b3461018257600036600319011261018257602060ff600054166040519015158152f35b34610182576000366003190112610182576020600654604051908152f35b34610182576040366003190112610182576107be610ee3565b602435906002600154146108e75760026001556107d9610fd5565b6008544210156108ad576007548210610877576001600160a01b03166000818152600a60205260409020546108109060ff16610f1c565b61084a6040516323b872dd60e01b602082015233602482015230604482015283606482015260648152610844608482610e1d565b8261101c565b33600052600c60205260406000209060005260205261086f6040600020918254610ef9565b905560018055005b60405162461bcd60e51b815260206004820152600e60248201526d416d6f756e7420746f6f206c6f7760901b6044820152606490fd5b60405162461bcd60e51b815260206004820152601260248201527110dc9bddd9199d5b991a5b99c8195b99195960721b6044820152606490fd5b633ee5aeb560e01b60005260046000fd5b3461018257600036600319011261018257610911610fac565b60005460ff8116156109505760ff19166000557f5db9ee0a495bf2e6ff9c91a7834c1ba4fdd244a5e8aa4e537bd38aeae4b073aa6020604051338152a1005b638dfc202b60e01b60005260046000fd5b34610182576000366003190112610182576020600554604051908152f35b34610182576000366003190112610182576020600854604051908152f35b34610182576040366003190112610182576004356004811015610182576024359067ffffffffffffffff821161018257366023830112156101825781600401359067ffffffffffffffff8211610182576024830192602483369201011161018257600081610cdb57338152600960205260ff60408220541615610c9d575b604051610a59602160348360208101953360601b8752888a84840137888201904284830152508760f81b605482015203016001810184520182610e1d565b51902090610a6f610a6982610f74565b42610ef9565b60405194608086019486861067ffffffffffffffff871117610c875760209560405260009581879260405194610aae84601f19601f8501160187610e1d565b818652838601378301015285526020850190815260408501948486526060810191838352848652600b60205260408620915180519067ffffffffffffffff8211610c7357610afc8454610de3565b601f8111610c2e575b50602090601f8311600114610bc457918060029492610b5896948b92610bb9575b50508160011b916000199060031b1c19161782555b5160018201550195511515869060ff801983541691151516179055565b51936004851015610ba55760209461ff0082549160081b169061ff001916179055817fb3b9190940cab3ae1e75d3728e06e589ad4ba3bbdbbe64cf389829ee7ac840746040519480a38152f35b634e487b7160e01b84526021600452602484fd5b015190508b80610b26565b8489528189209190601f1984168a5b818110610c165750926001928592610b5898966002989610610bfd575b505050811b018255610b3b565b015160001960f88460031b161c191690558b8080610bf0565b92936020600181928786015181550195019301610bd3565b84895260208920601f840160051c81019160208510610c69575b601f0160051c01905b818110610c5e5750610b05565b898155600101610c51565b9091508190610c48565b634e487b7160e01b88526041600452602488fd5b634e487b7160e01b600052604160045260246000fd5b60405162461bcd60e51b81526020600482015260166024820152752737ba1030baba3437b934bd32b21039b832b73232b960511b6044820152606490fd5b6002546001600160a01b03163314610a1b5760405162461bcd60e51b81526020600482015260096024820152682737ba1037bbb732b960b91b6044820152606490fd5b34610182576000366003190112610182576020600354604051908152f35b3461018257602036600319011261018257600435600052600b6020526040600020610d6681610e3f565b6002600183015492015460ff8160081c1690604051936080855283519384608087015260005b858110610dcd575050600085850160a00152602085015260ff161515604084015260048110156103d8576060830152601f01601f1916810181900360a00190f35b80602080928401015160a0828a01015201610d8c565b90600182811c92168015610e13575b6020831014610dfd57565b634e487b7160e01b600052602260045260246000fd5b91607f1691610df2565b90601f8019910116810190811067ffffffffffffffff821117610c8757604052565b9060405191826000825492610e5384610de3565b8084529360018116908115610ec15750600114610e7a575b50610e7892500383610e1d565b565b90506000929192526020600020906000915b818310610ea5575050906020610e789282010138610e6b565b6020919350806001915483858901015201910190918492610e8c565b905060209250610e7894915060ff191682840152151560051b82010138610e6b565b600435906001600160a01b038216820361018257565b91908201809211610f0657565b634e487b7160e01b600052601160045260246000fd5b15610f2357565b60405162461bcd60e51b8152602060048201526015602482015274151bdad95b881b9bdd081dda1a5d195b1a5cdd1959605a1b6044820152606490fd5b51906001600160a01b038216820361018257565b60048110156103d8578015610fa55760018114610f9e57600214610f985760065490565b60055490565b5060045490565b5060035490565b6002546001600160a01b03163303610fc057565b63118cdaa760e01b6000523360045260246000fd5b60ff60005416610fe157565b63d93c066560e01b60005260046000fd5b80518210156110065760209160051b010190565b634e487b7160e01b600052603260045260246000fd5b906000602091828151910182855af115611077576000513d61106e57506001600160a01b0381163b155b61104d5750565b635274afe760e01b60009081526001600160a01b0391909116600452602490fd5b60011415611046565b6040513d6000823e3d90fdfea164736f6c634300081b000a",
          "opcodes": "PUSH1 0x80 PUSH1 0x40 MSTORE CALLVALUE PUSH2 0x1D3 JUMPI PUSH2 0x12CE DUP1 CODESIZE SUB DUP1 PUSH2 0x19 DUP2 PUSH2 0x1EE JUMP JUMPDEST SWAP3 DUP4 CODECOPY DUP2 ADD SWAP1 PUSH1 0x60 DUP2 DUP4 SUB SLT PUSH2 0x1D3 JUMPI DUP1 MLOAD PUSH1 0x20 DUP3 ADD MLOAD PUSH1 0x40 DUP4 ADD MLOAD SWAP1 SWAP3 PUSH1 0x1 PUSH1 0x1 PUSH1 0x40 SHL SUB DUP3 GT PUSH2 0x1D3 JUMPI ADD DUP4 PUSH1 0x1F DUP3 ADD SLT ISZERO PUSH2 0x1D3 JUMPI DUP1 MLOAD SWAP4 PUSH1 0x1 PUSH1 0x1 PUSH1 0x40 SHL SUB DUP6 GT PUSH2 0x1D8 JUMPI DUP5 PUSH1 0x5 SHL SWAP2 PUSH1 0x20 DUP1 PUSH2 0x75 DUP2 DUP7 ADD PUSH2 0x1EE JUMP JUMPDEST DUP1 SWAP9 DUP2 MSTORE ADD SWAP4 DUP3 ADD ADD SWAP2 DUP3 GT PUSH2 0x1D3 JUMPI PUSH1 0x20 ADD SWAP2 JUMPDEST DUP2 DUP4 LT PUSH2 0x1B3 JUMPI POP POP POP PUSH1 0xFF NOT PUSH1 0x0 SLOAD AND PUSH1 0x0 SSTORE PUSH1 0x1 DUP1 SSTORE CALLER ISZERO PUSH2 0x19D JUMPI PUSH1 0x2 DUP1 SLOAD CALLER PUSH1 0x1 PUSH1 0x1 PUSH1 0xA0 SHL SUB NOT DUP3 AND DUP2 OR SWAP1 SWAP3 SSTORE PUSH1 0x1 PUSH1 0x1 PUSH1 0xA0 SHL SUB AND PUSH32 0x8BE0079C531659141344CD1FD0A4F28419497F9722A3DAAFE3B4186F6B6457E0 PUSH1 0x0 DUP1 LOG3 PUSH1 0x7 SSTORE PUSH1 0x8 SSTORE PUSH3 0x15180 PUSH1 0x3 SSTORE PUSH3 0x93A80 PUSH1 0x4 SSTORE PUSH3 0x3F480 PUSH1 0x5 SSTORE PUSH3 0x127500 PUSH1 0x6 SSTORE PUSH1 0x0 JUMPDEST DUP2 MLOAD DUP2 LT ISZERO PUSH2 0x18E JUMPI PUSH1 0x1 SWAP1 PUSH1 0x1 PUSH1 0x1 PUSH1 0xA0 SHL SUB PUSH2 0x12E DUP3 DUP6 PUSH2 0x213 JUMP JUMPDEST MLOAD AND PUSH1 0x0 MSTORE PUSH1 0xA PUSH1 0x20 MSTORE PUSH1 0x40 PUSH1 0x0 KECCAK256 DUP3 PUSH1 0xFF NOT DUP3 SLOAD AND OR SWAP1 SSTORE PUSH32 0x67821D5384BB02AAB1BA91A477F89C9966CD30F475B02618BDC58712BCA51275 PUSH1 0x40 DUP4 DUP1 PUSH1 0xA0 SHL SUB PUSH2 0x17A DUP5 DUP8 PUSH2 0x213 JUMP JUMPDEST MLOAD AND DUP2 MLOAD SWAP1 DUP2 MSTORE DUP5 PUSH1 0x20 DUP3 ADD MSTORE LOG1 ADD PUSH2 0x110 JUMP JUMPDEST PUSH1 0x40 MLOAD PUSH2 0x1090 SWAP1 DUP2 PUSH2 0x23E DUP3 CODECOPY RETURN JUMPDEST PUSH4 0x1E4FBDF7 PUSH1 0xE0 SHL PUSH1 0x0 MSTORE PUSH1 0x0 PUSH1 0x4 MSTORE PUSH1 0x24 PUSH1 0x0 REVERT JUMPDEST DUP3 MLOAD PUSH1 0x1 PUSH1 0x1 PUSH1 0xA0 SHL SUB DUP2 AND DUP2 SUB PUSH2 0x1D3 JUMPI DUP2 MSTORE PUSH1 0x20 SWAP3 DUP4 ADD SWAP3 ADD PUSH2 0x8A JUMP JUMPDEST PUSH1 0x0 DUP1 REVERT JUMPDEST PUSH4 0x4E487B71 PUSH1 0xE0 SHL PUSH1 0x0 MSTORE PUSH1 0x41 PUSH1 0x4 MSTORE PUSH1 0x24 PUSH1 0x0 REVERT JUMPDEST PUSH1 0x40 MLOAD SWAP2 SWAP1 PUSH1 0x1F ADD PUSH1 0x1F NOT AND DUP3 ADD PUSH1 0x1 PUSH1 0x1 PUSH1 0x40 SHL SUB DUP2 GT DUP4 DUP3 LT OR PUSH2 0x1D8 JUMPI PUSH1 0x40 MSTORE JUMP JUMPDEST DUP1 MLOAD DUP3 LT ISZERO PUSH2 0x227 JUMPI PUSH1 0x20 SWAP2 PUSH1 0x5 SHL ADD ADD SWAP1 JUMP JUMPDEST PUSH4 0x4E487B71 PUSH1 0xE0 SHL PUSH1 0x0 MSTORE PUSH1 0x32 PUSH1 0x4 MSTORE PUSH1 0x24 PUSH1 0x0 REVERT INVALID PUSH1 0x80 PUSH1 0x40 MSTORE PUSH1 0x4 CALLDATASIZE LT ISZERO PUSH2 0x12 JUMPI PUSH1 0x0 DUP1 REVERT JUMPDEST PUSH1 0x0 CALLDATALOAD PUSH1 0xE0 SHR DUP1 PUSH4 0x443EFB7 EQ PUSH2 0xD3C JUMPI DUP1 PUSH4 0x64A82CA EQ PUSH2 0xD1E JUMPI DUP1 PUSH4 0xBDE2876 EQ PUSH2 0x99D JUMPI DUP1 PUSH4 0x29DCB0CF EQ PUSH2 0x97F JUMPI DUP1 PUSH4 0x303B4E8D EQ PUSH2 0x961 JUMPI DUP1 PUSH4 0x3F4BA83A EQ PUSH2 0x8F8 JUMPI DUP1 PUSH4 0x47E7EF24 EQ PUSH2 0x7A5 JUMPI DUP1 PUSH4 0x5B8BC67D EQ PUSH2 0x787 JUMPI DUP1 PUSH4 0x5C975ABB EQ PUSH2 0x764 JUMPI DUP1 PUSH4 0x60F9C01B EQ PUSH2 0x746 JUMPI DUP1 PUSH4 0x63A31BD4 EQ PUSH2 0x707 JUMPI DUP1 PUSH4 0x715018A6 EQ PUSH2 0x6AA JUMPI DUP1 PUSH4 0x8456CB59 EQ PUSH2 0x650 JUMPI DUP1 PUSH4 0x8DA5CB5B EQ PUSH2 0x627 JUMPI DUP1 PUSH4 0x8F601F66 EQ PUSH2 0x5C6 JUMPI DUP1 PUSH4 0xB27AA229 EQ PUSH2 0x480 JUMPI DUP1 PUSH4 0xBB0C8298 EQ PUSH2 0x462 JUMPI DUP1 PUSH4 0xC320049A EQ PUSH2 0x1C6 JUMPI DUP1 PUSH4 0xDAF9C210 EQ PUSH2 0x187 JUMPI PUSH4 0xF2FDE38B EQ PUSH2 0xF8 JUMPI PUSH1 0x0 DUP1 REVERT JUMPDEST CALLVALUE PUSH2 0x182 JUMPI PUSH1 0x20 CALLDATASIZE PUSH1 0x3 NOT ADD SLT PUSH2 0x182 JUMPI PUSH2 0x111 PUSH2 0xEE3 JUMP JUMPDEST PUSH2 0x119 PUSH2 0xFAC JUMP JUMPDEST PUSH1 0x1 PUSH1 0x1 PUSH1 0xA0 SHL SUB AND DUP1 ISZERO PUSH2 0x16C JUMPI PUSH1 0x2 DUP1 SLOAD PUSH1 0x1 PUSH1 0x1 PUSH1 0xA0 SHL SUB NOT DUP2 AND DUP4 OR SWAP1 SWAP2 SSTORE PUSH1 0x1 PUSH1 0x1 PUSH1 0xA0 SHL SUB AND PUSH32 0x8BE0079C531659141344CD1FD0A4F28419497F9722A3DAAFE3B4186F6B6457E0 PUSH1 0x0 DUP1 LOG3 STOP JUMPDEST PUSH4 0x1E4FBDF7 PUSH1 0xE0 SHL PUSH1 0x0 MSTORE PUSH1 0x0 PUSH1 0x4 MSTORE PUSH1 0x24 PUSH1 0x0 REVERT JUMPDEST PUSH1 0x0 DUP1 REVERT JUMPDEST CALLVALUE PUSH2 0x182 JUMPI PUSH1 0x20 CALLDATASIZE PUSH1 0x3 NOT ADD SLT PUSH2 0x182 JUMPI PUSH1 0x1 PUSH1 0x1 PUSH1 0xA0 SHL SUB PUSH2 0x1A8 PUSH2 0xEE3 JUMP JUMPDEST AND PUSH1 0x0 MSTORE PUSH1 0xA PUSH1 0x20 MSTORE PUSH1 0x20 PUSH1 0xFF PUSH1 0x40 PUSH1 0x0 KECCAK256 SLOAD AND PUSH1 0x40 MLOAD SWAP1 ISZERO ISZERO DUP2 MSTORE RETURN JUMPDEST CALLVALUE PUSH2 0x182 JUMPI PUSH1 0x20 CALLDATASIZE PUSH1 0x3 NOT ADD SLT PUSH2 0x182 JUMPI PUSH1 0x4 CALLDATALOAD DUP1 PUSH1 0x0 MSTORE PUSH1 0xB PUSH1 0x20 MSTORE PUSH1 0x40 PUSH1 0x0 KECCAK256 PUSH1 0x2 DUP2 ADD SWAP1 DUP2 SLOAD PUSH1 0xFF DUP2 AND PUSH2 0x42A JUMPI PUSH1 0x1 DUP3 ADD SLOAD TIMESTAMP LT PUSH2 0x3EE JUMPI PUSH1 0x8 SHR PUSH1 0xFF AND SWAP1 PUSH1 0x4 DUP3 LT ISZERO PUSH2 0x3D8 JUMPI DUP2 PUSH2 0x2E1 JUMPI PUSH2 0x221 SWAP2 POP PUSH2 0xE3F JUMP JUMPDEST PUSH1 0x60 DUP2 DUP1 MLOAD DUP2 ADD SUB SLT PUSH2 0x182 JUMPI DUP1 PUSH2 0x23E PUSH1 0x20 PUSH2 0x2AF SWAP4 ADD PUSH2 0xF60 JUMP JUMPDEST SWAP1 PUSH2 0x250 PUSH1 0x60 PUSH1 0x40 DUP4 ADD MLOAD SWAP3 ADD PUSH2 0xF60 JUMP JUMPDEST SWAP2 PUSH1 0x1 DUP1 PUSH1 0xA0 SHL SUB AND SWAP1 DUP2 PUSH1 0x0 MSTORE PUSH1 0xA PUSH1 0x20 MSTORE PUSH2 0x274 PUSH1 0xFF PUSH1 0x40 PUSH1 0x0 KECCAK256 SLOAD AND PUSH2 0xF1C JUMP JUMPDEST PUSH1 0x40 MLOAD PUSH4 0xA9059CBB PUSH1 0xE0 SHL PUSH1 0x20 DUP3 ADD MSTORE PUSH1 0x1 PUSH1 0x1 PUSH1 0xA0 SHL SUB SWAP1 SWAP4 AND PUSH1 0x24 DUP5 ADD MSTORE PUSH1 0x44 DUP1 DUP5 ADD SWAP2 SWAP1 SWAP2 MSTORE DUP3 MSTORE PUSH2 0x2AA PUSH1 0x64 DUP4 PUSH2 0xE1D JUMP JUMPDEST PUSH2 0x101C JUMP JUMPDEST DUP1 SLOAD PUSH1 0xFF NOT AND PUSH1 0x1 OR SWAP1 SSTORE PUSH32 0xACBA7DB33AFD41CD69ADCB9749E50B9FD484953F306D98D2D6E0A8CE0ADB7D5C PUSH1 0x0 DUP1 LOG2 STOP JUMPDEST PUSH1 0x0 PUSH1 0x1 DUP4 SUB PUSH2 0x34C JUMPI POP PUSH2 0x2F6 SWAP2 POP PUSH2 0xE3F JUMP JUMPDEST PUSH1 0x40 DUP2 DUP1 MLOAD DUP2 ADD SUB SLT PUSH2 0x182 JUMPI PUSH1 0x40 PUSH2 0x311 PUSH1 0x20 DUP4 ADD PUSH2 0xF60 JUMP JUMPDEST SWAP2 ADD MLOAD DUP1 ISZERO ISZERO DUP2 SUB PUSH2 0x182 JUMPI PUSH2 0x347 SWAP2 PUSH1 0x1 DUP1 PUSH1 0xA0 SHL SUB AND PUSH1 0x0 MSTORE PUSH1 0x9 PUSH1 0x20 MSTORE PUSH1 0x40 PUSH1 0x0 KECCAK256 SWAP1 PUSH1 0xFF DUP1 NOT DUP4 SLOAD AND SWAP2 ISZERO ISZERO AND OR SWAP1 SSTORE JUMP JUMPDEST PUSH2 0x2AF JUMP JUMPDEST POP PUSH1 0x2 DUP3 SUB PUSH2 0x382 JUMPI PUSH2 0x35F SWAP2 POP PUSH2 0xE3F JUMP JUMPDEST PUSH1 0x40 DUP2 DUP1 MLOAD DUP2 ADD SUB SLT PUSH2 0x182 JUMPI PUSH1 0x40 PUSH1 0x20 DUP3 ADD MLOAD SWAP2 ADD MLOAD SWAP1 PUSH1 0x8 SSTORE PUSH1 0x7 SSTORE PUSH2 0x2AF JUMP JUMPDEST PUSH1 0x3 PUSH1 0x0 SWAP3 EQ PUSH2 0x394 JUMPI JUMPDEST POP POP PUSH2 0x2AF JUMP JUMPDEST PUSH2 0x39D SWAP1 PUSH2 0xE3F JUMP JUMPDEST SWAP1 PUSH1 0x80 DUP3 DUP1 MLOAD DUP2 ADD SUB SLT PUSH2 0x3D5 JUMPI POP PUSH1 0x20 DUP2 ADD MLOAD SWAP1 PUSH1 0x40 DUP2 ADD MLOAD PUSH1 0x80 PUSH1 0x60 DUP4 ADD MLOAD SWAP3 ADD MLOAD SWAP3 PUSH1 0x3 SSTORE PUSH1 0x4 SSTORE PUSH1 0x5 SSTORE PUSH1 0x6 SSTORE DUP3 DUP1 PUSH2 0x38D JUMP JUMPDEST DUP1 REVERT JUMPDEST PUSH4 0x4E487B71 PUSH1 0xE0 SHL PUSH1 0x0 MSTORE PUSH1 0x21 PUSH1 0x4 MSTORE PUSH1 0x24 PUSH1 0x0 REVERT JUMPDEST PUSH1 0x40 MLOAD PUSH3 0x461BCD PUSH1 0xE5 SHL DUP2 MSTORE PUSH1 0x20 PUSH1 0x4 DUP3 ADD MSTORE PUSH1 0x14 PUSH1 0x24 DUP3 ADD MSTORE PUSH20 0x151A5B595B1BD8DAC81B9BDD08195E1C1A5C9959 PUSH1 0x62 SHL PUSH1 0x44 DUP3 ADD MSTORE PUSH1 0x64 SWAP1 REVERT JUMPDEST PUSH1 0x40 MLOAD PUSH3 0x461BCD PUSH1 0xE5 SHL DUP2 MSTORE PUSH1 0x20 PUSH1 0x4 DUP3 ADD MSTORE PUSH1 0x10 PUSH1 0x24 DUP3 ADD MSTORE PUSH16 0x105B1C9958591E48195E1958DD5D1959 PUSH1 0x82 SHL PUSH1 0x44 DUP3 ADD MSTORE PUSH1 0x64 SWAP1 REVERT JUMPDEST CALLVALUE PUSH2 0x182 JUMPI PUSH1 0x0 CALLDATASIZE PUSH1 0x3 NOT ADD SLT PUSH2 0x182 JUMPI PUSH1 0x20 PUSH1 0x7 SLOAD PUSH1 0x40 MLOAD SWAP1 DUP2 MSTORE RETURN JUMPDEST CALLVALUE PUSH2 0x182 JUMPI PUSH1 0x40 CALLDATASIZE PUSH1 0x3 NOT ADD SLT PUSH2 0x182 JUMPI PUSH1 0x4 CALLDATALOAD PUSH8 0xFFFFFFFFFFFFFFFF DUP2 GT PUSH2 0x182 JUMPI CALLDATASIZE PUSH1 0x23 DUP3 ADD SLT ISZERO PUSH2 0x182 JUMPI DUP1 PUSH1 0x4 ADD CALLDATALOAD SWAP1 PUSH8 0xFFFFFFFFFFFFFFFF DUP3 GT PUSH2 0x182 JUMPI DUP2 PUSH1 0x5 SHL PUSH1 0x24 DUP2 DUP4 ADD ADD SWAP1 CALLDATASIZE DUP3 GT PUSH2 0x182 JUMPI PUSH1 0x24 CALLDATALOAD SWAP3 DUP4 ISZERO ISZERO SWAP3 DUP4 DUP6 SUB PUSH2 0x182 JUMPI PUSH2 0x4EC PUSH2 0xFAC JUMP JUMPDEST PUSH1 0x0 SWAP6 PUSH2 0x4FF PUSH1 0x20 PUSH1 0x40 MLOAD SWAP6 ADD DUP6 PUSH2 0xE1D JUMP JUMPDEST DUP4 MSTORE PUSH1 0x24 PUSH1 0x20 DUP5 ADD SWAP3 ADD SWAP2 JUMPDEST DUP2 DUP4 LT PUSH2 0x5A2 JUMPI POP POP POP DUP4 JUMPDEST DUP2 MLOAD DUP2 LT ISZERO PUSH2 0x59E JUMPI PUSH1 0x1 SWAP1 PUSH1 0x1 PUSH1 0x1 PUSH1 0xA0 SHL SUB PUSH2 0x535 DUP3 DUP6 PUSH2 0xFF2 JUMP JUMPDEST MLOAD AND DUP7 MSTORE PUSH1 0xA PUSH1 0x20 MSTORE PUSH2 0x557 DUP6 PUSH1 0x40 DUP9 KECCAK256 SWAP1 PUSH1 0xFF DUP1 NOT DUP4 SLOAD AND SWAP2 ISZERO ISZERO AND OR SWAP1 SSTORE JUMP JUMPDEST PUSH32 0x67821D5384BB02AAB1BA91A477F89C9966CD30F475B02618BDC58712BCA51275 PUSH1 0x40 DUP4 DUP1 PUSH1 0xA0 SHL SUB PUSH2 0x58A DUP5 DUP8 PUSH2 0xFF2 JUMP JUMPDEST MLOAD AND DUP2 MLOAD SWAP1 DUP2 MSTORE DUP7 PUSH1 0x20 DUP3 ADD MSTORE LOG1 ADD PUSH2 0x517 JUMP JUMPDEST DUP5 DUP1 RETURN JUMPDEST DUP3 CALLDATALOAD PUSH1 0x1 PUSH1 0x1 PUSH1 0xA0 SHL SUB DUP2 AND DUP2 SUB PUSH2 0x5C2 JUMPI DUP2 MSTORE PUSH1 0x20 SWAP3 DUP4 ADD SWAP3 ADD PUSH2 0x50B JUMP JUMPDEST DUP8 DUP1 REVERT JUMPDEST CALLVALUE PUSH2 0x182 JUMPI PUSH1 0x40 CALLDATASIZE PUSH1 0x3 NOT ADD SLT PUSH2 0x182 JUMPI PUSH2 0x5DF PUSH2 0xEE3 JUMP JUMPDEST PUSH1 0x24 CALLDATALOAD SWAP1 PUSH1 0x1 PUSH1 0x1 PUSH1 0xA0 SHL SUB DUP3 AND DUP3 SUB PUSH2 0x182 JUMPI PUSH1 0x1 DUP1 PUSH1 0xA0 SHL SUB AND PUSH1 0x0 MSTORE PUSH1 0xC PUSH1 0x20 MSTORE PUSH1 0x40 PUSH1 0x0 KECCAK256 SWAP1 PUSH1 0x1 DUP1 PUSH1 0xA0 SHL SUB AND PUSH1 0x0 MSTORE PUSH1 0x20 MSTORE PUSH1 0x20 PUSH1 0x40 PUSH1 0x0 KECCAK256 SLOAD PUSH1 0x40 MLOAD SWAP1 DUP2 MSTORE RETURN JUMPDEST CALLVALUE PUSH2 0x182 JUMPI PUSH1 0x0 CALLDATASIZE PUSH1 0x3 NOT ADD SLT PUSH2 0x182 JUMPI PUSH1 0x2 SLOAD PUSH1 0x40 MLOAD PUSH1 0x1 PUSH1 0x1 PUSH1 0xA0 SHL SUB SWAP1 SWAP2 AND DUP2 MSTORE PUSH1 0x20 SWAP1 RETURN JUMPDEST CALLVALUE PUSH2 0x182 JUMPI PUSH1 0x0 CALLDATASIZE PUSH1 0x3 NOT ADD SLT PUSH2 0x182 JUMPI PUSH2 0x669 PUSH2 0xFAC JUMP JUMPDEST PUSH2 0x671 PUSH2 0xFD5 JUMP JUMPDEST PUSH1 0x1 PUSH1 0xFF NOT PUSH1 0x0 SLOAD AND OR PUSH1 0x0 SSTORE PUSH32 0x62E78CEA01BEE320CD4E420270B5EA74000D11B0C9F74754EBDBFC544B05A258 PUSH1 0x20 PUSH1 0x40 MLOAD CALLER DUP2 MSTORE LOG1 STOP JUMPDEST CALLVALUE PUSH2 0x182 JUMPI PUSH1 0x0 CALLDATASIZE PUSH1 0x3 NOT ADD SLT PUSH2 0x182 JUMPI PUSH2 0x6C3 PUSH2 0xFAC JUMP JUMPDEST PUSH1 0x2 DUP1 SLOAD PUSH1 0x1 PUSH1 0x1 PUSH1 0xA0 SHL SUB NOT DUP2 AND SWAP1 SWAP2 SSTORE PUSH1 0x0 SWAP1 PUSH1 0x1 PUSH1 0x1 PUSH1 0xA0 SHL SUB AND PUSH32 0x8BE0079C531659141344CD1FD0A4F28419497F9722A3DAAFE3B4186F6B6457E0 DUP3 DUP1 LOG3 STOP JUMPDEST CALLVALUE PUSH2 0x182 JUMPI PUSH1 0x20 CALLDATASIZE PUSH1 0x3 NOT ADD SLT PUSH2 0x182 JUMPI PUSH1 0x1 PUSH1 0x1 PUSH1 0xA0 SHL SUB PUSH2 0x728 PUSH2 0xEE3 JUMP JUMPDEST AND PUSH1 0x0 MSTORE PUSH1 0x9 PUSH1 0x20 MSTORE PUSH1 0x20 PUSH1 0xFF PUSH1 0x40 PUSH1 0x0 KECCAK256 SLOAD AND PUSH1 0x40 MLOAD SWAP1 ISZERO ISZERO DUP2 MSTORE RETURN JUMPDEST CALLVALUE PUSH2 0x182 JUMPI PUSH1 0x0 CALLDATASIZE PUSH1 0x3 NOT ADD SLT PUSH2 0x182 JUMPI PUSH1 0x20 PUSH1 0x4 SLOAD PUSH1 0x40 MLOAD SWAP1 DUP2 MSTORE RETURN JUMPDEST CALLVALUE PUSH2 0x182 JUMPI PUSH1 0x0 CALLDATASIZE PUSH1 0x3 NOT ADD SLT PUSH2 0x182 JUMPI PUSH1 0x20 PUSH1 0xFF PUSH1 0x0 SLOAD AND PUSH1 0x40 MLOAD SWAP1 ISZERO ISZERO DUP2 MSTORE RETURN JUMPDEST CALLVALUE PUSH2 0x182 JUMPI PUSH1 0x0 CALLDATASIZE PUSH1 0x3 NOT ADD SLT PUSH2 0x182 JUMPI PUSH1 0x20 PUSH1 0x6 SLOAD PUSH1 0x40 MLOAD SWAP1 DUP2 MSTORE RETURN JUMPDEST CALLVALUE PUSH2 0x182 JUMPI PUSH1 0x40 CALLDATASIZE PUSH1 0x3 NOT ADD SLT PUSH2 0x182 JUMPI PUSH2 0x7BE PUSH2 0xEE3 JUMP JUMPDEST PUSH1 0x24 CALLDATALOAD SWAP1 PUSH1 0x2 PUSH1 0x1 SLOAD EQ PUSH2 0x8E7 JUMPI PUSH1 0x2 PUSH1 0x1 SSTORE PUSH2 0x7D9 PUSH2 0xFD5 JUMP JUMPDEST PUSH1 0x8 SLOAD TIMESTAMP LT ISZERO PUSH2 0x8AD JUMPI PUSH1 0x7 SLOAD DUP3 LT PUSH2 0x877 JUMPI PUSH1 0x1 PUSH1 0x1 PUSH1 0xA0 SHL SUB AND PUSH1 0x0 DUP2 DUP2 MSTORE PUSH1 0xA PUSH1 0x20 MSTORE PUSH1 0x40 SWAP1 KECCAK256 SLOAD PUSH2 0x810 SWAP1 PUSH1 0xFF AND PUSH2 0xF1C JUMP JUMPDEST PUSH2 0x84A PUSH1 0x40 MLOAD PUSH4 0x23B872DD PUSH1 0xE0 SHL PUSH1 0x20 DUP3 ADD MSTORE CALLER PUSH1 0x24 DUP3 ADD MSTORE ADDRESS PUSH1 0x44 DUP3 ADD MSTORE DUP4 PUSH1 0x64 DUP3 ADD MSTORE PUSH1 0x64 DUP2 MSTORE PUSH2 0x844 PUSH1 0x84 DUP3 PUSH2 0xE1D JUMP JUMPDEST DUP3 PUSH2 0x101C JUMP JUMPDEST CALLER PUSH1 0x0 MSTORE PUSH1 0xC PUSH1 0x20 MSTORE PUSH1 0x40 PUSH1 0x0 KECCAK256 SWAP1 PUSH1 0x0 MSTORE PUSH1 0x20 MSTORE PUSH2 0x86F PUSH1 0x40 PUSH1 0x0 KECCAK256 SWAP2 DUP3 SLOAD PUSH2 0xEF9 JUMP JUMPDEST SWAP1 SSTORE PUSH1 0x1 DUP1 SSTORE STOP JUMPDEST PUSH1 0x40 MLOAD PUSH3 0x461BCD PUSH1 0xE5 SHL DUP2 MSTORE PUSH1 0x20 PUSH1 0x4 DUP3 ADD MSTORE PUSH1 0xE PUSH1 0x24 DUP3 ADD MSTORE PUSH14 0x416D6F756E7420746F6F206C6F77 PUSH1 0x90 SHL PUSH1 0x44 DUP3 ADD MSTORE PUSH1 0x64 SWAP1 REVERT JUMPDEST PUSH1 0x40 MLOAD PUSH3 0x461BCD PUSH1 0xE5 SHL DUP2 MSTORE PUSH1 0x20 PUSH1 0x4 DUP3 ADD MSTORE PUSH1 0x12 PUSH1 0x24 DUP3 ADD MSTORE PUSH18 0x10DC9BDDD9199D5B991A5B99C8195B991959 PUSH1 0x72 SHL PUSH1 0x44 DUP3 ADD MSTORE PUSH1 0x64 SWAP1 REVERT JUMPDEST PUSH4 0x3EE5AEB5 PUSH1 0xE0 SHL PUSH1 0x0 MSTORE PUSH1 0x4 PUSH1 0x0 REVERT JUMPDEST CALLVALUE PUSH2 0x182 JUMPI PUSH1 0x0 CALLDATASIZE PUSH1 0x3 NOT ADD SLT PUSH2 0x182 JUMPI PUSH2 0x911 PUSH2 0xFAC JUMP JUMPDEST PUSH1 0x0 SLOAD PUSH1 0xFF DUP2 AND ISZERO PUSH2 0x950 JUMPI PUSH1 0xFF NOT AND PUSH1 0x0 SSTORE PUSH32 0x5DB9EE0A495BF2E6FF9C91A7834C1BA4FDD244A5E8AA4E537BD38AEAE4B073AA PUSH1 0x20 PUSH1 0x40 MLOAD CALLER DUP2 MSTORE LOG1 STOP JUMPDEST PUSH4 0x8DFC202B PUSH1 0xE0 SHL PUSH1 0x0 MSTORE PUSH1 0x4 PUSH1 0x0 REVERT JUMPDEST CALLVALUE PUSH2 0x182 JUMPI PUSH1 0x0 CALLDATASIZE PUSH1 0x3 NOT ADD SLT PUSH2 0x182 JUMPI PUSH1 0x20 PUSH1 0x5 SLOAD PUSH1 0x40 MLOAD SWAP1 DUP2 MSTORE RETURN JUMPDEST CALLVALUE PUSH2 0x182 JUMPI PUSH1 0x0 CALLDATASIZE PUSH1 0x3 NOT ADD SLT PUSH2 0x182 JUMPI PUSH1 0x20 PUSH1 0x8 SLOAD PUSH1 0x40 MLOAD SWAP1 DUP2 MSTORE RETURN JUMPDEST CALLVALUE PUSH2 0x182 JUMPI PUSH1 0x40 CALLDATASIZE PUSH1 0x3 NOT ADD SLT PUSH2 0x182 JUMPI PUSH1 0x4 CALLDATALOAD PUSH1 0x4 DUP2 LT ISZERO PUSH2 0x182 JUMPI PUSH1 0x24 CALLDATALOAD SWAP1 PUSH8 0xFFFFFFFFFFFFFFFF DUP3 GT PUSH2 0x182 JUMPI CALLDATASIZE PUSH1 0x23 DUP4 ADD SLT ISZERO PUSH2 0x182 JUMPI DUP2 PUSH1 0x4 ADD CALLDATALOAD SWAP1 PUSH8 0xFFFFFFFFFFFFFFFF DUP3 GT PUSH2 0x182 JUMPI PUSH1 0x24 DUP4 ADD SWAP3 PUSH1 0x24 DUP4 CALLDATASIZE SWAP3 ADD ADD GT PUSH2 0x182 JUMPI PUSH1 0x0 DUP2 PUSH2 0xCDB JUMPI CALLER DUP2 MSTORE PUSH1 0x9 PUSH1 0x20 MSTORE PUSH1 0xFF PUSH1 0x40 DUP3 KECCAK256 SLOAD AND ISZERO PUSH2 0xC9D JUMPI JUMPDEST PUSH1 0x40 MLOAD PUSH2 0xA59 PUSH1 0x21 PUSH1 0x34 DUP4 PUSH1 0x20 DUP2 ADD SWAP6 CALLER PUSH1 0x60 SHL DUP8 MSTORE DUP9 DUP11 DUP5 DUP5 ADD CALLDATACOPY DUP9 DUP3 ADD SWAP1 TIMESTAMP DUP5 DUP4 ADD MSTORE POP DUP8 PUSH1 0xF8 SHL PUSH1 0x54 DUP3 ADD MSTORE SUB ADD PUSH1 0x1 DUP2 ADD DUP5 MSTORE ADD DUP3 PUSH2 0xE1D JUMP JUMPDEST MLOAD SWAP1 KECCAK256 SWAP1 PUSH2 0xA6F PUSH2 0xA69 DUP3 PUSH2 0xF74 JUMP JUMPDEST TIMESTAMP PUSH2 0xEF9 JUMP JUMPDEST PUSH1 0x40 MLOAD SWAP5 PUSH1 0x80 DUP7 ADD SWAP5 DUP7 DUP7 LT PUSH8 0xFFFFFFFFFFFFFFFF DUP8 GT OR PUSH2 0xC87 JUMPI PUSH1 0x20 SWAP6 PUSH1 0x40 MSTORE PUSH1 0x0 SWAP6 DUP2 DUP8 SWAP3 PUSH1 0x40 MLOAD SWAP5 PUSH2 0xAAE DUP5 PUSH1 0x1F NOT PUSH1 0x1F DUP6 ADD AND ADD DUP8 PUSH2 0xE1D JUMP JUMPDEST DUP2 DUP7 MSTORE DUP4 DUP7 ADD CALLDATACOPY DUP4 ADD ADD MSTORE DUP6 MSTORE PUSH1 0x20 DUP6 ADD SWAP1 DUP2 MSTORE PUSH1 0x40 DUP6 ADD SWAP5 DUP5 DUP7 MSTORE PUSH1 0x60 DUP2 ADD SWAP2 DUP4 DUP4 MSTORE DUP5 DUP7 MSTORE PUSH1 0xB PUSH1 0x20 MSTORE PUSH1 0x40 DUP7 KECCAK256 SWAP2 MLOAD DUP1 MLOAD SWAP1 PUSH8 0xFFFFFFFFFFFFFFFF DUP3 GT PUSH2 0xC73 JUMPI PUSH2 0xAFC DUP5 SLOAD PUSH2 0xDE3 JUMP JUMPDEST PUSH1 0x1F DUP2 GT PUSH2 0xC2E JUMPI JUMPDEST POP PUSH1 0x20 SWAP1 PUSH1 0x1F DUP4 GT PUSH1 0x1 EQ PUSH2 0xBC4 JUMPI SWAP2 DUP1 PUSH1 0x2 SWAP5 SWAP3 PUSH2 0xB58 SWAP7 SWAP5 DUP12 SWAP3 PUSH2 0xBB9 JUMPI JUMPDEST POP POP DUP2 PUSH1 0x1 SHL SWAP2 PUSH1 0x0 NOT SWAP1 PUSH1 0x3 SHL SHR NOT AND OR DUP3 SSTORE JUMPDEST MLOAD PUSH1 0x1 DUP3 ADD SSTORE ADD SWAP6 MLOAD ISZERO ISZERO DUP7 SWAP1 PUSH1 0xFF DUP1 NOT DUP4 SLOAD AND SWAP2 ISZERO ISZERO AND OR SWAP1 SSTORE JUMP JUMPDEST MLOAD SWAP4 PUSH1 0x4 DUP6 LT ISZERO PUSH2 0xBA5 JUMPI PUSH1 0x20 SWAP5 PUSH2 0xFF00 DUP3 SLOAD SWAP2 PUSH1 0x8 SHL AND SWAP1 PUSH2 0xFF00 NOT AND OR SWAP1 SSTORE DUP2 PUSH32 0xB3B9190940CAB3AE1E75D3728E06E589AD4BA3BBDBBE64CF389829EE7AC84074 PUSH1 0x40 MLOAD SWAP5 DUP1 LOG3 DUP2 MSTORE RETURN JUMPDEST PUSH4 0x4E487B71 PUSH1 0xE0 SHL DUP5 MSTORE PUSH1 0x21 PUSH1 0x4 MSTORE PUSH1 0x24 DUP5 REVERT JUMPDEST ADD MLOAD SWAP1 POP DUP12 DUP1 PUSH2 0xB26 JUMP JUMPDEST DUP5 DUP10 MSTORE DUP2 DUP10 KECCAK256 SWAP2 SWAP1 PUSH1 0x1F NOT DUP5 AND DUP11 JUMPDEST DUP2 DUP2 LT PUSH2 0xC16 JUMPI POP SWAP3 PUSH1 0x1 SWAP3 DUP6 SWAP3 PUSH2 0xB58 SWAP9 SWAP7 PUSH1 0x2 SWAP9 SWAP7 LT PUSH2 0xBFD JUMPI JUMPDEST POP POP POP DUP2 SHL ADD DUP3 SSTORE PUSH2 0xB3B JUMP JUMPDEST ADD MLOAD PUSH1 0x0 NOT PUSH1 0xF8 DUP5 PUSH1 0x3 SHL AND SHR NOT AND SWAP1 SSTORE DUP12 DUP1 DUP1 PUSH2 0xBF0 JUMP JUMPDEST SWAP3 SWAP4 PUSH1 0x20 PUSH1 0x1 DUP2 SWAP3 DUP8 DUP7 ADD MLOAD DUP2 SSTORE ADD SWAP6 ADD SWAP4 ADD PUSH2 0xBD3 JUMP JUMPDEST DUP5 DUP10 MSTORE PUSH1 0x20 DUP10 KECCAK256 PUSH1 0x1F DUP5 ADD PUSH1 0x5 SHR DUP2 ADD SWAP2 PUSH1 0x20 DUP6 LT PUSH2 0xC69 JUMPI JUMPDEST PUSH1 0x1F ADD PUSH1 0x5 SHR ADD SWAP1 JUMPDEST DUP2 DUP2 LT PUSH2 0xC5E JUMPI POP PUSH2 0xB05 JUMP JUMPDEST DUP10 DUP2 SSTORE PUSH1 0x1 ADD PUSH2 0xC51 JUMP JUMPDEST SWAP1 SWAP2 POP DUP2 SWAP1 PUSH2 0xC48 JUMP JUMPDEST PUSH4 0x4E487B71 PUSH1 0xE0 SHL DUP9 MSTORE PUSH1 0x41 PUSH1 0x4 MSTORE PUSH1 0x24 DUP9 REVERT JUMPDEST PUSH4 0x4E487B71 PUSH1 0xE0 SHL PUSH1 0x0 MSTORE PUSH1 0x41 PUSH1 0x4 MSTORE PUSH1 0x24 PUSH1 0x0 REVERT JUMPDEST PUSH1 0x40 MLOAD PUSH3 0x461BCD PUSH1 0xE5 SHL DUP2 MSTORE PUSH1 0x20 PUSH1 0x4 DUP3 ADD MSTORE PUSH1 0x16 PUSH1 0x24 DUP3 ADD MSTORE PUSH22 0x2737BA1030BABA3437B934BD32B21039B832B73232B9 PUSH1 0x51 SHL PUSH1 0x44 DUP3 ADD MSTORE PUSH1 0x64 SWAP1 REVERT JUMPDEST PUSH1 0x2 SLOAD PUSH1 0x1 PUSH1 0x1 PUSH1 0xA0 SHL SUB AND CALLER EQ PUSH2 0xA1B JUMPI PUSH1 0x40 MLOAD PUSH3 0x461BCD PUSH1 0xE5 SHL DUP2 MSTORE PUSH1 0x20 PUSH1 0x4 DUP3 ADD MSTORE PUSH1 0x9 PUSH1 0x24 DUP3 ADD MSTORE PUSH9 0x2737BA1037BBB732B9 PUSH1 0xB9 SHL PUSH1 0x44 DUP3 ADD MSTORE PUSH1 0x64 SWAP1 REVERT JUMPDEST CALLVALUE PUSH2 0x182 JUMPI PUSH1 0x0 CALLDATASIZE PUSH1 0x3 NOT ADD SLT PUSH2 0x182 JUMPI PUSH1 0x20 PUSH1 0x3 SLOAD PUSH1 0x40 MLOAD SWAP1 DUP2 MSTORE RETURN JUMPDEST CALLVALUE PUSH2 0x182 JUMPI PUSH1 0x20 CALLDATASIZE PUSH1 0x3 NOT ADD SLT PUSH2 0x182 JUMPI PUSH1 0x4 CALLDATALOAD PUSH1 0x0 MSTORE PUSH1 0xB PUSH1 0x20 MSTORE PUSH1 0x40 PUSH1 0x0 KECCAK256 PUSH2 0xD66 DUP2 PUSH2 0xE3F JUMP JUMPDEST PUSH1 0x2 PUSH1 0x1 DUP4 ADD SLOAD SWAP3 ADD SLOAD PUSH1 0xFF DUP2 PUSH1 0x8 SHR AND SWAP1 PUSH1 0x40 MLOAD SWAP4 PUSH1 0x80 DUP6 MSTORE DUP4 MLOAD SWAP4 DUP5 PUSH1 0x80 DUP8 ADD MSTORE PUSH1 0x0 JUMPDEST DUP6 DUP2 LT PUSH2 0xDCD JUMPI POP POP PUSH1 0x0 DUP6 DUP6 ADD PUSH1 0xA0 ADD MSTORE PUSH1 0x20 DUP6 ADD MSTORE PUSH1 0xFF AND ISZERO ISZERO PUSH1 0x40 DUP5 ADD MSTORE PUSH1 0x4 DUP2 LT ISZERO PUSH2 0x3D8 JUMPI PUSH1 0x60 DUP4 ADD MSTORE PUSH1 0x1F ADD PUSH1 0x1F NOT AND DUP2 ADD DUP2 SWAP1 SUB PUSH1 0xA0 ADD SWAP1 RETURN JUMPDEST DUP1 PUSH1 0x20 DUP1 SWAP3 DUP5 ADD ADD MLOAD PUSH1 0xA0 DUP3 DUP11 ADD ADD MSTORE ADD PUSH2 0xD8C JUMP JUMPDEST SWAP1 PUSH1 0x1 DUP3 DUP2 SHR SWAP3 AND DUP1 ISZERO PUSH2 0xE13 JUMPI JUMPDEST PUSH1 0x20 DUP4 LT EQ PUSH2 0xDFD JUMPI JUMP JUMPDEST PUSH4 0x4E487B71 PUSH1 0xE0 SHL PUSH1 0x0 MSTORE PUSH1 0x22 PUSH1 0x4 MSTORE PUSH1 0x24 PUSH1 0x0 REVERT JUMPDEST SWAP2 PUSH1 0x7F AND SWAP2 PUSH2 0xDF2 JUMP JUMPDEST SWAP1 PUSH1 0x1F DUP1 NOT SWAP2 ADD AND DUP2 ADD SWAP1 DUP2 LT PUSH8 0xFFFFFFFFFFFFFFFF DUP3 GT OR PUSH2 0xC87 JUMPI PUSH1 0x40 MSTORE JUMP JUMPDEST SWAP1 PUSH1 0x40 MLOAD SWAP2 DUP3 PUSH1 0x0 DUP3 SLOAD SWAP3 PUSH2 0xE53 DUP5 PUSH2 0xDE3 JUMP JUMPDEST DUP1 DUP5 MSTORE SWAP4 PUSH1 0x1 DUP2 AND SWAP1 DUP2 ISZERO PUSH2 0xEC1 JUMPI POP PUSH1 0x1 EQ PUSH2 0xE7A JUMPI JUMPDEST POP PUSH2 0xE78 SWAP3 POP SUB DUP4 PUSH2 0xE1D JUMP JUMPDEST JUMP JUMPDEST SWAP1 POP PUSH1 0x0 SWAP3 SWAP2 SWAP3 MSTORE PUSH1 0x20 PUSH1 0x0 KECCAK256 SWAP1 PUSH1 0x0 SWAP2 JUMPDEST DUP2 DUP4 LT PUSH2 0xEA5 JUMPI POP POP SWAP1 PUSH1 0x20 PUSH2 0xE78 SWAP3 DUP3 ADD ADD CODESIZE PUSH2 0xE6B JUMP JUMPDEST PUSH1 0x20 SWAP2 SWAP4 POP DUP1 PUSH1 0x1 SWAP2 SLOAD DUP4 DUP6 DUP10 ADD ADD MSTORE ADD SWAP2 ADD SWAP1 SWAP2 DUP5 SWAP3 PUSH2 0xE8C JUMP JUMPDEST SWAP1 POP PUSH1 0x20 SWAP3 POP PUSH2 0xE78 SWAP5 SWAP2 POP PUSH1 0xFF NOT AND DUP3 DUP5 ADD MSTORE ISZERO ISZERO PUSH1 0x5 SHL DUP3 ADD ADD CODESIZE PUSH2 0xE6B JUMP JUMPDEST PUSH1 0x4 CALLDATALOAD SWAP1 PUSH1 0x1 PUSH1 0x1 PUSH1 0xA0 SHL SUB DUP3 AND DUP3 SUB PUSH2 0x182 JUMPI JUMP JUMPDEST SWAP2 SWAP1 DUP3 ADD DUP1 SWAP3 GT PUSH2 0xF06 JUMPI JUMP JUMPDEST PUSH4 0x4E487B71 PUSH1 0xE0 SHL PUSH1 0x0 MSTORE PUSH1 0x11 PUSH1 0x4 MSTORE PUSH1 0x24 PUSH1 0x0 REVERT JUMPDEST ISZERO PUSH2 0xF23 JUMPI JUMP JUMPDEST PUSH1 0x40 MLOAD PUSH3 0x461BCD PUSH1 0xE5 SHL DUP2 MSTORE PUSH1 0x20 PUSH1 0x4 DUP3 ADD MSTORE PUSH1 0x15 PUSH1 0x24 DUP3 ADD MSTORE PUSH21 0x151BDAD95B881B9BDD081DDA1A5D195B1A5CDD1959 PUSH1 0x5A SHL PUSH1 0x44 DUP3 ADD MSTORE PUSH1 0x64 SWAP1 REVERT JUMPDEST MLOAD SWAP1 PUSH1 0x1 PUSH1 0x1 PUSH1 0xA0 SHL SUB DUP3 AND DUP3 SUB PUSH2 0x182 JUMPI JUMP JUMPDEST PUSH1 0x4 DUP2 LT ISZERO PUSH2 0x3D8 JUMPI DUP1 ISZERO PUSH2 0xFA5 JUMPI PUSH1 0x1 DUP2 EQ PUSH2 0xF9E JUMPI PUSH1 0x2 EQ PUSH2 0xF98 JUMPI PUSH1 0x6 SLOAD SWAP1 JUMP JUMPDEST PUSH1 0x5 SLOAD SWAP1 JUMP JUMPDEST POP PUSH1 0x4 SLOAD SWAP1 JUMP JUMPDEST POP PUSH1 0x3 SLOAD SWAP1 JUMP JUMPDEST PUSH1 0x2 SLOAD PUSH1 0x1 PUSH1 0x1 PUSH1 0xA0 SHL SUB AND CALLER SUB PUSH2 0xFC0 JUMPI JUMP JUMPDEST PUSH4 0x118CDAA7 PUSH1 0xE0 SHL PUSH1 0x0 MSTORE CALLER PUSH1 0x4 MSTORE PUSH1 0x24 PUSH1 0x0 REVERT JUMPDEST PUSH1 0xFF PUSH1 0x0 SLOAD AND PUSH2 0xFE1 JUMPI JUMP JUMPDEST PUSH4 0xD93C0665 PUSH1 0xE0 SHL PUSH1 0x0 MSTORE PUSH1 0x4 PUSH1 0x0 REVERT JUMPDEST DUP1 MLOAD DUP3 LT ISZERO PUSH2 0x1006 JUMPI PUSH1 0x20 SWAP2 PUSH1 0x5 SHL ADD ADD SWAP1 JUMP JUMPDEST PUSH4 0x4E487B71 PUSH1 0xE0 SHL PUSH1 0x0 MSTORE PUSH1 0x32 PUSH1 0x4 MSTORE PUSH1 0x24 PUSH1 0x0 REVERT JUMPDEST SWAP1 PUSH1 0x0 PUSH1 0x20 SWAP2 DUP3 DUP2 MLOAD SWAP2 ADD DUP3 DUP6 GAS CALL ISZERO PUSH2 0x1077 JUMPI PUSH1 0x0 MLOAD RETURNDATASIZE PUSH2 0x106E JUMPI POP PUSH1 0x1 PUSH1 0x1 PUSH1 0xA0 SHL SUB DUP2 AND EXTCODESIZE ISZERO JUMPDEST PUSH2 0x104D JUMPI POP JUMP JUMPDEST PUSH4 0x5274AFE7 PUSH1 0xE0 SHL PUSH1 0x0 SWAP1 DUP2 MSTORE PUSH1 0x1 PUSH1 0x1 PUSH1 0xA0 SHL SUB SWAP2 SWAP1 SWAP2 AND PUSH1 0x4 MSTORE PUSH1 0x24 SWAP1 REVERT JUMPDEST PUSH1 0x1 EQ ISZERO PUSH2 0x1046 JUMP JUMPDEST PUSH1 0x40 MLOAD RETURNDATASIZE PUSH1 0x0 DUP3 RETURNDATACOPY RETURNDATASIZE SWAP1 REVERT INVALID LOG1 PUSH5 0x736F6C6343 STOP ADDMOD SHL STOP EXP "
        },
        "methodIdentifiers": {
          "changes(bytes32)": "0443efb7",
          "deadline()": "29dcb0cf",
          "deposit(address,uint256)": "47e7ef24",
          "deposits(address,address)": "8f601f66",
          "executeChange(bytes32)": "c320049a",
          "minimumAmount()": "bb0c8298",
          "owner()": "8da5cb5b",
          "parameterTimelock()": "303b4e8d",
          "pause()": "8456cb59",
          "paused()": "5c975abb",
          "renounceOwnership()": "715018a6",
          "requestChange(uint8,bytes)": "0bde2876",
          "setTokenWhitelist(address[],bool)": "b27aa229",
          "spenderTimelock()": "60f9c01b",
          "spenders(address)": "63a31bd4",
          "spendingTimelock()": "064a82ca",
          "timelockTimelock()": "5b8bc67d",
          "transferOwnership(address)": "f2fde38b",
          "unpause()": "3f4ba83a",
          "whitelistedTokens(address)": "daf9c210"
        }
      }
    }
  }
}