{
  "contracts/TreasuryFactory.sol": {
    "Treasury": {
      "abi": [
        {
          "inputs": [
            {
              "internalType": "address",
              "name": "_safe",
              "type": "address"
            },
            {
              "internalType": "uint256",
              "name": "_minimumAmount",
              "type": "uint256"
            },
            {
              "internalType": "uint256",
              "name": "_deadline",
              "type": "uint256"
            },
            {
              "internalType": "address[]",
              "name": "_whitelistedTokens",
              "type": "address[]"
            }
          ],
          "stateMutability": "nonpayable",
          "type": "constructor"
        },
        {
          "inputs": [],
          "name": "EnforcedPause",
          "type": "error"
        },
        {
          "inputs": [],
          "name": "ExpectedPause",
          "type": "error"
        },
        {
          "inputs": [
            {
              "internalType": "address",
              "name": "owner",
              "type": "address"
            }
          ],
          "name": "OwnableInvalidOwner",
          "type": "error"
        },
        {
          "inputs": [
            {
              "internalType": "address",
              "name": "account",
              "type": "address"
            }
          ],
          "name": "OwnableUnauthorizedAccount",
          "type": "error"
        },
        {
          "inputs": [],
          "name": "ReentrancyGuardReentrantCall",
          "type": "error"
        },
        {
          "inputs": [
            {
              "internalType": "address",
              "name": "token",
              "type": "address"
            }
          ],
          "name": "SafeERC20FailedOperation",
          "type": "error"
        },
        {
          "anonymous": false,
          "inputs": [
            {
              "indexed": true,
              "internalType": "bytes32",
              "name": "lockId",
              "type": "bytes32"
            }
          ],
          "name": "ChangeExecuted",
          "type": "event"
        },
        {
          "anonymous": false,
          "inputs": [
            {
              "indexed": true,
              "internalType": "bytes32",
              "name": "lockId",
              "type": "bytes32"
            },
            {
              "indexed": true,
              "internalType": "enum Treasury.ChangeType",
              "name": "changeType",
              "type": "uint8"
            }
          ],
          "name": "ChangeRequested",
          "type": "event"
        },
        {
          "anonymous": false,
          "inputs": [
            {
              "indexed": false,
              "internalType": "address",
              "name": "signer",
              "type": "address"
            },
            {
              "indexed": false,
              "internalType": "uint256",
              "name": "newThreshold",
              "type": "uint256"
            }
          ],
          "name": "NewSigner",
          "type": "event"
        },
        {
          "anonymous": false,
          "inputs": [
            {
              "indexed": true,
              "internalType": "address",
              "name": "previousOwner",
              "type": "address"
            },
            {
              "indexed": true,
              "internalType": "address",
              "name": "newOwner",
              "type": "address"
            }
          ],
          "name": "OwnershipTransferred",
          "type": "event"
        },
        {
          "anonymous": false,
          "inputs": [
            {
              "indexed": false,
              "internalType": "address",
              "name": "account",
              "type": "address"
            }
          ],
          "name": "Paused",
          "type": "event"
        },
        {
          "anonymous": false,
          "inputs": [
            {
              "indexed": false,
              "internalType": "address",
              "name": "token",
              "type": "address"
            },
            {
              "indexed": false,
              "internalType": "bool",
              "name": "status",
              "type": "bool"
            }
          ],
          "name": "TokenWhitelistUpdated",
          "type": "event"
        },
        {
          "anonymous": false,
          "inputs": [
            {
              "indexed": false,
              "internalType": "address",
              "name": "account",
              "type": "address"
            }
          ],
          "name": "Unpaused",
          "type": "event"
        },
        {
          "inputs": [
            {
              "internalType": "bytes32",
              "name": "",
              "type": "bytes32"
            }
          ],
          "name": "changes",
          "outputs": [
            {
              "internalType": "bytes",
              "name": "data",
              "type": "bytes"
            },
            {
              "internalType": "uint256",
              "name": "releaseTime",
              "type": "uint256"
            },
            {
              "internalType": "bool",
              "name": "executed",
              "type": "bool"
            },
            {
              "internalType": "enum Treasury.ChangeType",
              "name": "changeType",
              "type": "uint8"
            }
          ],
          "stateMutability": "view",
          "type": "function"
        },
        {
          "inputs": [],
          "name": "deadline",
          "outputs": [
            {
              "internalType": "uint256",
              "name": "",
              "type": "uint256"
            }
          ],
          "stateMutability": "view",
          "type": "function"
        },
        {
          "inputs": [
            {
              "internalType": "address",
              "name": "token",
              "type": "address"
            },
            {
              "internalType": "uint256",
              "name": "amount",
              "type": "uint256"
            }
          ],
          "name": "deposit",
          "outputs": [],
          "stateMutability": "nonpayable",
          "type": "function"
        },
        {
          "inputs": [
            {
              "internalType": "address",
              "name": "",
              "type": "address"
            },
            {
              "internalType": "address",
              "name": "",
              "type": "address"
            }
          ],
          "name": "deposits",
          "outputs": [
            {
              "internalType": "uint256",
              "name": "",
              "type": "uint256"
            }
          ],
          "stateMutability": "view",
          "type": "function"
        },
        {
          "inputs": [
            {
              "internalType": "bytes32",
              "name": "lockId",
              "type": "bytes32"
            }
          ],
          "name": "executeChange",
          "outputs": [],
          "stateMutability": "nonpayable",
          "type": "function"
        },
        {
          "inputs": [],
          "name": "minimumAmount",
          "outputs": [
            {
              "internalType": "uint256",
              "name": "",
              "type": "uint256"
            }
          ],
          "stateMutability": "view",
          "type": "function"
        },
        {
          "inputs": [],
          "name": "owner",
          "outputs": [
            {
              "internalType": "address",
              "name": "",
              "type": "address"
            }
          ],
          "stateMutability": "view",
          "type": "function"
        },
        {
          "inputs": [],
          "name": "parameterTimelock",
          "outputs": [
            {
              "internalType": "uint256",
              "name": "",
              "type": "uint256"
            }
          ],
          "stateMutability": "view",
          "type": "function"
        },
        {
          "inputs": [],
          "name": "pause",
          "outputs": [],
          "stateMutability": "nonpayable",
          "type": "function"
        },
        {
          "inputs": [],
          "name": "paused",
          "outputs": [
            {
              "internalType": "bool",
              "name": "",
              "type": "bool"
            }
          ],
          "stateMutability": "view",
          "type": "function"
        },
        {
          "inputs": [],
          "name": "renounceOwnership",
          "outputs": [],
          "stateMutability": "nonpayable",
          "type": "function"
        },
        {
          "inputs": [
            {
              "internalType": "enum Treasury.ChangeType",
              "name": "changeType",
              "type": "uint8"
            },
            {
              "internalType": "bytes",
              "name": "data",
              "type": "bytes"
            }
          ],
          "name": "requestChange",
          "outputs": [
            {
              "internalType": "bytes32",
              "name": "",
              "type": "bytes32"
            }
          ],
          "stateMutability": "nonpayable",
          "type": "function"
        },
        {
          "inputs": [],
          "name": "safe",
          "outputs": [
            {
              "internalType": "contract IGnosisSafe",
              "name": "",
              "type": "address"
            }
          ],
          "stateMutability": "view",
          "type": "function"
        },
        {
          "inputs": [
            {
              "internalType": "address[]",
              "name": "tokens",
              "type": "address[]"
            },
            {
              "internalType": "bool",
              "name": "status",
              "type": "bool"
            }
          ],
          "name": "setTokenWhitelist",
          "outputs": [],
          "stateMutability": "nonpayable",
          "type": "function"
        },
        {
          "inputs": [],
          "name": "spenderTimelock",
          "outputs": [
            {
              "internalType": "uint256",
              "name": "",
              "type": "uint256"
            }
          ],
          "stateMutability": "view",
          "type": "function"
        },
        {
          "inputs": [
            {
              "internalType": "address",
              "name": "",
              "type": "address"
            }
          ],
          "name": "spenders",
          "outputs": [
            {
              "internalType": "bool",
              "name": "",
              "type": "bool"
            }
          ],
          "stateMutability": "view",
          "type": "function"
        },
        {
          "inputs": [],
          "name": "spendingTimelock",
          "outputs": [
            {
              "internalType": "uint256",
              "name": "",
              "type": "uint256"
            }
          ],
          "stateMutability": "view",
          "type": "function"
        },
        {
          "inputs": [],
          "name": "timelockTimelock",
          "outputs": [
            {
              "internalType": "uint256",
              "name": "",
              "type": "uint256"
            }
          ],
          "stateMutability": "view",
          "type": "function"
        },
        {
          "inputs": [
            {
              "internalType": "address",
              "name": "newOwner",
              "type": "address"
            }
          ],
          "name": "transferOwnership",
          "outputs": [],
          "stateMutability": "nonpayable",
          "type": "function"
        },
        {
          "inputs": [],
          "name": "unpause",
          "outputs": [],
          "stateMutability": "nonpayable",
          "type": "function"
        },
        {
          "inputs": [
            {
              "internalType": "address",
              "name": "",
              "type": "address"
            }
          ],
          "name": "whitelistedTokens",
          "outputs": [
            {
              "internalType": "bool",
              "name": "",
              "type": "bool"
            }
          ],
          "stateMutability": "view",
          "type": "function"
        }
      ],
      "evm": {
        "bytecode": {
          "linkReferences": {},
          "object": "60a0604052346101f8576116598038038061001981610213565b9283398101906080818303126101f85761003281610238565b60208201516040830151606084015190939192916001600160401b0382116101f857019380601f860112156101f8578451946001600160401b0386116101fd578560051b90602080610085818501610213565b8099815201928201019283116101f857602001905b8282106101e05750506000805460ff1916905550600180556001600160a01b031680156101ca57600280546001600160a01b03198116831790915581906001600160a01b03167f8be0079c531659141344cd1fd0a4f28419497f9722a3daafe3b4186f6b6457e0600080a36080526007556008556201518060035562093a806004556203f4806005556212750060065560005b81518110156101ab576001906001600160a01b0361014b828561024c565b5116600052600a60205260406000208260ff198254161790557f67821d5384bb02aab1ba91a477f89c9966cd30f475b02618bdc58712bca512756040838060a01b03610197848761024c565b51168151908152846020820152a10161012d565b6040516113e2908161027782396080518181816108840152610c680152f35b631e4fbdf760e01b600052600060045260246000fd5b602080916101ed84610238565b81520191019061009a565b600080fd5b634e487b7160e01b600052604160045260246000fd5b6040519190601f01601f191682016001600160401b038111838210176101fd57604052565b51906001600160a01b03821682036101f857565b80518210156102605760209160051b010190565b634e487b7160e01b600052603260045260246000fdfe6080604052600436101561001257600080fd5b6000803560e01c80630443efb71461102f578063064a82ca146110115780630bde287614610c97578063186f035414610c5257806329dcb0cf14610c34578063303b4e8d14610c165780633f4ba83a14610bb057806347e7ef24146107ae5780635b8bc67d146107905780635c975abb1461076e57806360f9c01b1461075057806363a31bd414610711578063715018a6146106b45780638456cb591461065b5780638da5cb5b146106325780638f601f66146105d0578063b27aa2291461047b578063bb0c82981461045d578063c320049a146101ce578063daf9c2101461018f5763f2fde38b1461010457600080fd5b3461018c57602036600319011261018c5761011d611202565b610125611328565b6001600160a01b0316801561017857600280546001600160a01b0319811683179091556001600160a01b03167f8be0079c531659141344cd1fd0a4f28419497f9722a3daafe3b4186f6b6457e08380a380f35b631e4fbdf760e01b82526004829052602482fd5b80fd5b503461018c57602036600319011261018c5760209060ff906040906001600160a01b036101ba611202565b168152600a84522054166040519015158152f35b503461018c57602036600319011261018c57600435808252600b602052604082206002810190815460ff811661042557600182015442106103e95760081c60ff1660048110156103d557806102ea57506102279061115e565b6060818051810103126102e6578061024460206102b493016112c6565b6102af6102586060604085015194016112c6565b9160018060a01b031691828852600a60205261027a60ff60408a205416611240565b60405163a9059cbb60e01b60208201526001600160a01b03919091166024820152604480820194909452928352606483611126565b61136e565b805460ff191660011790557facba7db33afd41cd69adcb9749e50b9fd484953f306d98d2d6e0a8ce0adb7d5c8280a280f35b8380fd5b6001810361035457506102fc9061115e565b6040818051810103126102e6576040610317602083016112c6565b91015180151581036103505761034b9160018060a01b031685526009602052604085209060ff801983541691151516179055565b6102b4565b8480fd5b6002810361038957506103669061115e565b6040818051810103126102e65760406020820151910151906008556007556102b4565b600314610397575b506102b4565b6103a09061115e565b6080818051810103126102e6576020810151906040810151608060608301519201519260035560045560055560065538610391565b634e487b7160e01b85526021600452602485fd5b60405162461bcd60e51b8152602060048201526014602482015273151a5b595b1bd8dac81b9bdd08195e1c1a5c995960621b6044820152606490fd5b60405162461bcd60e51b815260206004820152601060248201526f105b1c9958591e48195e1958dd5d195960821b6044820152606490fd5b503461018c578060031936011261018c576020600754604051908152f35b503461018c57604036600319011261018c5760043567ffffffffffffffff81116105cc57366023820112156105cc57806004013567ffffffffffffffff81116105c85760248160051b830101903682116102e65760243592831515928385036105c4576104e6611328565b6104ef83611284565b926104fd6040519485611126565b83526024602084019201915b8183106105a057505050835b815181101561059c576001906001600160a01b03610533828561129c565b51168652600a60205261055585604088209060ff801983541691151516179055565b7f67821d5384bb02aab1ba91a477f89c9966cd30f475b02618bdc58712bca512756040838060a01b03610588848761129c565b51168151908152866020820152a101610515565b8480f35b82356001600160a01b03811681036105c057815260209283019201610509565b8780fd5b8580fd5b8280fd5b5080fd5b503461018c57604036600319011261018c576105ea611202565b60243591906001600160a01b03831683036105cc579060409160018060a01b03168152600c602052209060018060a01b03166000526020526020604060002054604051908152f35b503461018c578060031936011261018c576002546040516001600160a01b039091168152602090f35b503461018c578060031936011261018c57610674611328565b61067c611351565b600160ff198254161781557f62e78cea01bee320cd4e420270b5ea74000d11b0c9f74754ebdbfc544b05a2586020604051338152a180f35b503461018c578060031936011261018c576106cd611328565b600280546001600160a01b0319811690915581906001600160a01b03167f8be0079c531659141344cd1fd0a4f28419497f9722a3daafe3b4186f6b6457e08280a380f35b503461018c57602036600319011261018c5760209060ff906040906001600160a01b0361073c611202565b168152600984522054166040519015158152f35b503461018c578060031936011261018c576020600454604051908152f35b503461018c578060031936011261018c5760ff60209154166040519015158152f35b503461018c578060031936011261018c576020600654604051908152f35b503461018c57604036600319011261018c576107c8611202565b60243590600260015414610ba15760026001556107e3611351565b600854421015610b67576007548210610b31576001600160a01b0316808352600a60205260408320546108189060ff16611240565b6108526040516323b872dd60e01b60208201523360248201523060448201528360648201526064815261084c608482611126565b8261136e565b338352600c602052604083209083526020526108736040832091825461121d565b9055604051631cea46b760e31b81527f00000000000000000000000000000000000000000000000000000000000000006001600160a01b031690602081600481855afa9081156109fa578391610aff575b5060405163a0e67e2b60e01b8152918383600481845afa928315610af4578493610a4c575b50818493855b8151811015610a4257336001600160a01b0361090b838561129c565b51161461091a576001016108ef565b50909192935060015b15610931575b846001805580f35b518115610a2e57816002910411610a05575b50803b156105c857604051630d582f1360e01b8152336004820152602481018390529083908290604490829084905af180156109fa576109c2575b506040805133815260208101929092527f605fc938951f022ac82ef873baef3c576ff9a5abf7d1c49a22801d5924edac789190819081015b0390a138808080610929565b826109f27f605fc938951f022ac82ef873baef3c576ff9a5abf7d1c49a22801d5924edac7893946109b693611126565b92915061097e565b6040513d85823e3d90fd5b90915060018101809111610a1a579038610943565b634e487b7160e01b83526011600452602483fd5b634e487b7160e01b85526012600452602485fd5b5090919293610923565b9092503d8085833e610a5e8183611126565b8101906020818303126103505780519067ffffffffffffffff82116105c457019080601f8301121561035057815190610a9682611284565b92610aa46040519485611126565b82845260208085019360051b820101918211610af057602001915b818310610ad05750505091386108e9565b82516001600160a01b03811681036105c057815260209283019201610abf565b8680fd5b6040513d86823e3d90fd5b90506020813d602011610b29575b81610b1a60209383611126565b810103126105c85751386108c4565b3d9150610b0d565b60405162461bcd60e51b815260206004820152600e60248201526d416d6f756e7420746f6f206c6f7760901b6044820152606490fd5b60405162461bcd60e51b815260206004820152601260248201527110dc9bddd9199d5b991a5b99c8195b99195960721b6044820152606490fd5b633ee5aeb560e01b8352600483fd5b503461018c578060031936011261018c57610bc9611328565b805460ff811615610c075760ff191681557f5db9ee0a495bf2e6ff9c91a7834c1ba4fdd244a5e8aa4e537bd38aeae4b073aa6020604051338152a180f35b638dfc202b60e01b8252600482fd5b503461018c578060031936011261018c576020600554604051908152f35b503461018c578060031936011261018c576020600854604051908152f35b503461018c578060031936011261018c576040517f00000000000000000000000000000000000000000000000000000000000000006001600160a01b03168152602090f35b503461018c57604036600319011261018c5760043590600482101561018c5760243567ffffffffffffffff81116105cc57366023820112156105cc5780600401359267ffffffffffffffff84116105c857602482019160248536920101116105c85780610fce57338352600960205260ff60408420541615610f90575b60405160208101903360601b825285846034830137610d51602160348389810142838201528760f81b605482015203016001810184520182611126565b51902091610d67610d61836112da565b4261121d565b90604051956080870187811067ffffffffffffffff821117610f7c5786916020916040528060405194610da384601f19601f8501160187611126565b818652838601378301015285526020850190815260408501948486526060810191838352848652600b60205260408620915180519067ffffffffffffffff8211610f6857610df184546110ec565b601f8111610f23575b50602090601f8311600114610eb957918060029492610e4d96948b92610eae575b50508160011b916000199060031b1c19161782555b5160018201550195511515869060ff801983541691151516179055565b51936004851015610e9a5760209461ff0082549160081b169061ff001916179055817fb3b9190940cab3ae1e75d3728e06e589ad4ba3bbdbbe64cf389829ee7ac840746040519480a38152f35b634e487b7160e01b84526021600452602484fd5b015190503880610e1b565b8489528189209190601f1984168a5b818110610f0b5750926001928592610e4d98966002989610610ef2575b505050811b018255610e30565b015160001960f88460031b161c19169055388080610ee5565b92936020600181928786015181550195019301610ec8565b84895260208920601f840160051c81019160208510610f5e575b601f0160051c01905b818110610f535750610dfa565b898155600101610f46565b9091508190610f3d565b634e487b7160e01b88526041600452602488fd5b634e487b7160e01b87526041600452602487fd5b60405162461bcd60e51b81526020600482015260166024820152752737ba1030baba3437b934bd32b21039b832b73232b960511b6044820152606490fd5b6002546001600160a01b03163314610d145760405162461bcd60e51b81526020600482015260096024820152682737ba1037bbb732b960b91b6044820152606490fd5b503461018c578060031936011261018c576020600354604051908152f35b503461018c57602036600319011261018c576004358152600b60205260408120906110598261115e565b90600260018401549301549060ff8260081c16916040519460808652845194856080880152835b8681106110d657505085850160a001839052602086015260ff161515604085015260048210156110c257506060830152601f01601f1916810181900360a00190f35b634e487b7160e01b81526021600452602490fd5b80602080928401015160a0828b01015201611080565b90600182811c9216801561111c575b602083101461110657565b634e487b7160e01b600052602260045260246000fd5b91607f16916110fb565b90601f8019910116810190811067ffffffffffffffff82111761114857604052565b634e487b7160e01b600052604160045260246000fd5b9060405191826000825492611172846110ec565b80845293600181169081156111e05750600114611199575b5061119792500383611126565b565b90506000929192526020600020906000915b8183106111c4575050906020611197928201013861118a565b60209193508060019154838589010152019101909184926111ab565b90506020925061119794915060ff191682840152151560051b8201013861118a565b600435906001600160a01b038216820361121857565b600080fd5b9190820180921161122a57565b634e487b7160e01b600052601160045260246000fd5b1561124757565b60405162461bcd60e51b8152602060048201526015602482015274151bdad95b881b9bdd081dda1a5d195b1a5cdd1959605a1b6044820152606490fd5b67ffffffffffffffff81116111485760051b60200190565b80518210156112b05760209160051b010190565b634e487b7160e01b600052603260045260246000fd5b51906001600160a01b038216820361121857565b600481101561131257801561130b5760018114611304576002146112fe5760065490565b60055490565b5060045490565b5060035490565b634e487b7160e01b600052602160045260246000fd5b6002546001600160a01b0316330361133c57565b63118cdaa760e01b6000523360045260246000fd5b60ff6000541661135d57565b63d93c066560e01b60005260046000fd5b906000602091828151910182855af1156113c9576000513d6113c057506001600160a01b0381163b155b61139f5750565b635274afe760e01b60009081526001600160a01b0391909116600452602490fd5b60011415611398565b6040513d6000823e3d90fdfea164736f6c634300081b000a",
          "opcodes": "PUSH1 0xA0 PUSH1 0x40 MSTORE CALLVALUE PUSH2 0x1F8 JUMPI PUSH2 0x1659 DUP1 CODESIZE SUB DUP1 PUSH2 0x19 DUP2 PUSH2 0x213 JUMP JUMPDEST SWAP3 DUP4 CODECOPY DUP2 ADD SWAP1 PUSH1 0x80 DUP2 DUP4 SUB SLT PUSH2 0x1F8 JUMPI PUSH2 0x32 DUP2 PUSH2 0x238 JUMP JUMPDEST PUSH1 0x20 DUP3 ADD MLOAD PUSH1 0x40 DUP4 ADD MLOAD PUSH1 0x60 DUP5 ADD MLOAD SWAP1 SWAP4 SWAP2 SWAP3 SWAP2 PUSH1 0x1 PUSH1 0x1 PUSH1 0x40 SHL SUB DUP3 GT PUSH2 0x1F8 JUMPI ADD SWAP4 DUP1 PUSH1 0x1F DUP7 ADD SLT ISZERO PUSH2 0x1F8 JUMPI DUP5 MLOAD SWAP5 PUSH1 0x1 PUSH1 0x1 PUSH1 0x40 SHL SUB DUP7 GT PUSH2 0x1FD JUMPI DUP6 PUSH1 0x5 SHL SWAP1 PUSH1 0x20 DUP1 PUSH2 0x85 DUP2 DUP6 ADD PUSH2 0x213 JUMP JUMPDEST DUP1 SWAP10 DUP2 MSTORE ADD SWAP3 DUP3 ADD ADD SWAP3 DUP4 GT PUSH2 0x1F8 JUMPI PUSH1 0x20 ADD SWAP1 JUMPDEST DUP3 DUP3 LT PUSH2 0x1E0 JUMPI POP POP PUSH1 0x0 DUP1 SLOAD PUSH1 0xFF NOT AND SWAP1 SSTORE POP PUSH1 0x1 DUP1 SSTORE PUSH1 0x1 PUSH1 0x1 PUSH1 0xA0 SHL SUB AND DUP1 ISZERO PUSH2 0x1CA JUMPI PUSH1 0x2 DUP1 SLOAD PUSH1 0x1 PUSH1 0x1 PUSH1 0xA0 SHL SUB NOT DUP2 AND DUP4 OR SWAP1 SWAP2 SSTORE DUP2 SWAP1 PUSH1 0x1 PUSH1 0x1 PUSH1 0xA0 SHL SUB AND PUSH32 0x8BE0079C531659141344CD1FD0A4F28419497F9722A3DAAFE3B4186F6B6457E0 PUSH1 0x0 DUP1 LOG3 PUSH1 0x80 MSTORE PUSH1 0x7 SSTORE PUSH1 0x8 SSTORE PUSH3 0x15180 PUSH1 0x3 SSTORE PUSH3 0x93A80 PUSH1 0x4 SSTORE PUSH3 0x3F480 PUSH1 0x5 SSTORE PUSH3 0x127500 PUSH1 0x6 SSTORE PUSH1 0x0 JUMPDEST DUP2 MLOAD DUP2 LT ISZERO PUSH2 0x1AB JUMPI PUSH1 0x1 SWAP1 PUSH1 0x1 PUSH1 0x1 PUSH1 0xA0 SHL SUB PUSH2 0x14B DUP3 DUP6 PUSH2 0x24C JUMP JUMPDEST MLOAD AND PUSH1 0x0 MSTORE PUSH1 0xA PUSH1 0x20 MSTORE PUSH1 0x40 PUSH1 0x0 KECCAK256 DUP3 PUSH1 0xFF NOT DUP3 SLOAD AND OR SWAP1 SSTORE PUSH32 0x67821D5384BB02AAB1BA91A477F89C9966CD30F475B02618BDC58712BCA51275 PUSH1 0x40 DUP4 DUP1 PUSH1 0xA0 SHL SUB PUSH2 0x197 DUP5 DUP8 PUSH2 0x24C JUMP JUMPDEST MLOAD AND DUP2 MLOAD SWAP1 DUP2 MSTORE DUP5 PUSH1 0x20 DUP3 ADD MSTORE LOG1 ADD PUSH2 0x12D JUMP JUMPDEST PUSH1 0x40 MLOAD PUSH2 0x13E2 SWAP1 DUP2 PUSH2 0x277 DUP3 CODECOPY PUSH1 0x80 MLOAD DUP2 DUP2 DUP2 PUSH2 0x884 ADD MSTORE PUSH2 0xC68 ADD MSTORE RETURN JUMPDEST PUSH4 0x1E4FBDF7 PUSH1 0xE0 SHL PUSH1 0x0 MSTORE PUSH1 0x0 PUSH1 0x4 MSTORE PUSH1 0x24 PUSH1 0x0 REVERT JUMPDEST PUSH1 0x20 DUP1 SWAP2 PUSH2 0x1ED DUP5 PUSH2 0x238 JUMP JUMPDEST DUP2 MSTORE ADD SWAP2 ADD SWAP1 PUSH2 0x9A JUMP JUMPDEST PUSH1 0x0 DUP1 REVERT JUMPDEST PUSH4 0x4E487B71 PUSH1 0xE0 SHL PUSH1 0x0 MSTORE PUSH1 0x41 PUSH1 0x4 MSTORE PUSH1 0x24 PUSH1 0x0 REVERT JUMPDEST PUSH1 0x40 MLOAD SWAP2 SWAP1 PUSH1 0x1F ADD PUSH1 0x1F NOT AND DUP3 ADD PUSH1 0x1 PUSH1 0x1 PUSH1 0x40 SHL SUB DUP2 GT DUP4 DUP3 LT OR PUSH2 0x1FD JUMPI PUSH1 0x40 MSTORE JUMP JUMPDEST MLOAD SWAP1 PUSH1 0x1 PUSH1 0x1 PUSH1 0xA0 SHL SUB DUP3 AND DUP3 SUB PUSH2 0x1F8 JUMPI JUMP JUMPDEST DUP1 MLOAD DUP3 LT ISZERO PUSH2 0x260 JUMPI PUSH1 0x20 SWAP2 PUSH1 0x5 SHL ADD ADD SWAP1 JUMP JUMPDEST PUSH4 0x4E487B71 PUSH1 0xE0 SHL PUSH1 0x0 MSTORE PUSH1 0x32 PUSH1 0x4 MSTORE PUSH1 0x24 PUSH1 0x0 REVERT INVALID PUSH1 0x80 PUSH1 0x40 MSTORE PUSH1 0x4 CALLDATASIZE LT ISZERO PUSH2 0x12 JUMPI PUSH1 0x0 DUP1 REVERT JUMPDEST PUSH1 0x0 DUP1 CALLDATALOAD PUSH1 0xE0 SHR DUP1 PUSH4 0x443EFB7 EQ PUSH2 0x102F JUMPI DUP1 PUSH4 0x64A82CA EQ PUSH2 0x1011 JUMPI DUP1 PUSH4 0xBDE2876 EQ PUSH2 0xC97 JUMPI DUP1 PUSH4 0x186F0354 EQ PUSH2 0xC52 JUMPI DUP1 PUSH4 0x29DCB0CF EQ PUSH2 0xC34 JUMPI DUP1 PUSH4 0x303B4E8D EQ PUSH2 0xC16 JUMPI DUP1 PUSH4 0x3F4BA83A EQ PUSH2 0xBB0 JUMPI DUP1 PUSH4 0x47E7EF24 EQ PUSH2 0x7AE JUMPI DUP1 PUSH4 0x5B8BC67D EQ PUSH2 0x790 JUMPI DUP1 PUSH4 0x5C975ABB EQ PUSH2 0x76E JUMPI DUP1 PUSH4 0x60F9C01B EQ PUSH2 0x750 JUMPI DUP1 PUSH4 0x63A31BD4 EQ PUSH2 0x711 JUMPI DUP1 PUSH4 0x715018A6 EQ PUSH2 0x6B4 JUMPI DUP1 PUSH4 0x8456CB59 EQ PUSH2 0x65B JUMPI DUP1 PUSH4 0x8DA5CB5B EQ PUSH2 0x632 JUMPI DUP1 PUSH4 0x8F601F66 EQ PUSH2 0x5D0 JUMPI DUP1 PUSH4 0xB27AA229 EQ PUSH2 0x47B JUMPI DUP1 PUSH4 0xBB0C8298 EQ PUSH2 0x45D JUMPI DUP1 PUSH4 0xC320049A EQ PUSH2 0x1CE JUMPI DUP1 PUSH4 0xDAF9C210 EQ PUSH2 0x18F JUMPI PUSH4 0xF2FDE38B EQ PUSH2 0x104 JUMPI PUSH1 0x0 DUP1 REVERT JUMPDEST CALLVALUE PUSH2 0x18C JUMPI PUSH1 0x20 CALLDATASIZE PUSH1 0x3 NOT ADD SLT PUSH2 0x18C JUMPI PUSH2 0x11D PUSH2 0x1202 JUMP JUMPDEST PUSH2 0x125 PUSH2 0x1328 JUMP JUMPDEST PUSH1 0x1 PUSH1 0x1 PUSH1 0xA0 SHL SUB AND DUP1 ISZERO PUSH2 0x178 JUMPI PUSH1 0x2 DUP1 SLOAD PUSH1 0x1 PUSH1 0x1 PUSH1 0xA0 SHL SUB NOT DUP2 AND DUP4 OR SWAP1 SWAP2 SSTORE PUSH1 0x1 PUSH1 0x1 PUSH1 0xA0 SHL SUB AND PUSH32 0x8BE0079C531659141344CD1FD0A4F28419497F9722A3DAAFE3B4186F6B6457E0 DUP4 DUP1 LOG3 DUP1 RETURN JUMPDEST PUSH4 0x1E4FBDF7 PUSH1 0xE0 SHL DUP3 MSTORE PUSH1 0x4 DUP3 SWAP1 MSTORE PUSH1 0x24 DUP3 REVERT JUMPDEST DUP1 REVERT JUMPDEST POP CALLVALUE PUSH2 0x18C JUMPI PUSH1 0x20 CALLDATASIZE PUSH1 0x3 NOT ADD SLT PUSH2 0x18C JUMPI PUSH1 0x20 SWAP1 PUSH1 0xFF SWAP1 PUSH1 0x40 SWAP1 PUSH1 0x1 PUSH1 0x1 PUSH1 0xA0 SHL SUB PUSH2 0x1BA PUSH2 0x1202 JUMP JUMPDEST AND DUP2 MSTORE PUSH1 0xA DUP5 MSTORE KECCAK256 SLOAD AND PUSH1 0x40 MLOAD SWAP1 ISZERO ISZERO DUP2 MSTORE RETURN JUMPDEST POP CALLVALUE PUSH2 0x18C JUMPI PUSH1 0x20 CALLDATASIZE PUSH1 0x3 NOT ADD SLT PUSH2 0x18C JUMPI PUSH1 0x4 CALLDATALOAD DUP1 DUP3 MSTORE PUSH1 0xB PUSH1 0x20 MSTORE PUSH1 0x40 DUP3 KECCAK256 PUSH1 0x2 DUP2 ADD SWAP1 DUP2 SLOAD PUSH1 0xFF DUP2 AND PUSH2 0x425 JUMPI PUSH1 0x1 DUP3 ADD SLOAD TIMESTAMP LT PUSH2 0x3E9 JUMPI PUSH1 0x8 SHR PUSH1 0xFF AND PUSH1 0x4 DUP2 LT ISZERO PUSH2 0x3D5 JUMPI DUP1 PUSH2 0x2EA JUMPI POP PUSH2 0x227 SWAP1 PUSH2 0x115E JUMP JUMPDEST PUSH1 0x60 DUP2 DUP1 MLOAD DUP2 ADD SUB SLT PUSH2 0x2E6 JUMPI DUP1 PUSH2 0x244 PUSH1 0x20 PUSH2 0x2B4 SWAP4 ADD PUSH2 0x12C6 JUMP JUMPDEST PUSH2 0x2AF PUSH2 0x258 PUSH1 0x60 PUSH1 0x40 DUP6 ADD MLOAD SWAP5 ADD PUSH2 0x12C6 JUMP JUMPDEST SWAP2 PUSH1 0x1 DUP1 PUSH1 0xA0 SHL SUB AND SWAP2 DUP3 DUP9 MSTORE PUSH1 0xA PUSH1 0x20 MSTORE PUSH2 0x27A PUSH1 0xFF PUSH1 0x40 DUP11 KECCAK256 SLOAD AND PUSH2 0x1240 JUMP JUMPDEST PUSH1 0x40 MLOAD PUSH4 0xA9059CBB PUSH1 0xE0 SHL PUSH1 0x20 DUP3 ADD MSTORE PUSH1 0x1 PUSH1 0x1 PUSH1 0xA0 SHL SUB SWAP2 SWAP1 SWAP2 AND PUSH1 0x24 DUP3 ADD MSTORE PUSH1 0x44 DUP1 DUP3 ADD SWAP5 SWAP1 SWAP5 MSTORE SWAP3 DUP4 MSTORE PUSH1 0x64 DUP4 PUSH2 0x1126 JUMP JUMPDEST PUSH2 0x136E JUMP JUMPDEST DUP1 SLOAD PUSH1 0xFF NOT AND PUSH1 0x1 OR SWAP1 SSTORE PUSH32 0xACBA7DB33AFD41CD69ADCB9749E50B9FD484953F306D98D2D6E0A8CE0ADB7D5C DUP3 DUP1 LOG2 DUP1 RETURN JUMPDEST DUP4 DUP1 REVERT JUMPDEST PUSH1 0x1 DUP2 SUB PUSH2 0x354 JUMPI POP PUSH2 0x2FC SWAP1 PUSH2 0x115E JUMP JUMPDEST PUSH1 0x40 DUP2 DUP1 MLOAD DUP2 ADD SUB SLT PUSH2 0x2E6 JUMPI PUSH1 0x40 PUSH2 0x317 PUSH1 0x20 DUP4 ADD PUSH2 0x12C6 JUMP JUMPDEST SWAP2 ADD MLOAD DUP1 ISZERO ISZERO DUP2 SUB PUSH2 0x350 JUMPI PUSH2 0x34B SWAP2 PUSH1 0x1 DUP1 PUSH1 0xA0 SHL SUB AND DUP6 MSTORE PUSH1 0x9 PUSH1 0x20 MSTORE PUSH1 0x40 DUP6 KECCAK256 SWAP1 PUSH1 0xFF DUP1 NOT DUP4 SLOAD AND SWAP2 ISZERO ISZERO AND OR SWAP1 SSTORE JUMP JUMPDEST PUSH2 0x2B4 JUMP JUMPDEST DUP5 DUP1 REVERT JUMPDEST PUSH1 0x2 DUP2 SUB PUSH2 0x389 JUMPI POP PUSH2 0x366 SWAP1 PUSH2 0x115E JUMP JUMPDEST PUSH1 0x40 DUP2 DUP1 MLOAD DUP2 ADD SUB SLT PUSH2 0x2E6 JUMPI PUSH1 0x40 PUSH1 0x20 DUP3 ADD MLOAD SWAP2 ADD MLOAD SWAP1 PUSH1 0x8 SSTORE PUSH1 0x7 SSTORE PUSH2 0x2B4 JUMP JUMPDEST PUSH1 0x3 EQ PUSH2 0x397 JUMPI JUMPDEST POP PUSH2 0x2B4 JUMP JUMPDEST PUSH2 0x3A0 SWAP1 PUSH2 0x115E JUMP JUMPDEST PUSH1 0x80 DUP2 DUP1 MLOAD DUP2 ADD SUB SLT PUSH2 0x2E6 JUMPI PUSH1 0x20 DUP2 ADD MLOAD SWAP1 PUSH1 0x40 DUP2 ADD MLOAD PUSH1 0x80 PUSH1 0x60 DUP4 ADD MLOAD SWAP3 ADD MLOAD SWAP3 PUSH1 0x3 SSTORE PUSH1 0x4 SSTORE PUSH1 0x5 SSTORE PUSH1 0x6 SSTORE CODESIZE PUSH2 0x391 JUMP JUMPDEST PUSH4 0x4E487B71 PUSH1 0xE0 SHL DUP6 MSTORE PUSH1 0x21 PUSH1 0x4 MSTORE PUSH1 0x24 DUP6 REVERT JUMPDEST PUSH1 0x40 MLOAD PUSH3 0x461BCD PUSH1 0xE5 SHL DUP2 MSTORE PUSH1 0x20 PUSH1 0x4 DUP3 ADD MSTORE PUSH1 0x14 PUSH1 0x24 DUP3 ADD MSTORE PUSH20 0x151A5B595B1BD8DAC81B9BDD08195E1C1A5C9959 PUSH1 0x62 SHL PUSH1 0x44 DUP3 ADD MSTORE PUSH1 0x64 SWAP1 REVERT JUMPDEST PUSH1 0x40 MLOAD PUSH3 0x461BCD PUSH1 0xE5 SHL DUP2 MSTORE PUSH1 0x20 PUSH1 0x4 DUP3 ADD MSTORE PUSH1 0x10 PUSH1 0x24 DUP3 ADD MSTORE PUSH16 0x105B1C9958591E48195E1958DD5D1959 PUSH1 0x82 SHL PUSH1 0x44 DUP3 ADD MSTORE PUSH1 0x64 SWAP1 REVERT JUMPDEST POP CALLVALUE PUSH2 0x18C JUMPI DUP1 PUSH1 0x3 NOT CALLDATASIZE ADD SLT PUSH2 0x18C JUMPI PUSH1 0x20 PUSH1 0x7 SLOAD PUSH1 0x40 MLOAD SWAP1 DUP2 MSTORE RETURN JUMPDEST POP CALLVALUE PUSH2 0x18C JUMPI PUSH1 0x40 CALLDATASIZE PUSH1 0x3 NOT ADD SLT PUSH2 0x18C JUMPI PUSH1 0x4 CALLDATALOAD PUSH8 0xFFFFFFFFFFFFFFFF DUP2 GT PUSH2 0x5CC JUMPI CALLDATASIZE PUSH1 0x23 DUP3 ADD SLT ISZERO PUSH2 0x5CC JUMPI DUP1 PUSH1 0x4 ADD CALLDATALOAD PUSH8 0xFFFFFFFFFFFFFFFF DUP2 GT PUSH2 0x5C8 JUMPI PUSH1 0x24 DUP2 PUSH1 0x5 SHL DUP4 ADD ADD SWAP1 CALLDATASIZE DUP3 GT PUSH2 0x2E6 JUMPI PUSH1 0x24 CALLDATALOAD SWAP3 DUP4 ISZERO ISZERO SWAP3 DUP4 DUP6 SUB PUSH2 0x5C4 JUMPI PUSH2 0x4E6 PUSH2 0x1328 JUMP JUMPDEST PUSH2 0x4EF DUP4 PUSH2 0x1284 JUMP JUMPDEST SWAP3 PUSH2 0x4FD PUSH1 0x40 MLOAD SWAP5 DUP6 PUSH2 0x1126 JUMP JUMPDEST DUP4 MSTORE PUSH1 0x24 PUSH1 0x20 DUP5 ADD SWAP3 ADD SWAP2 JUMPDEST DUP2 DUP4 LT PUSH2 0x5A0 JUMPI POP POP POP DUP4 JUMPDEST DUP2 MLOAD DUP2 LT ISZERO PUSH2 0x59C JUMPI PUSH1 0x1 SWAP1 PUSH1 0x1 PUSH1 0x1 PUSH1 0xA0 SHL SUB PUSH2 0x533 DUP3 DUP6 PUSH2 0x129C JUMP JUMPDEST MLOAD AND DUP7 MSTORE PUSH1 0xA PUSH1 0x20 MSTORE PUSH2 0x555 DUP6 PUSH1 0x40 DUP9 KECCAK256 SWAP1 PUSH1 0xFF DUP1 NOT DUP4 SLOAD AND SWAP2 ISZERO ISZERO AND OR SWAP1 SSTORE JUMP JUMPDEST PUSH32 0x67821D5384BB02AAB1BA91A477F89C9966CD30F475B02618BDC58712BCA51275 PUSH1 0x40 DUP4 DUP1 PUSH1 0xA0 SHL SUB PUSH2 0x588 DUP5 DUP8 PUSH2 0x129C JUMP JUMPDEST MLOAD AND DUP2 MLOAD SWAP1 DUP2 MSTORE DUP7 PUSH1 0x20 DUP3 ADD MSTORE LOG1 ADD PUSH2 0x515 JUMP JUMPDEST DUP5 DUP1 RETURN JUMPDEST DUP3 CALLDATALOAD PUSH1 0x1 PUSH1 0x1 PUSH1 0xA0 SHL SUB DUP2 AND DUP2 SUB PUSH2 0x5C0 JUMPI DUP2 MSTORE PUSH1 0x20 SWAP3 DUP4 ADD SWAP3 ADD PUSH2 0x509 JUMP JUMPDEST DUP8 DUP1 REVERT JUMPDEST DUP6 DUP1 REVERT JUMPDEST DUP3 DUP1 REVERT JUMPDEST POP DUP1 REVERT JUMPDEST POP CALLVALUE PUSH2 0x18C JUMPI PUSH1 0x40 CALLDATASIZE PUSH1 0x3 NOT ADD SLT PUSH2 0x18C JUMPI PUSH2 0x5EA PUSH2 0x1202 JUMP JUMPDEST PUSH1 0x24 CALLDATALOAD SWAP2 SWAP1 PUSH1 0x1 PUSH1 0x1 PUSH1 0xA0 SHL SUB DUP4 AND DUP4 SUB PUSH2 0x5CC JUMPI SWAP1 PUSH1 0x40 SWAP2 PUSH1 0x1 DUP1 PUSH1 0xA0 SHL SUB AND DUP2 MSTORE PUSH1 0xC PUSH1 0x20 MSTORE KECCAK256 SWAP1 PUSH1 0x1 DUP1 PUSH1 0xA0 SHL SUB AND PUSH1 0x0 MSTORE PUSH1 0x20 MSTORE PUSH1 0x20 PUSH1 0x40 PUSH1 0x0 KECCAK256 SLOAD PUSH1 0x40 MLOAD SWAP1 DUP2 MSTORE RETURN JUMPDEST POP CALLVALUE PUSH2 0x18C JUMPI DUP1 PUSH1 0x3 NOT CALLDATASIZE ADD SLT PUSH2 0x18C JUMPI PUSH1 0x2 SLOAD PUSH1 0x40 MLOAD PUSH1 0x1 PUSH1 0x1 PUSH1 0xA0 SHL SUB SWAP1 SWAP2 AND DUP2 MSTORE PUSH1 0x20 SWAP1 RETURN JUMPDEST POP CALLVALUE PUSH2 0x18C JUMPI DUP1 PUSH1 0x3 NOT CALLDATASIZE ADD SLT PUSH2 0x18C JUMPI PUSH2 0x674 PUSH2 0x1328 JUMP JUMPDEST PUSH2 0x67C PUSH2 0x1351 JUMP JUMPDEST PUSH1 0x1 PUSH1 0xFF NOT DUP3 SLOAD AND OR DUP2 SSTORE PUSH32 0x62E78CEA01BEE320CD4E420270B5EA74000D11B0C9F74754EBDBFC544B05A258 PUSH1 0x20 PUSH1 0x40 MLOAD CALLER DUP2 MSTORE LOG1 DUP1 RETURN JUMPDEST POP CALLVALUE PUSH2 0x18C JUMPI DUP1 PUSH1 0x3 NOT CALLDATASIZE ADD SLT PUSH2 0x18C JUMPI PUSH2 0x6CD PUSH2 0x1328 JUMP JUMPDEST PUSH1 0x2 DUP1 SLOAD PUSH1 0x1 PUSH1 0x1 PUSH1 0xA0 SHL SUB NOT DUP2 AND SWAP1 SWAP2 SSTORE DUP2 SWAP1 PUSH1 0x1 PUSH1 0x1 PUSH1 0xA0 SHL SUB AND PUSH32 0x8BE0079C531659141344CD1FD0A4F28419497F9722A3DAAFE3B4186F6B6457E0 DUP3 DUP1 LOG3 DUP1 RETURN JUMPDEST POP CALLVALUE PUSH2 0x18C JUMPI PUSH1 0x20 CALLDATASIZE PUSH1 0x3 NOT ADD SLT PUSH2 0x18C JUMPI PUSH1 0x20 SWAP1 PUSH1 0xFF SWAP1 PUSH1 0x40 SWAP1 PUSH1 0x1 PUSH1 0x1 PUSH1 0xA0 SHL SUB PUSH2 0x73C PUSH2 0x1202 JUMP JUMPDEST AND DUP2 MSTORE PUSH1 0x9 DUP5 MSTORE KECCAK256 SLOAD AND PUSH1 0x40 MLOAD SWAP1 ISZERO ISZERO DUP2 MSTORE RETURN JUMPDEST POP CALLVALUE PUSH2 0x18C JUMPI DUP1 PUSH1 0x3 NOT CALLDATASIZE ADD SLT PUSH2 0x18C JUMPI PUSH1 0x20 PUSH1 0x4 SLOAD PUSH1 0x40 MLOAD SWAP1 DUP2 MSTORE RETURN JUMPDEST POP CALLVALUE PUSH2 0x18C JUMPI DUP1 PUSH1 0x3 NOT CALLDATASIZE ADD SLT PUSH2 0x18C JUMPI PUSH1 0xFF PUSH1 0x20 SWAP2 SLOAD AND PUSH1 0x40 MLOAD SWAP1 ISZERO ISZERO DUP2 MSTORE RETURN JUMPDEST POP CALLVALUE PUSH2 0x18C JUMPI DUP1 PUSH1 0x3 NOT CALLDATASIZE ADD SLT PUSH2 0x18C JUMPI PUSH1 0x20 PUSH1 0x6 SLOAD PUSH1 0x40 MLOAD SWAP1 DUP2 MSTORE RETURN JUMPDEST POP CALLVALUE PUSH2 0x18C JUMPI PUSH1 0x40 CALLDATASIZE PUSH1 0x3 NOT ADD SLT PUSH2 0x18C JUMPI PUSH2 0x7C8 PUSH2 0x1202 JUMP JUMPDEST PUSH1 0x24 CALLDATALOAD SWAP1 PUSH1 0x2 PUSH1 0x1 SLOAD EQ PUSH2 0xBA1 JUMPI PUSH1 0x2 PUSH1 0x1 SSTORE PUSH2 0x7E3 PUSH2 0x1351 JUMP JUMPDEST PUSH1 0x8 SLOAD TIMESTAMP LT ISZERO PUSH2 0xB67 JUMPI PUSH1 0x7 SLOAD DUP3 LT PUSH2 0xB31 JUMPI PUSH1 0x1 PUSH1 0x1 PUSH1 0xA0 SHL SUB AND DUP1 DUP4 MSTORE PUSH1 0xA PUSH1 0x20 MSTORE PUSH1 0x40 DUP4 KECCAK256 SLOAD PUSH2 0x818 SWAP1 PUSH1 0xFF AND PUSH2 0x1240 JUMP JUMPDEST PUSH2 0x852 PUSH1 0x40 MLOAD PUSH4 0x23B872DD PUSH1 0xE0 SHL PUSH1 0x20 DUP3 ADD MSTORE CALLER PUSH1 0x24 DUP3 ADD MSTORE ADDRESS PUSH1 0x44 DUP3 ADD MSTORE DUP4 PUSH1 0x64 DUP3 ADD MSTORE PUSH1 0x64 DUP2 MSTORE PUSH2 0x84C PUSH1 0x84 DUP3 PUSH2 0x1126 JUMP JUMPDEST DUP3 PUSH2 0x136E JUMP JUMPDEST CALLER DUP4 MSTORE PUSH1 0xC PUSH1 0x20 MSTORE PUSH1 0x40 DUP4 KECCAK256 SWAP1 DUP4 MSTORE PUSH1 0x20 MSTORE PUSH2 0x873 PUSH1 0x40 DUP4 KECCAK256 SWAP2 DUP3 SLOAD PUSH2 0x121D JUMP JUMPDEST SWAP1 SSTORE PUSH1 0x40 MLOAD PUSH4 0x1CEA46B7 PUSH1 0xE3 SHL DUP2 MSTORE PUSH32 0x0 PUSH1 0x1 PUSH1 0x1 PUSH1 0xA0 SHL SUB AND SWAP1 PUSH1 0x20 DUP2 PUSH1 0x4 DUP2 DUP6 GAS STATICCALL SWAP1 DUP2 ISZERO PUSH2 0x9FA JUMPI DUP4 SWAP2 PUSH2 0xAFF JUMPI JUMPDEST POP PUSH1 0x40 MLOAD PUSH4 0xA0E67E2B PUSH1 0xE0 SHL DUP2 MSTORE SWAP2 DUP4 DUP4 PUSH1 0x4 DUP2 DUP5 GAS STATICCALL SWAP3 DUP4 ISZERO PUSH2 0xAF4 JUMPI DUP5 SWAP4 PUSH2 0xA4C JUMPI JUMPDEST POP DUP2 DUP5 SWAP4 DUP6 JUMPDEST DUP2 MLOAD DUP2 LT ISZERO PUSH2 0xA42 JUMPI CALLER PUSH1 0x1 PUSH1 0x1 PUSH1 0xA0 SHL SUB PUSH2 0x90B DUP4 DUP6 PUSH2 0x129C JUMP JUMPDEST MLOAD AND EQ PUSH2 0x91A JUMPI PUSH1 0x1 ADD PUSH2 0x8EF JUMP JUMPDEST POP SWAP1 SWAP2 SWAP3 SWAP4 POP PUSH1 0x1 JUMPDEST ISZERO PUSH2 0x931 JUMPI JUMPDEST DUP5 PUSH1 0x1 DUP1 SSTORE DUP1 RETURN JUMPDEST MLOAD DUP2 ISZERO PUSH2 0xA2E JUMPI DUP2 PUSH1 0x2 SWAP2 DIV GT PUSH2 0xA05 JUMPI JUMPDEST POP DUP1 EXTCODESIZE ISZERO PUSH2 0x5C8 JUMPI PUSH1 0x40 MLOAD PUSH4 0xD582F13 PUSH1 0xE0 SHL DUP2 MSTORE CALLER PUSH1 0x4 DUP3 ADD MSTORE PUSH1 0x24 DUP2 ADD DUP4 SWAP1 MSTORE SWAP1 DUP4 SWAP1 DUP3 SWAP1 PUSH1 0x44 SWAP1 DUP3 SWAP1 DUP5 SWAP1 GAS CALL DUP1 ISZERO PUSH2 0x9FA JUMPI PUSH2 0x9C2 JUMPI JUMPDEST POP PUSH1 0x40 DUP1 MLOAD CALLER DUP2 MSTORE PUSH1 0x20 DUP2 ADD SWAP3 SWAP1 SWAP3 MSTORE PUSH32 0x605FC938951F022AC82EF873BAEF3C576FF9A5ABF7D1C49A22801D5924EDAC78 SWAP2 SWAP1 DUP2 SWAP1 DUP2 ADD JUMPDEST SUB SWAP1 LOG1 CODESIZE DUP1 DUP1 DUP1 PUSH2 0x929 JUMP JUMPDEST DUP3 PUSH2 0x9F2 PUSH32 0x605FC938951F022AC82EF873BAEF3C576FF9A5ABF7D1C49A22801D5924EDAC78 SWAP4 SWAP5 PUSH2 0x9B6 SWAP4 PUSH2 0x1126 JUMP JUMPDEST SWAP3 SWAP2 POP PUSH2 0x97E JUMP JUMPDEST PUSH1 0x40 MLOAD RETURNDATASIZE DUP6 DUP3 RETURNDATACOPY RETURNDATASIZE SWAP1 REVERT JUMPDEST SWAP1 SWAP2 POP PUSH1 0x1 DUP2 ADD DUP1 SWAP2 GT PUSH2 0xA1A JUMPI SWAP1 CODESIZE PUSH2 0x943 JUMP JUMPDEST PUSH4 0x4E487B71 PUSH1 0xE0 SHL DUP4 MSTORE PUSH1 0x11 PUSH1 0x4 MSTORE PUSH1 0x24 DUP4 REVERT JUMPDEST PUSH4 0x4E487B71 PUSH1 0xE0 SHL DUP6 MSTORE PUSH1 0x12 PUSH1 0x4 MSTORE PUSH1 0x24 DUP6 REVERT JUMPDEST POP SWAP1 SWAP2 SWAP3 SWAP4 PUSH2 0x923 JUMP JUMPDEST SWAP1 SWAP3 POP RETURNDATASIZE DUP1 DUP6 DUP4 RETURNDATACOPY PUSH2 0xA5E DUP2 DUP4 PUSH2 0x1126 JUMP JUMPDEST DUP2 ADD SWAP1 PUSH1 0x20 DUP2 DUP4 SUB SLT PUSH2 0x350 JUMPI DUP1 MLOAD SWAP1 PUSH8 0xFFFFFFFFFFFFFFFF DUP3 GT PUSH2 0x5C4 JUMPI ADD SWAP1 DUP1 PUSH1 0x1F DUP4 ADD SLT ISZERO PUSH2 0x350 JUMPI DUP2 MLOAD SWAP1 PUSH2 0xA96 DUP3 PUSH2 0x1284 JUMP JUMPDEST SWAP3 PUSH2 0xAA4 PUSH1 0x40 MLOAD SWAP5 DUP6 PUSH2 0x1126 JUMP JUMPDEST DUP3 DUP5 MSTORE PUSH1 0x20 DUP1 DUP6 ADD SWAP4 PUSH1 0x5 SHL DUP3 ADD ADD SWAP2 DUP3 GT PUSH2 0xAF0 JUMPI PUSH1 0x20 ADD SWAP2 JUMPDEST DUP2 DUP4 LT PUSH2 0xAD0 JUMPI POP POP POP SWAP2 CODESIZE PUSH2 0x8E9 JUMP JUMPDEST DUP3 MLOAD PUSH1 0x1 PUSH1 0x1 PUSH1 0xA0 SHL SUB DUP2 AND DUP2 SUB PUSH2 0x5C0 JUMPI DUP2 MSTORE PUSH1 0x20 SWAP3 DUP4 ADD SWAP3 ADD PUSH2 0xABF JUMP JUMPDEST DUP7 DUP1 REVERT JUMPDEST PUSH1 0x40 MLOAD RETURNDATASIZE DUP7 DUP3 RETURNDATACOPY RETURNDATASIZE SWAP1 REVERT JUMPDEST SWAP1 POP PUSH1 0x20 DUP2 RETURNDATASIZE PUSH1 0x20 GT PUSH2 0xB29 JUMPI JUMPDEST DUP2 PUSH2 0xB1A PUSH1 0x20 SWAP4 DUP4 PUSH2 0x1126 JUMP JUMPDEST DUP2 ADD SUB SLT PUSH2 0x5C8 JUMPI MLOAD CODESIZE PUSH2 0x8C4 JUMP JUMPDEST RETURNDATASIZE SWAP2 POP PUSH2 0xB0D JUMP JUMPDEST PUSH1 0x40 MLOAD PUSH3 0x461BCD PUSH1 0xE5 SHL DUP2 MSTORE PUSH1 0x20 PUSH1 0x4 DUP3 ADD MSTORE PUSH1 0xE PUSH1 0x24 DUP3 ADD MSTORE PUSH14 0x416D6F756E7420746F6F206C6F77 PUSH1 0x90 SHL PUSH1 0x44 DUP3 ADD MSTORE PUSH1 0x64 SWAP1 REVERT JUMPDEST PUSH1 0x40 MLOAD PUSH3 0x461BCD PUSH1 0xE5 SHL DUP2 MSTORE PUSH1 0x20 PUSH1 0x4 DUP3 ADD MSTORE PUSH1 0x12 PUSH1 0x24 DUP3 ADD MSTORE PUSH18 0x10DC9BDDD9199D5B991A5B99C8195B991959 PUSH1 0x72 SHL PUSH1 0x44 DUP3 ADD MSTORE PUSH1 0x64 SWAP1 REVERT JUMPDEST PUSH4 0x3EE5AEB5 PUSH1 0xE0 SHL DUP4 MSTORE PUSH1 0x4 DUP4 REVERT JUMPDEST POP CALLVALUE PUSH2 0x18C JUMPI DUP1 PUSH1 0x3 NOT CALLDATASIZE ADD SLT PUSH2 0x18C JUMPI PUSH2 0xBC9 PUSH2 0x1328 JUMP JUMPDEST DUP1 SLOAD PUSH1 0xFF DUP2 AND ISZERO PUSH2 0xC07 JUMPI PUSH1 0xFF NOT AND DUP2 SSTORE PUSH32 0x5DB9EE0A495BF2E6FF9C91A7834C1BA4FDD244A5E8AA4E537BD38AEAE4B073AA PUSH1 0x20 PUSH1 0x40 MLOAD CALLER DUP2 MSTORE LOG1 DUP1 RETURN JUMPDEST PUSH4 0x8DFC202B PUSH1 0xE0 SHL DUP3 MSTORE PUSH1 0x4 DUP3 REVERT JUMPDEST POP CALLVALUE PUSH2 0x18C JUMPI DUP1 PUSH1 0x3 NOT CALLDATASIZE ADD SLT PUSH2 0x18C JUMPI PUSH1 0x20 PUSH1 0x5 SLOAD PUSH1 0x40 MLOAD SWAP1 DUP2 MSTORE RETURN JUMPDEST POP CALLVALUE PUSH2 0x18C JUMPI DUP1 PUSH1 0x3 NOT CALLDATASIZE ADD SLT PUSH2 0x18C JUMPI PUSH1 0x20 PUSH1 0x8 SLOAD PUSH1 0x40 MLOAD SWAP1 DUP2 MSTORE RETURN JUMPDEST POP CALLVALUE PUSH2 0x18C JUMPI DUP1 PUSH1 0x3 NOT CALLDATASIZE ADD SLT PUSH2 0x18C JUMPI PUSH1 0x40 MLOAD PUSH32 0x0 PUSH1 0x1 PUSH1 0x1 PUSH1 0xA0 SHL SUB AND DUP2 MSTORE PUSH1 0x20 SWAP1 RETURN JUMPDEST POP CALLVALUE PUSH2 0x18C JUMPI PUSH1 0x40 CALLDATASIZE PUSH1 0x3 NOT ADD SLT PUSH2 0x18C JUMPI PUSH1 0x4 CALLDATALOAD SWAP1 PUSH1 0x4 DUP3 LT ISZERO PUSH2 0x18C JUMPI PUSH1 0x24 CALLDATALOAD PUSH8 0xFFFFFFFFFFFFFFFF DUP2 GT PUSH2 0x5CC JUMPI CALLDATASIZE PUSH1 0x23 DUP3 ADD SLT ISZERO PUSH2 0x5CC JUMPI DUP1 PUSH1 0x4 ADD CALLDATALOAD SWAP3 PUSH8 0xFFFFFFFFFFFFFFFF DUP5 GT PUSH2 0x5C8 JUMPI PUSH1 0x24 DUP3 ADD SWAP2 PUSH1 0x24 DUP6 CALLDATASIZE SWAP3 ADD ADD GT PUSH2 0x5C8 JUMPI DUP1 PUSH2 0xFCE JUMPI CALLER DUP4 MSTORE PUSH1 0x9 PUSH1 0x20 MSTORE PUSH1 0xFF PUSH1 0x40 DUP5 KECCAK256 SLOAD AND ISZERO PUSH2 0xF90 JUMPI JUMPDEST PUSH1 0x40 MLOAD PUSH1 0x20 DUP2 ADD SWAP1 CALLER PUSH1 0x60 SHL DUP3 MSTORE DUP6 DUP5 PUSH1 0x34 DUP4 ADD CALLDATACOPY PUSH2 0xD51 PUSH1 0x21 PUSH1 0x34 DUP4 DUP10 DUP2 ADD TIMESTAMP DUP4 DUP3 ADD MSTORE DUP8 PUSH1 0xF8 SHL PUSH1 0x54 DUP3 ADD MSTORE SUB ADD PUSH1 0x1 DUP2 ADD DUP5 MSTORE ADD DUP3 PUSH2 0x1126 JUMP JUMPDEST MLOAD SWAP1 KECCAK256 SWAP2 PUSH2 0xD67 PUSH2 0xD61 DUP4 PUSH2 0x12DA JUMP JUMPDEST TIMESTAMP PUSH2 0x121D JUMP JUMPDEST SWAP1 PUSH1 0x40 MLOAD SWAP6 PUSH1 0x80 DUP8 ADD DUP8 DUP2 LT PUSH8 0xFFFFFFFFFFFFFFFF DUP3 GT OR PUSH2 0xF7C JUMPI DUP7 SWAP2 PUSH1 0x20 SWAP2 PUSH1 0x40 MSTORE DUP1 PUSH1 0x40 MLOAD SWAP5 PUSH2 0xDA3 DUP5 PUSH1 0x1F NOT PUSH1 0x1F DUP6 ADD AND ADD DUP8 PUSH2 0x1126 JUMP JUMPDEST DUP2 DUP7 MSTORE DUP4 DUP7 ADD CALLDATACOPY DUP4 ADD ADD MSTORE DUP6 MSTORE PUSH1 0x20 DUP6 ADD SWAP1 DUP2 MSTORE PUSH1 0x40 DUP6 ADD SWAP5 DUP5 DUP7 MSTORE PUSH1 0x60 DUP2 ADD SWAP2 DUP4 DUP4 MSTORE DUP5 DUP7 MSTORE PUSH1 0xB PUSH1 0x20 MSTORE PUSH1 0x40 DUP7 KECCAK256 SWAP2 MLOAD DUP1 MLOAD SWAP1 PUSH8 0xFFFFFFFFFFFFFFFF DUP3 GT PUSH2 0xF68 JUMPI PUSH2 0xDF1 DUP5 SLOAD PUSH2 0x10EC JUMP JUMPDEST PUSH1 0x1F DUP2 GT PUSH2 0xF23 JUMPI JUMPDEST POP PUSH1 0x20 SWAP1 PUSH1 0x1F DUP4 GT PUSH1 0x1 EQ PUSH2 0xEB9 JUMPI SWAP2 DUP1 PUSH1 0x2 SWAP5 SWAP3 PUSH2 0xE4D SWAP7 SWAP5 DUP12 SWAP3 PUSH2 0xEAE JUMPI JUMPDEST POP POP DUP2 PUSH1 0x1 SHL SWAP2 PUSH1 0x0 NOT SWAP1 PUSH1 0x3 SHL SHR NOT AND OR DUP3 SSTORE JUMPDEST MLOAD PUSH1 0x1 DUP3 ADD SSTORE ADD SWAP6 MLOAD ISZERO ISZERO DUP7 SWAP1 PUSH1 0xFF DUP1 NOT DUP4 SLOAD AND SWAP2 ISZERO ISZERO AND OR SWAP1 SSTORE JUMP JUMPDEST MLOAD SWAP4 PUSH1 0x4 DUP6 LT ISZERO PUSH2 0xE9A JUMPI PUSH1 0x20 SWAP5 PUSH2 0xFF00 DUP3 SLOAD SWAP2 PUSH1 0x8 SHL AND SWAP1 PUSH2 0xFF00 NOT AND OR SWAP1 SSTORE DUP2 PUSH32 0xB3B9190940CAB3AE1E75D3728E06E589AD4BA3BBDBBE64CF389829EE7AC84074 PUSH1 0x40 MLOAD SWAP5 DUP1 LOG3 DUP2 MSTORE RETURN JUMPDEST PUSH4 0x4E487B71 PUSH1 0xE0 SHL DUP5 MSTORE PUSH1 0x21 PUSH1 0x4 MSTORE PUSH1 0x24 DUP5 REVERT JUMPDEST ADD MLOAD SWAP1 POP CODESIZE DUP1 PUSH2 0xE1B JUMP JUMPDEST DUP5 DUP10 MSTORE DUP2 DUP10 KECCAK256 SWAP2 SWAP1 PUSH1 0x1F NOT DUP5 AND DUP11 JUMPDEST DUP2 DUP2 LT PUSH2 0xF0B JUMPI POP SWAP3 PUSH1 0x1 SWAP3 DUP6 SWAP3 PUSH2 0xE4D SWAP9 SWAP7 PUSH1 0x2 SWAP9 SWAP7 LT PUSH2 0xEF2 JUMPI JUMPDEST POP POP POP DUP2 SHL ADD DUP3 SSTORE PUSH2 0xE30 JUMP JUMPDEST ADD MLOAD PUSH1 0x0 NOT PUSH1 0xF8 DUP5 PUSH1 0x3 SHL AND SHR NOT AND SWAP1 SSTORE CODESIZE DUP1 DUP1 PUSH2 0xEE5 JUMP JUMPDEST SWAP3 SWAP4 PUSH1 0x20 PUSH1 0x1 DUP2 SWAP3 DUP8 DUP7 ADD MLOAD DUP2 SSTORE ADD SWAP6 ADD SWAP4 ADD PUSH2 0xEC8 JUMP JUMPDEST DUP5 DUP10 MSTORE PUSH1 0x20 DUP10 KECCAK256 PUSH1 0x1F DUP5 ADD PUSH1 0x5 SHR DUP2 ADD SWAP2 PUSH1 0x20 DUP6 LT PUSH2 0xF5E JUMPI JUMPDEST PUSH1 0x1F ADD PUSH1 0x5 SHR ADD SWAP1 JUMPDEST DUP2 DUP2 LT PUSH2 0xF53 JUMPI POP PUSH2 0xDFA JUMP JUMPDEST DUP10 DUP2 SSTORE PUSH1 0x1 ADD PUSH2 0xF46 JUMP JUMPDEST SWAP1 SWAP2 POP DUP2 SWAP1 PUSH2 0xF3D JUMP JUMPDEST PUSH4 0x4E487B71 PUSH1 0xE0 SHL DUP9 MSTORE PUSH1 0x41 PUSH1 0x4 MSTORE PUSH1 0x24 DUP9 REVERT JUMPDEST PUSH4 0x4E487B71 PUSH1 0xE0 SHL DUP8 MSTORE PUSH1 0x41 PUSH1 0x4 MSTORE PUSH1 0x24 DUP8 REVERT JUMPDEST PUSH1 0x40 MLOAD PUSH3 0x461BCD PUSH1 0xE5 SHL DUP2 MSTORE PUSH1 0x20 PUSH1 0x4 DUP3 ADD MSTORE PUSH1 0x16 PUSH1 0x24 DUP3 ADD MSTORE PUSH22 0x2737BA1030BABA3437B934BD32B21039B832B73232B9 PUSH1 0x51 SHL PUSH1 0x44 DUP3 ADD MSTORE PUSH1 0x64 SWAP1 REVERT JUMPDEST PUSH1 0x2 SLOAD PUSH1 0x1 PUSH1 0x1 PUSH1 0xA0 SHL SUB AND CALLER EQ PUSH2 0xD14 JUMPI PUSH1 0x40 MLOAD PUSH3 0x461BCD PUSH1 0xE5 SHL DUP2 MSTORE PUSH1 0x20 PUSH1 0x4 DUP3 ADD MSTORE PUSH1 0x9 PUSH1 0x24 DUP3 ADD MSTORE PUSH9 0x2737BA1037BBB732B9 PUSH1 0xB9 SHL PUSH1 0x44 DUP3 ADD MSTORE PUSH1 0x64 SWAP1 REVERT JUMPDEST POP CALLVALUE PUSH2 0x18C JUMPI DUP1 PUSH1 0x3 NOT CALLDATASIZE ADD SLT PUSH2 0x18C JUMPI PUSH1 0x20 PUSH1 0x3 SLOAD PUSH1 0x40 MLOAD SWAP1 DUP2 MSTORE RETURN JUMPDEST POP CALLVALUE PUSH2 0x18C JUMPI PUSH1 0x20 CALLDATASIZE PUSH1 0x3 NOT ADD SLT PUSH2 0x18C JUMPI PUSH1 0x4 CALLDATALOAD DUP2 MSTORE PUSH1 0xB PUSH1 0x20 MSTORE PUSH1 0x40 DUP2 KECCAK256 SWAP1 PUSH2 0x1059 DUP3 PUSH2 0x115E JUMP JUMPDEST SWAP1 PUSH1 0x2 PUSH1 0x1 DUP5 ADD SLOAD SWAP4 ADD SLOAD SWAP1 PUSH1 0xFF DUP3 PUSH1 0x8 SHR AND SWAP2 PUSH1 0x40 MLOAD SWAP5 PUSH1 0x80 DUP7 MSTORE DUP5 MLOAD SWAP5 DUP6 PUSH1 0x80 DUP9 ADD MSTORE DUP4 JUMPDEST DUP7 DUP2 LT PUSH2 0x10D6 JUMPI POP POP DUP6 DUP6 ADD PUSH1 0xA0 ADD DUP4 SWAP1 MSTORE PUSH1 0x20 DUP7 ADD MSTORE PUSH1 0xFF AND ISZERO ISZERO PUSH1 0x40 DUP6 ADD MSTORE PUSH1 0x4 DUP3 LT ISZERO PUSH2 0x10C2 JUMPI POP PUSH1 0x60 DUP4 ADD MSTORE PUSH1 0x1F ADD PUSH1 0x1F NOT AND DUP2 ADD DUP2 SWAP1 SUB PUSH1 0xA0 ADD SWAP1 RETURN JUMPDEST PUSH4 0x4E487B71 PUSH1 0xE0 SHL DUP2 MSTORE PUSH1 0x21 PUSH1 0x4 MSTORE PUSH1 0x24 SWAP1 REVERT JUMPDEST DUP1 PUSH1 0x20 DUP1 SWAP3 DUP5 ADD ADD MLOAD PUSH1 0xA0 DUP3 DUP12 ADD ADD MSTORE ADD PUSH2 0x1080 JUMP JUMPDEST SWAP1 PUSH1 0x1 DUP3 DUP2 SHR SWAP3 AND DUP1 ISZERO PUSH2 0x111C JUMPI JUMPDEST PUSH1 0x20 DUP4 LT EQ PUSH2 0x1106 JUMPI JUMP JUMPDEST PUSH4 0x4E487B71 PUSH1 0xE0 SHL PUSH1 0x0 MSTORE PUSH1 0x22 PUSH1 0x4 MSTORE PUSH1 0x24 PUSH1 0x0 REVERT JUMPDEST SWAP2 PUSH1 0x7F AND SWAP2 PUSH2 0x10FB JUMP JUMPDEST SWAP1 PUSH1 0x1F DUP1 NOT SWAP2 ADD AND DUP2 ADD SWAP1 DUP2 LT PUSH8 0xFFFFFFFFFFFFFFFF DUP3 GT OR PUSH2 0x1148 JUMPI PUSH1 0x40 MSTORE JUMP JUMPDEST PUSH4 0x4E487B71 PUSH1 0xE0 SHL PUSH1 0x0 MSTORE PUSH1 0x41 PUSH1 0x4 MSTORE PUSH1 0x24 PUSH1 0x0 REVERT JUMPDEST SWAP1 PUSH1 0x40 MLOAD SWAP2 DUP3 PUSH1 0x0 DUP3 SLOAD SWAP3 PUSH2 0x1172 DUP5 PUSH2 0x10EC JUMP JUMPDEST DUP1 DUP5 MSTORE SWAP4 PUSH1 0x1 DUP2 AND SWAP1 DUP2 ISZERO PUSH2 0x11E0 JUMPI POP PUSH1 0x1 EQ PUSH2 0x1199 JUMPI JUMPDEST POP PUSH2 0x1197 SWAP3 POP SUB DUP4 PUSH2 0x1126 JUMP JUMPDEST JUMP JUMPDEST SWAP1 POP PUSH1 0x0 SWAP3 SWAP2 SWAP3 MSTORE PUSH1 0x20 PUSH1 0x0 KECCAK256 SWAP1 PUSH1 0x0 SWAP2 JUMPDEST DUP2 DUP4 LT PUSH2 0x11C4 JUMPI POP POP SWAP1 PUSH1 0x20 PUSH2 0x1197 SWAP3 DUP3 ADD ADD CODESIZE PUSH2 0x118A JUMP JUMPDEST PUSH1 0x20 SWAP2 SWAP4 POP DUP1 PUSH1 0x1 SWAP2 SLOAD DUP4 DUP6 DUP10 ADD ADD MSTORE ADD SWAP2 ADD SWAP1 SWAP2 DUP5 SWAP3 PUSH2 0x11AB JUMP JUMPDEST SWAP1 POP PUSH1 0x20 SWAP3 POP PUSH2 0x1197 SWAP5 SWAP2 POP PUSH1 0xFF NOT AND DUP3 DUP5 ADD MSTORE ISZERO ISZERO PUSH1 0x5 SHL DUP3 ADD ADD CODESIZE PUSH2 0x118A JUMP JUMPDEST PUSH1 0x4 CALLDATALOAD SWAP1 PUSH1 0x1 PUSH1 0x1 PUSH1 0xA0 SHL SUB DUP3 AND DUP3 SUB PUSH2 0x1218 JUMPI JUMP JUMPDEST PUSH1 0x0 DUP1 REVERT JUMPDEST SWAP2 SWAP1 DUP3 ADD DUP1 SWAP3 GT PUSH2 0x122A JUMPI JUMP JUMPDEST PUSH4 0x4E487B71 PUSH1 0xE0 SHL PUSH1 0x0 MSTORE PUSH1 0x11 PUSH1 0x4 MSTORE PUSH1 0x24 PUSH1 0x0 REVERT JUMPDEST ISZERO PUSH2 0x1247 JUMPI JUMP JUMPDEST PUSH1 0x40 MLOAD PUSH3 0x461BCD PUSH1 0xE5 SHL DUP2 MSTORE PUSH1 0x20 PUSH1 0x4 DUP3 ADD MSTORE PUSH1 0x15 PUSH1 0x24 DUP3 ADD MSTORE PUSH21 0x151BDAD95B881B9BDD081DDA1A5D195B1A5CDD1959 PUSH1 0x5A SHL PUSH1 0x44 DUP3 ADD MSTORE PUSH1 0x64 SWAP1 REVERT JUMPDEST PUSH8 0xFFFFFFFFFFFFFFFF DUP2 GT PUSH2 0x1148 JUMPI PUSH1 0x5 SHL PUSH1 0x20 ADD SWAP1 JUMP JUMPDEST DUP1 MLOAD DUP3 LT ISZERO PUSH2 0x12B0 JUMPI PUSH1 0x20 SWAP2 PUSH1 0x5 SHL ADD ADD SWAP1 JUMP JUMPDEST PUSH4 0x4E487B71 PUSH1 0xE0 SHL PUSH1 0x0 MSTORE PUSH1 0x32 PUSH1 0x4 MSTORE PUSH1 0x24 PUSH1 0x0 REVERT JUMPDEST MLOAD SWAP1 PUSH1 0x1 PUSH1 0x1 PUSH1 0xA0 SHL SUB DUP3 AND DUP3 SUB PUSH2 0x1218 JUMPI JUMP JUMPDEST PUSH1 0x4 DUP2 LT ISZERO PUSH2 0x1312 JUMPI DUP1 ISZERO PUSH2 0x130B JUMPI PUSH1 0x1 DUP2 EQ PUSH2 0x1304 JUMPI PUSH1 0x2 EQ PUSH2 0x12FE JUMPI PUSH1 0x6 SLOAD SWAP1 JUMP JUMPDEST PUSH1 0x5 SLOAD SWAP1 JUMP JUMPDEST POP PUSH1 0x4 SLOAD SWAP1 JUMP JUMPDEST POP PUSH1 0x3 SLOAD SWAP1 JUMP JUMPDEST PUSH4 0x4E487B71 PUSH1 0xE0 SHL PUSH1 0x0 MSTORE PUSH1 0x21 PUSH1 0x4 MSTORE PUSH1 0x24 PUSH1 0x0 REVERT JUMPDEST PUSH1 0x2 SLOAD PUSH1 0x1 PUSH1 0x1 PUSH1 0xA0 SHL SUB AND CALLER SUB PUSH2 0x133C JUMPI JUMP JUMPDEST PUSH4 0x118CDAA7 PUSH1 0xE0 SHL PUSH1 0x0 MSTORE CALLER PUSH1 0x4 MSTORE PUSH1 0x24 PUSH1 0x0 REVERT JUMPDEST PUSH1 0xFF PUSH1 0x0 SLOAD AND PUSH2 0x135D JUMPI JUMP JUMPDEST PUSH4 0xD93C0665 PUSH1 0xE0 SHL PUSH1 0x0 MSTORE PUSH1 0x4 PUSH1 0x0 REVERT JUMPDEST SWAP1 PUSH1 0x0 PUSH1 0x20 SWAP2 DUP3 DUP2 MLOAD SWAP2 ADD DUP3 DUP6 GAS CALL ISZERO PUSH2 0x13C9 JUMPI PUSH1 0x0 MLOAD RETURNDATASIZE PUSH2 0x13C0 JUMPI POP PUSH1 0x1 PUSH1 0x1 PUSH1 0xA0 SHL SUB DUP2 AND EXTCODESIZE ISZERO JUMPDEST PUSH2 0x139F JUMPI POP JUMP JUMPDEST PUSH4 0x5274AFE7 PUSH1 0xE0 SHL PUSH1 0x0 SWAP1 DUP2 MSTORE PUSH1 0x1 PUSH1 0x1 PUSH1 0xA0 SHL SUB SWAP2 SWAP1 SWAP2 AND PUSH1 0x4 MSTORE PUSH1 0x24 SWAP1 REVERT JUMPDEST PUSH1 0x1 EQ ISZERO PUSH2 0x1398 JUMP JUMPDEST PUSH1 0x40 MLOAD RETURNDATASIZE PUSH1 0x0 DUP3 RETURNDATACOPY RETURNDATASIZE SWAP1 REVERT INVALID LOG1 PUSH5 0x736F6C6343 STOP ADDMOD SHL STOP EXP "
        },
        "methodIdentifiers": {
          "changes(bytes32)": "0443efb7",
          "deadline()": "29dcb0cf",
          "deposit(address,uint256)": "47e7ef24",
          "deposits(address,address)": "8f601f66",
          "executeChange(bytes32)": "c320049a",
          "minimumAmount()": "bb0c8298",
          "owner()": "8da5cb5b",
          "parameterTimelock()": "303b4e8d",
          "pause()": "8456cb59",
          "paused()": "5c975abb",
          "renounceOwnership()": "715018a6",
          "requestChange(uint8,bytes)": "0bde2876",
          "safe()": "186f0354",
          "setTokenWhitelist(address[],bool)": "b27aa229",
          "spenderTimelock()": "60f9c01b",
          "spenders(address)": "63a31bd4",
          "spendingTimelock()": "064a82ca",
          "timelockTimelock()": "5b8bc67d",
          "transferOwnership(address)": "f2fde38b",
          "unpause()": "3f4ba83a",
          "whitelistedTokens(address)": "daf9c210"
        }
      }
    }
  }
}