{
  "_format": "hh-sol-artifact-1",
  "contractName": "MockTreasuryFactory",
  "sourceName": "contracts/MockTreasuryFactory.sol",
  "abi": [
    {
      "inputs": [],
      "name": "ReentrancyGuardReentrantCall",
      "type": "error"
    },
    {
      "inputs": [
        {
          "internalType": "address",
          "name": "token",
          "type": "address"
        }
      ],
      "name": "SafeERC20FailedOperation",
      "type": "error"
    },
    {
      "anonymous": false,
      "inputs": [
        {
          "indexed": false,
          "internalType": "address",
          "name": "treasury",
          "type": "address"
        }
      ],
      "name": "TreasuryCreated",
      "type": "event"
    },
    {
      "inputs": [
        {
          "internalType": "uint256",
          "name": "minimumAmount",
          "type": "uint256"
        },
        {
          "internalType": "uint256",
          "name": "deadline",
          "type": "uint256"
        },
        {
          "internalType": "address[]",
          "name": "whitelistedTokens",
          "type": "address[]"
        },
        {
          "internalType": "address",
          "name": "depositToken",
          "type": "address"
        },
        {
          "internalType": "uint256",
          "name": "depositAmount",
          "type": "uint256"
        }
      ],
      "name": "createTreasury",
      "outputs": [
        {
          "internalType": "address",
          "name": "",
          "type": "address"
        }
      ],
      "stateMutability": "nonpayable",
      "type": "function"
    }
  ],
  "bytecode": "0x60808060405234601a5760016000556115f790816100208239f35b600080fdfe608080604052600436101561001357600080fd5b60003560e01c6362cbb4411461002857600080fd5b346102725760a0366003190112610272576004356044359167ffffffffffffffff831161027257366023840112156102725782600401359167ffffffffffffffff8311610272573660248460051b86010111610272576064356001600160a01b0381169490859003610272576084359260026000541461030b5760026000558284106102c9575060009360005b818110156102bf576024600582901b840101356001600160a01b038116906000908290036102bc575087146100ec576001016100b5565b50909192935060015b1561027757604051926112ce9081850185811067ffffffffffffffff82111761022c57608090846024938897969561031d893960608301908352843560208401526060604084015252019201906000905b8082106102425750505003906000f080156102205760018060a01b0316906040519060208201906323b872dd60e01b825233602484015283604484015260648301526064825260a082019082821067ffffffffffffffff83111761022c57602092600092604052519082865af115610220576000513d6102175750813b155b610202576020907f53c77165ef55b79608b09299df26589eb0f8a7b4047fd78eb5d398493bb87fd582604051838152a16001600055604051908152f35b50635274afe760e01b60005260045260246000fd5b600114156101c5565b6040513d6000823e3d90fd5b634e487b7160e01b600052604160045260246000fd5b9193509183356001600160a01b038116919082900361027257602081600193829352019401920184939291610146565b600080fd5b60405162461bcd60e51b815260206004820152601d60248201527f4465706f73697420746f6b656e206e6f742077686974656c69737465640000006044820152606490fd5b80fd5b50909192936100f5565b62461bcd60e51b815260206004820152601760248201527f496e697469616c206465706f73697420746f6f206c6f770000000000000000006044820152606490fd5b633ee5aeb560e01b60005260046000fdfe6080604052346101d3576112ce80380380610019816101ee565b9283398101906060818303126101d35780516020820151604083015190926001600160401b0382116101d3570183601f820112156101d3578051936001600160401b0385116101d8578460051b916020806100758186016101ee565b8098815201938201019182116101d357602001915b8183106101b35750505060ff196000541660005560018055331561019d5760028054336001600160a01b0319821681179092556001600160a01b03167f8be0079c531659141344cd1fd0a4f28419497f9722a3daafe3b4186f6b6457e0600080a36007556008556201518060035562093a806004556203f4806005556212750060065560005b815181101561018e576001906001600160a01b0361012e8285610213565b5116600052600a60205260406000208260ff198254161790557f67821d5384bb02aab1ba91a477f89c9966cd30f475b02618bdc58712bca512756040838060a01b0361017a8487610213565b51168151908152846020820152a101610110565b604051611090908161023e8239f35b631e4fbdf760e01b600052600060045260246000fd5b82516001600160a01b03811681036101d35781526020928301920161008a565b600080fd5b634e487b7160e01b600052604160045260246000fd5b6040519190601f01601f191682016001600160401b038111838210176101d857604052565b80518210156102275760209160051b010190565b634e487b7160e01b600052603260045260246000fdfe6080604052600436101561001257600080fd5b60003560e01c80630443efb714610d3c578063064a82ca14610d1e5780630bde28761461099d57806329dcb0cf1461097f578063303b4e8d146109615780633f4ba83a146108f857806347e7ef24146107a55780635b8bc67d146107875780635c975abb1461076457806360f9c01b1461074657806363a31bd414610707578063715018a6146106aa5780638456cb59146106505780638da5cb5b146106275780638f601f66146105c6578063b27aa22914610480578063bb0c829814610462578063c320049a146101c6578063daf9c210146101875763f2fde38b146100f857600080fd5b3461018257602036600319011261018257610111610ee3565b610119610fac565b6001600160a01b0316801561016c57600280546001600160a01b0319811683179091556001600160a01b03167f8be0079c531659141344cd1fd0a4f28419497f9722a3daafe3b4186f6b6457e0600080a3005b631e4fbdf760e01b600052600060045260246000fd5b600080fd5b34610182576020366003190112610182576001600160a01b036101a8610ee3565b16600052600a602052602060ff604060002054166040519015158152f35b346101825760203660031901126101825760043580600052600b60205260406000206002810190815460ff811661042a57600182015442106103ee5760081c60ff169060048210156103d857816102e1576102219150610e3f565b606081805181010312610182578061023e60206102af9301610f60565b90610250606060408301519201610f60565b9160018060a01b03169081600052600a60205261027460ff60406000205416610f1c565b60405163a9059cbb60e01b60208201526001600160a01b03909316602484015260448084019190915282526102aa606483610e1d565b61101c565b805460ff191660011790557facba7db33afd41cd69adcb9749e50b9fd484953f306d98d2d6e0a8ce0adb7d5c600080a2005b60006001830361034c57506102f69150610e3f565b60408180518101031261018257604061031160208301610f60565b9101518015158103610182576103479160018060a01b0316600052600960205260406000209060ff801983541691151516179055565b6102af565b50600282036103825761035f9150610e3f565b6040818051810103126101825760406020820151910151906008556007556102af565b600360009214610394575b50506102af565b61039d90610e3f565b906080828051810103126103d5575060208101519060408101516080606083015192015192600355600455600555600655828061038d565b80fd5b634e487b7160e01b600052602160045260246000fd5b60405162461bcd60e51b8152602060048201526014602482015273151a5b595b1bd8dac81b9bdd08195e1c1a5c995960621b6044820152606490fd5b60405162461bcd60e51b815260206004820152601060248201526f105b1c9958591e48195e1958dd5d195960821b6044820152606490fd5b34610182576000366003190112610182576020600754604051908152f35b346101825760403660031901126101825760043567ffffffffffffffff811161018257366023820112156101825780600401359067ffffffffffffffff8211610182578160051b60248183010190368211610182576024359283151592838503610182576104ec610fac565b6000956104ff6020604051950185610e1d565b83526024602084019201915b8183106105a257505050835b815181101561059e576001906001600160a01b036105358285610ff2565b51168652600a60205261055785604088209060ff801983541691151516179055565b7f67821d5384bb02aab1ba91a477f89c9966cd30f475b02618bdc58712bca512756040838060a01b0361058a8487610ff2565b51168151908152866020820152a101610517565b8480f35b82356001600160a01b03811681036105c25781526020928301920161050b565b8780fd5b34610182576040366003190112610182576105df610ee3565b602435906001600160a01b03821682036101825760018060a01b0316600052600c60205260406000209060018060a01b03166000526020526020604060002054604051908152f35b34610182576000366003190112610182576002546040516001600160a01b039091168152602090f35b3461018257600036600319011261018257610669610fac565b610671610fd5565b600160ff1960005416176000557f62e78cea01bee320cd4e420270b5ea74000d11b0c9f74754ebdbfc544b05a2586020604051338152a1005b34610182576000366003190112610182576106c3610fac565b600280546001600160a01b031981169091556000906001600160a01b03167f8be0079c531659141344cd1fd0a4f28419497f9722a3daafe3b4186f6b6457e08280a3005b34610182576020366003190112610182576001600160a01b03610728610ee3565b166000526009602052602060ff604060002054166040519015158152f35b34610182576000366003190112610182576020600454604051908152f35b3461018257600036600319011261018257602060ff600054166040519015158152f35b34610182576000366003190112610182576020600654604051908152f35b34610182576040366003190112610182576107be610ee3565b602435906002600154146108e75760026001556107d9610fd5565b6008544210156108ad576007548210610877576001600160a01b03166000818152600a60205260409020546108109060ff16610f1c565b61084a6040516323b872dd60e01b602082015233602482015230604482015283606482015260648152610844608482610e1d565b8261101c565b33600052600c60205260406000209060005260205261086f6040600020918254610ef9565b905560018055005b60405162461bcd60e51b815260206004820152600e60248201526d416d6f756e7420746f6f206c6f7760901b6044820152606490fd5b60405162461bcd60e51b815260206004820152601260248201527110dc9bddd9199d5b991a5b99c8195b99195960721b6044820152606490fd5b633ee5aeb560e01b60005260046000fd5b3461018257600036600319011261018257610911610fac565b60005460ff8116156109505760ff19166000557f5db9ee0a495bf2e6ff9c91a7834c1ba4fdd244a5e8aa4e537bd38aeae4b073aa6020604051338152a1005b638dfc202b60e01b60005260046000fd5b34610182576000366003190112610182576020600554604051908152f35b34610182576000366003190112610182576020600854604051908152f35b34610182576040366003190112610182576004356004811015610182576024359067ffffffffffffffff821161018257366023830112156101825781600401359067ffffffffffffffff8211610182576024830192602483369201011161018257600081610cdb57338152600960205260ff60408220541615610c9d575b604051610a59602160348360208101953360601b8752888a84840137888201904284830152508760f81b605482015203016001810184520182610e1d565b51902090610a6f610a6982610f74565b42610ef9565b60405194608086019486861067ffffffffffffffff871117610c875760209560405260009581879260405194610aae84601f19601f8501160187610e1d565b818652838601378301015285526020850190815260408501948486526060810191838352848652600b60205260408620915180519067ffffffffffffffff8211610c7357610afc8454610de3565b601f8111610c2e575b50602090601f8311600114610bc457918060029492610b5896948b92610bb9575b50508160011b916000199060031b1c19161782555b5160018201550195511515869060ff801983541691151516179055565b51936004851015610ba55760209461ff0082549160081b169061ff001916179055817fb3b9190940cab3ae1e75d3728e06e589ad4ba3bbdbbe64cf389829ee7ac840746040519480a38152f35b634e487b7160e01b84526021600452602484fd5b015190508b80610b26565b8489528189209190601f1984168a5b818110610c165750926001928592610b5898966002989610610bfd575b505050811b018255610b3b565b015160001960f88460031b161c191690558b8080610bf0565b92936020600181928786015181550195019301610bd3565b84895260208920601f840160051c81019160208510610c69575b601f0160051c01905b818110610c5e5750610b05565b898155600101610c51565b9091508190610c48565b634e487b7160e01b88526041600452602488fd5b634e487b7160e01b600052604160045260246000fd5b60405162461bcd60e51b81526020600482015260166024820152752737ba1030baba3437b934bd32b21039b832b73232b960511b6044820152606490fd5b6002546001600160a01b03163314610a1b5760405162461bcd60e51b81526020600482015260096024820152682737ba1037bbb732b960b91b6044820152606490fd5b34610182576000366003190112610182576020600354604051908152f35b3461018257602036600319011261018257600435600052600b6020526040600020610d6681610e3f565b6002600183015492015460ff8160081c1690604051936080855283519384608087015260005b858110610dcd575050600085850160a00152602085015260ff161515604084015260048110156103d8576060830152601f01601f1916810181900360a00190f35b80602080928401015160a0828a01015201610d8c565b90600182811c92168015610e13575b6020831014610dfd57565b634e487b7160e01b600052602260045260246000fd5b91607f1691610df2565b90601f8019910116810190811067ffffffffffffffff821117610c8757604052565b9060405191826000825492610e5384610de3565b8084529360018116908115610ec15750600114610e7a575b50610e7892500383610e1d565b565b90506000929192526020600020906000915b818310610ea5575050906020610e789282010138610e6b565b6020919350806001915483858901015201910190918492610e8c565b905060209250610e7894915060ff191682840152151560051b82010138610e6b565b600435906001600160a01b038216820361018257565b91908201809211610f0657565b634e487b7160e01b600052601160045260246000fd5b15610f2357565b60405162461bcd60e51b8152602060048201526015602482015274151bdad95b881b9bdd081dda1a5d195b1a5cdd1959605a1b6044820152606490fd5b51906001600160a01b038216820361018257565b60048110156103d8578015610fa55760018114610f9e57600214610f985760065490565b60055490565b5060045490565b5060035490565b6002546001600160a01b03163303610fc057565b63118cdaa760e01b6000523360045260246000fd5b60ff60005416610fe157565b63d93c066560e01b60005260046000fd5b80518210156110065760209160051b010190565b634e487b7160e01b600052603260045260246000fd5b906000602091828151910182855af115611077576000513d61106e57506001600160a01b0381163b155b61104d5750565b635274afe760e01b60009081526001600160a01b0391909116600452602490fd5b60011415611046565b6040513d6000823e3d90fdfea164736f6c634300081b000aa164736f6c634300081b000a",
  "linkReferences": {},
  "deployedLinkReferences": {}
}