{
  "_format": "hh-sol-artifact-1",
  "contractName": "FractionalRealty",
  "sourceName": "contracts/FractionalRealty.sol",
  "abi": [
    {
      "inputs": [
        {
          "internalType": "address",
          "name": "_attester",
          "type": "address"
        }
      ],
      "stateMutability": "nonpayable",
      "type": "constructor"
    },
    {
      "inputs": [],
      "name": "AccessControlBadConfirmation",
      "type": "error"
    },
    {
      "inputs": [
        {
          "internalType": "address",
          "name": "account",
          "type": "address"
        },
        {
          "internalType": "bytes32",
          "name": "neededRole",
          "type": "bytes32"
        }
      ],
      "name": "AccessControlUnauthorizedAccount",
      "type": "error"
    },
    {
      "inputs": [
        {
          "internalType": "address",
          "name": "sender",
          "type": "address"
        },
        {
          "internalType": "uint256",
          "name": "tokenId",
          "type": "uint256"
        },
        {
          "internalType": "address",
          "name": "owner",
          "type": "address"
        }
      ],
      "name": "ERC721IncorrectOwner",
      "type": "error"
    },
    {
      "inputs": [
        {
          "internalType": "address",
          "name": "operator",
          "type": "address"
        },
        {
          "internalType": "uint256",
          "name": "tokenId",
          "type": "uint256"
        }
      ],
      "name": "ERC721InsufficientApproval",
      "type": "error"
    },
    {
      "inputs": [
        {
          "internalType": "address",
          "name": "approver",
          "type": "address"
        }
      ],
      "name": "ERC721InvalidApprover",
      "type": "error"
    },
    {
      "inputs": [
        {
          "internalType": "address",
          "name": "operator",
          "type": "address"
        }
      ],
      "name": "ERC721InvalidOperator",
      "type": "error"
    },
    {
      "inputs": [
        {
          "internalType": "address",
          "name": "owner",
          "type": "address"
        }
      ],
      "name": "ERC721InvalidOwner",
      "type": "error"
    },
    {
      "inputs": [
        {
          "internalType": "address",
          "name": "receiver",
          "type": "address"
        }
      ],
      "name": "ERC721InvalidReceiver",
      "type": "error"
    },
    {
      "inputs": [
        {
          "internalType": "address",
          "name": "sender",
          "type": "address"
        }
      ],
      "name": "ERC721InvalidSender",
      "type": "error"
    },
    {
      "inputs": [
        {
          "internalType": "uint256",
          "name": "tokenId",
          "type": "uint256"
        }
      ],
      "name": "ERC721NonexistentToken",
      "type": "error"
    },
    {
      "inputs": [],
      "name": "ReentrancyGuardReentrantCall",
      "type": "error"
    },
    {
      "anonymous": false,
      "inputs": [
        {
          "indexed": true,
          "internalType": "address",
          "name": "owner",
          "type": "address"
        },
        {
          "indexed": true,
          "internalType": "address",
          "name": "approved",
          "type": "address"
        },
        {
          "indexed": true,
          "internalType": "uint256",
          "name": "tokenId",
          "type": "uint256"
        }
      ],
      "name": "Approval",
      "type": "event"
    },
    {
      "anonymous": false,
      "inputs": [
        {
          "indexed": true,
          "internalType": "address",
          "name": "owner",
          "type": "address"
        },
        {
          "indexed": true,
          "internalType": "address",
          "name": "operator",
          "type": "address"
        },
        {
          "indexed": false,
          "internalType": "bool",
          "name": "approved",
          "type": "bool"
        }
      ],
      "name": "ApprovalForAll",
      "type": "event"
    },
    {
      "anonymous": false,
      "inputs": [
        {
          "indexed": false,
          "internalType": "uint256",
          "name": "tokenId",
          "type": "uint256"
        },
        {
          "indexed": false,
          "internalType": "address",
          "name": "from",
          "type": "address"
        },
        {
          "indexed": false,
          "internalType": "uint256",
          "name": "amount",
          "type": "uint256"
        }
      ],
      "name": "ERC20BurnRequested",
      "type": "event"
    },
    {
      "anonymous": false,
      "inputs": [
        {
          "indexed": false,
          "internalType": "uint256",
          "name": "tokenId",
          "type": "uint256"
        },
        {
          "indexed": false,
          "internalType": "address",
          "name": "from",
          "type": "address"
        },
        {
          "indexed": false,
          "internalType": "uint256",
          "name": "amount",
          "type": "uint256"
        }
      ],
      "name": "ERC20Burned",
      "type": "event"
    },
    {
      "anonymous": false,
      "inputs": [
        {
          "indexed": false,
          "internalType": "uint256",
          "name": "tokenId",
          "type": "uint256"
        },
        {
          "indexed": false,
          "internalType": "address",
          "name": "to",
          "type": "address"
        },
        {
          "indexed": false,
          "internalType": "uint256",
          "name": "amount",
          "type": "uint256"
        }
      ],
      "name": "ERC20MintRequested",
      "type": "event"
    },
    {
      "anonymous": false,
      "inputs": [
        {
          "indexed": false,
          "internalType": "uint256",
          "name": "tokenId",
          "type": "uint256"
        },
        {
          "indexed": false,
          "internalType": "address",
          "name": "to",
          "type": "address"
        },
        {
          "indexed": false,
          "internalType": "uint256",
          "name": "amount",
          "type": "uint256"
        }
      ],
      "name": "ERC20Minted",
      "type": "event"
    },
    {
      "anonymous": false,
      "inputs": [
        {
          "indexed": true,
          "internalType": "bytes32",
          "name": "role",
          "type": "bytes32"
        },
        {
          "indexed": true,
          "internalType": "bytes32",
          "name": "previousAdminRole",
          "type": "bytes32"
        },
        {
          "indexed": true,
          "internalType": "bytes32",
          "name": "newAdminRole",
          "type": "bytes32"
        }
      ],
      "name": "RoleAdminChanged",
      "type": "event"
    },
    {
      "anonymous": false,
      "inputs": [
        {
          "indexed": true,
          "internalType": "bytes32",
          "name": "role",
          "type": "bytes32"
        },
        {
          "indexed": true,
          "internalType": "address",
          "name": "account",
          "type": "address"
        },
        {
          "indexed": true,
          "internalType": "address",
          "name": "sender",
          "type": "address"
        }
      ],
      "name": "RoleGranted",
      "type": "event"
    },
    {
      "anonymous": false,
      "inputs": [
        {
          "indexed": true,
          "internalType": "bytes32",
          "name": "role",
          "type": "bytes32"
        },
        {
          "indexed": true,
          "internalType": "address",
          "name": "account",
          "type": "address"
        },
        {
          "indexed": true,
          "internalType": "address",
          "name": "sender",
          "type": "address"
        }
      ],
      "name": "RoleRevoked",
      "type": "event"
    },
    {
      "anonymous": false,
      "inputs": [
        {
          "indexed": false,
          "internalType": "uint256",
          "name": "tokenId",
          "type": "uint256"
        },
        {
          "indexed": false,
          "internalType": "uint256",
          "name": "duration",
          "type": "uint256"
        }
      ],
      "name": "TimelockSet",
      "type": "event"
    },
    {
      "anonymous": false,
      "inputs": [
        {
          "indexed": true,
          "internalType": "address",
          "name": "from",
          "type": "address"
        },
        {
          "indexed": true,
          "internalType": "address",
          "name": "to",
          "type": "address"
        },
        {
          "indexed": true,
          "internalType": "uint256",
          "name": "tokenId",
          "type": "uint256"
        }
      ],
      "name": "Transfer",
      "type": "event"
    },
    {
      "inputs": [],
      "name": "DEFAULT_ADMIN_ROLE",
      "outputs": [
        {
          "internalType": "bytes32",
          "name": "",
          "type": "bytes32"
        }
      ],
      "stateMutability": "view",
      "type": "function"
    },
    {
      "inputs": [
        {
          "internalType": "address",
          "name": "to",
          "type": "address"
        },
        {
          "internalType": "uint256",
          "name": "tokenId",
          "type": "uint256"
        }
      ],
      "name": "approve",
      "outputs": [],
      "stateMutability": "nonpayable",
      "type": "function"
    },
    {
      "inputs": [],
      "name": "attester",
      "outputs": [
        {
          "internalType": "contract IAttester",
          "name": "",
          "type": "address"
        }
      ],
      "stateMutability": "view",
      "type": "function"
    },
    {
      "inputs": [
        {
          "internalType": "address",
          "name": "owner",
          "type": "address"
        }
      ],
      "name": "balanceOf",
      "outputs": [
        {
          "internalType": "uint256",
          "name": "",
          "type": "uint256"
        }
      ],
      "stateMutability": "view",
      "type": "function"
    },
    {
      "inputs": [
        {
          "internalType": "uint256",
          "name": "tokenId",
          "type": "uint256"
        }
      ],
      "name": "burn",
      "outputs": [],
      "stateMutability": "nonpayable",
      "type": "function"
    },
    {
      "inputs": [],
      "name": "currentTokenId",
      "outputs": [
        {
          "internalType": "uint256",
          "name": "",
          "type": "uint256"
        }
      ],
      "stateMutability": "view",
      "type": "function"
    },
    {
      "inputs": [
        {
          "internalType": "uint256",
          "name": "tokenId",
          "type": "uint256"
        },
        {
          "internalType": "address",
          "name": "from",
          "type": "address"
        }
      ],
      "name": "executeBurnERC20",
      "outputs": [],
      "stateMutability": "nonpayable",
      "type": "function"
    },
    {
      "inputs": [
        {
          "internalType": "uint256",
          "name": "tokenId",
          "type": "uint256"
        },
        {
          "internalType": "address",
          "name": "to",
          "type": "address"
        }
      ],
      "name": "executeMintERC20",
      "outputs": [],
      "stateMutability": "nonpayable",
      "type": "function"
    },
    {
      "inputs": [
        {
          "internalType": "uint256",
          "name": "tokenId",
          "type": "uint256"
        }
      ],
      "name": "getApproved",
      "outputs": [
        {
          "internalType": "address",
          "name": "",
          "type": "address"
        }
      ],
      "stateMutability": "view",
      "type": "function"
    },
    {
      "inputs": [
        {
          "internalType": "uint256",
          "name": "tokenId",
          "type": "uint256"
        }
      ],
      "name": "getCountryCode",
      "outputs": [
        {
          "internalType": "uint16",
          "name": "",
          "type": "uint16"
        }
      ],
      "stateMutability": "view",
      "type": "function"
    },
    {
      "inputs": [
        {
          "internalType": "bytes32",
          "name": "role",
          "type": "bytes32"
        }
      ],
      "name": "getRoleAdmin",
      "outputs": [
        {
          "internalType": "bytes32",
          "name": "",
          "type": "bytes32"
        }
      ],
      "stateMutability": "view",
      "type": "function"
    },
    {
      "inputs": [],
      "name": "globalTimelock",
      "outputs": [
        {
          "internalType": "uint256",
          "name": "",
          "type": "uint256"
        }
      ],
      "stateMutability": "view",
      "type": "function"
    },
    {
      "inputs": [
        {
          "internalType": "bytes32",
          "name": "role",
          "type": "bytes32"
        },
        {
          "internalType": "address",
          "name": "account",
          "type": "address"
        }
      ],
      "name": "grantRole",
      "outputs": [],
      "stateMutability": "nonpayable",
      "type": "function"
    },
    {
      "inputs": [
        {
          "internalType": "bytes32",
          "name": "role",
          "type": "bytes32"
        },
        {
          "internalType": "address",
          "name": "account",
          "type": "address"
        }
      ],
      "name": "hasRole",
      "outputs": [
        {
          "internalType": "bool",
          "name": "",
          "type": "bool"
        }
      ],
      "stateMutability": "view",
      "type": "function"
    },
    {
      "inputs": [
        {
          "internalType": "address",
          "name": "owner",
          "type": "address"
        },
        {
          "internalType": "address",
          "name": "operator",
          "type": "address"
        }
      ],
      "name": "isApprovedForAll",
      "outputs": [
        {
          "internalType": "bool",
          "name": "",
          "type": "bool"
        }
      ],
      "stateMutability": "view",
      "type": "function"
    },
    {
      "inputs": [],
      "name": "kintoID",
      "outputs": [
        {
          "internalType": "contract IKintoID",
          "name": "",
          "type": "address"
        }
      ],
      "stateMutability": "view",
      "type": "function"
    },
    {
      "inputs": [
        {
          "internalType": "uint16",
          "name": "_countryCode",
          "type": "uint16"
        },
        {
          "internalType": "bytes32",
          "name": "_titleDeedHash",
          "type": "bytes32"
        },
        {
          "internalType": "bytes32",
          "name": "_businessIdHash",
          "type": "bytes32"
        }
      ],
      "name": "mint",
      "outputs": [],
      "stateMutability": "nonpayable",
      "type": "function"
    },
    {
      "inputs": [],
      "name": "name",
      "outputs": [
        {
          "internalType": "string",
          "name": "",
          "type": "string"
        }
      ],
      "stateMutability": "view",
      "type": "function"
    },
    {
      "inputs": [
        {
          "internalType": "uint256",
          "name": "tokenId",
          "type": "uint256"
        }
      ],
      "name": "ownerOf",
      "outputs": [
        {
          "internalType": "address",
          "name": "",
          "type": "address"
        }
      ],
      "stateMutability": "view",
      "type": "function"
    },
    {
      "inputs": [
        {
          "internalType": "uint256",
          "name": "",
          "type": "uint256"
        }
      ],
      "name": "pendingBurns",
      "outputs": [
        {
          "internalType": "uint256",
          "name": "",
          "type": "uint256"
        }
      ],
      "stateMutability": "view",
      "type": "function"
    },
    {
      "inputs": [
        {
          "internalType": "uint256",
          "name": "",
          "type": "uint256"
        }
      ],
      "name": "pendingMints",
      "outputs": [
        {
          "internalType": "uint256",
          "name": "",
          "type": "uint256"
        }
      ],
      "stateMutability": "view",
      "type": "function"
    },
    {
      "inputs": [
        {
          "internalType": "bytes32",
          "name": "role",
          "type": "bytes32"
        },
        {
          "internalType": "address",
          "name": "callerConfirmation",
          "type": "address"
        }
      ],
      "name": "renounceRole",
      "outputs": [],
      "stateMutability": "nonpayable",
      "type": "function"
    },
    {
      "inputs": [
        {
          "internalType": "uint256",
          "name": "tokenId",
          "type": "uint256"
        },
        {
          "internalType": "address",
          "name": "from",
          "type": "address"
        },
        {
          "internalType": "uint256",
          "name": "amount",
          "type": "uint256"
        }
      ],
      "name": "requestBurnERC20",
      "outputs": [],
      "stateMutability": "nonpayable",
      "type": "function"
    },
    {
      "inputs": [
        {
          "internalType": "uint256",
          "name": "tokenId",
          "type": "uint256"
        },
        {
          "internalType": "address",
          "name": "to",
          "type": "address"
        },
        {
          "internalType": "uint256",
          "name": "amount",
          "type": "uint256"
        }
      ],
      "name": "requestMintERC20",
      "outputs": [],
      "stateMutability": "nonpayable",
      "type": "function"
    },
    {
      "inputs": [
        {
          "internalType": "bytes32",
          "name": "role",
          "type": "bytes32"
        },
        {
          "internalType": "address",
          "name": "account",
          "type": "address"
        }
      ],
      "name": "revokeRole",
      "outputs": [],
      "stateMutability": "nonpayable",
      "type": "function"
    },
    {
      "inputs": [
        {
          "internalType": "address",
          "name": "from",
          "type": "address"
        },
        {
          "internalType": "address",
          "name": "to",
          "type": "address"
        },
        {
          "internalType": "uint256",
          "name": "tokenId",
          "type": "uint256"
        }
      ],
      "name": "safeTransferFrom",
      "outputs": [],
      "stateMutability": "nonpayable",
      "type": "function"
    },
    {
      "inputs": [
        {
          "internalType": "address",
          "name": "from",
          "type": "address"
        },
        {
          "internalType": "address",
          "name": "to",
          "type": "address"
        },
        {
          "internalType": "uint256",
          "name": "tokenId",
          "type": "uint256"
        },
        {
          "internalType": "bytes",
          "name": "data",
          "type": "bytes"
        }
      ],
      "name": "safeTransferFrom",
      "outputs": [],
      "stateMutability": "nonpayable",
      "type": "function"
    },
    {
      "inputs": [
        {
          "internalType": "address",
          "name": "operator",
          "type": "address"
        },
        {
          "internalType": "bool",
          "name": "approved",
          "type": "bool"
        }
      ],
      "name": "setApprovalForAll",
      "outputs": [],
      "stateMutability": "nonpayable",
      "type": "function"
    },
    {
      "inputs": [
        {
          "internalType": "uint256",
          "name": "tokenId",
          "type": "uint256"
        },
        {
          "internalType": "uint256",
          "name": "duration",
          "type": "uint256"
        }
      ],
      "name": "setCustomTimelock",
      "outputs": [],
      "stateMutability": "nonpayable",
      "type": "function"
    },
    {
      "inputs": [
        {
          "internalType": "uint256",
          "name": "duration",
          "type": "uint256"
        }
      ],
      "name": "setGlobalTimelock",
      "outputs": [],
      "stateMutability": "nonpayable",
      "type": "function"
    },
    {
      "inputs": [
        {
          "internalType": "bytes4",
          "name": "interfaceId",
          "type": "bytes4"
        }
      ],
      "name": "supportsInterface",
      "outputs": [
        {
          "internalType": "bool",
          "name": "",
          "type": "bool"
        }
      ],
      "stateMutability": "view",
      "type": "function"
    },
    {
      "inputs": [],
      "name": "symbol",
      "outputs": [
        {
          "internalType": "string",
          "name": "",
          "type": "string"
        }
      ],
      "stateMutability": "view",
      "type": "function"
    },
    {
      "inputs": [
        {
          "internalType": "uint256",
          "name": "",
          "type": "uint256"
        }
      ],
      "name": "tokenData",
      "outputs": [
        {
          "internalType": "uint16",
          "name": "countryCode",
          "type": "uint16"
        },
        {
          "internalType": "bytes32",
          "name": "titleDeedHash",
          "type": "bytes32"
        },
        {
          "internalType": "bytes32",
          "name": "businessIdHash",
          "type": "bytes32"
        },
        {
          "internalType": "address",
          "name": "erc20Token",
          "type": "address"
        },
        {
          "internalType": "uint256",
          "name": "timelockUntil",
          "type": "uint256"
        },
        {
          "internalType": "uint256",
          "name": "customTimelock",
          "type": "uint256"
        }
      ],
      "stateMutability": "view",
      "type": "function"
    },
    {
      "inputs": [
        {
          "internalType": "uint256",
          "name": "tokenId",
          "type": "uint256"
        }
      ],
      "name": "tokenURI",
      "outputs": [
        {
          "internalType": "string",
          "name": "",
          "type": "string"
        }
      ],
      "stateMutability": "view",
      "type": "function"
    },
    {
      "inputs": [
        {
          "internalType": "address",
          "name": "from",
          "type": "address"
        },
        {
          "internalType": "address",
          "name": "to",
          "type": "address"
        },
        {
          "internalType": "uint256",
          "name": "tokenId",
          "type": "uint256"
        }
      ],
      "name": "transferFrom",
      "outputs": [],
      "stateMutability": "nonpayable",
      "type": "function"
    }
  ],
  "bytecode": "0x60a06040523461036a57613de56020813803918261001c8161036f565b93849283398101031261036a57516001600160a01b0381169081900361036a57610046604061036f565b90601082526f4672616374696f6e616c5265616c747960801b602083015261006e604061036f565b600381526211949560ea1b602082015282519091906001600160401b03811161027557600054600181811c91168015610360575b602082101461025557601f81116102fc575b506020601f8211600114610296578192939460009261028b575b50508160011b916000199060031b1c1916176000555b81516001600160401b03811161027557600154600181811c9116801561026b575b602082101461025557601f81116101f0575b50602092601f821160011461018b5792819293600092610180575b50508160011b916000199060031b1c1916176001555b600160075562093a8060095561015d33610394565b506080526040516139a2908161042382396080518181816108a7015261102e0152f35b015190503880610132565b601f198216936001600052806000209160005b8681106101d857508360019596106101bf575b505050811b01600155610148565b015160001960f88460031b161c191690553880806101b1565b9192602060018192868501518155019401920161019e565b60016000527fb10e2d527612073b26eecdfd717e6a320cf44b4afac2b0732d9fcbe2b7fa0cf6601f830160051c8101916020841061024b575b601f0160051c01905b81811061023f5750610117565b60008155600101610232565b9091508190610229565b634e487b7160e01b600052602260045260246000fd5b90607f1690610105565b634e487b7160e01b600052604160045260246000fd5b0151905038806100ce565b601f1982169060008052806000209160005b8181106102e4575095836001959697106102cb575b505050811b016000556100e4565b015160001960f88460031b161c191690553880806102bd565b9192602060018192868b0151815501940192016102a8565b600080527f290decd9548b62a8d60345a988386fc84ba6bc95484008f6362f93160ef3e563601f830160051c81019160208410610356575b601f0160051c01905b81811061034a57506100b4565b6000815560010161033d565b9091508190610334565b90607f16906100a2565b600080fd5b6040519190601f01601f191682016001600160401b0381118382101761027557604052565b6001600160a01b0381166000908152600080516020613dc5833981519152602052604090205460ff1661041c576001600160a01b03166000818152600080516020613dc583398151915260205260408120805460ff191660011790553391907f2f8788117e7eff1d82e926ec794901d17c78024a50270940304540a733656f0d8180a4600190565b5060009056fe608080604052600436101561001357600080fd5b600090813560e01c9081629a9b7b14611ba85750806301ffc9a714611b1f57806306fdde0314611a64578063081812fc14611a27578063095ea7b31461193f5780631bd50aba1461187e57806323b872dd14611866578063248a9ca31461183057806327eaf3ad146116ad5780632d605a02146116585780632f2ff15d14611617578063362b249f1461142857806336568abe146113e35780634194175a1461127a57806342842e0e1461124a57806342966c681461105d57806347b0c3b3146110185780634ac6473914610fee57806361d402e9146107c65780636352211e1461079557806363900ca61461076b57806370a082311461071857806391d14854146106cc578063940f34b4146106ae57806395d89b41146105a157806399a6cddd14610572578063a217fddf14610556578063a22cb465146104b2578063b4b5b48f14610444578063b88d4fde146103a5578063bd467579146102d0578063c87b56dd14610275578063d547741f1461022b578063e985e9c5146101d15763fb6e172c146101a157600080fd5b346101ce5760203660031901126101ce5761ffff60406020926004358152600a8452205416604051908152f35b80fd5b50346101ce5760403660031901126101ce5760406101ed611c0c565b916101f6611c27565b9260018060a01b031681526005602052209060018060a01b0316600052602052602060ff604060002054166040519015158152f35b50346101ce5760403660031901126101ce5761027160043561024b611c27565b9061026c61026782600052600660205260016040600020015490565b611fee565b6120ba565b5080f35b50346101ce5760203660031901126101ce57610292600435611f95565b50602090806040516102a48482611ca1565b5250604051906102b48183611ca1565b600082526102cc604051928284938452830190611be7565b0390f35b50346101ce577ffa885b38c7b569303cb091d5d8d041f02b5d1074fe8bade5e9cadec9ec438da961039461030336611c77565b61032261031284959395611f95565b6001600160a01b03163314611cf5565b828652600a60205260408620600501541561039a57828652600a60205261035160056040882001545b42611f63565b838752600a6020526004604088200155828652600c602052806040872055604051938493846040919493926060820195825260018060a01b031660208201520152565b0390a180f35b61035160095461034b565b50346101ce5760803660031901126101ce576103bf611c0c565b6103c7611c27565b6044356064359167ffffffffffffffff8311610440573660238401121561044057826004013593856103f886611cd9565b946104066040519687611ca1565b868652366024888301011161043c5786610439976024602093018389013786010152610433838383611d33565b3361221e565b80f35b5080fd5b8480fd5b50346101ce5760203660031901126101ce57604060c0916004358152600a6020522061ffff81541690600181015490600281015460018060a01b03600383015416906005600484015493015493604051958652602086015260408501526060840152608083015260a0820152f35b50346101ce5760403660031901126101ce576104cc611c0c565b60243590811515809203610552576001600160a01b031690811561053e5733835260056020526040832082600052602052604060002060ff1981541660ff83161790556040519081527f17307eab39ab6107e8899845ad3d59bd9653f200f220920489ca2b5937696c3160203392a380f35b630b61174360e31b83526004829052602483fd5b8280fd5b50346101ce57806003193601126101ce57602090604051908152f35b50346101ce57806003193601126101ce57602060405173f369f78e3a0492cc4e96a90dae0728a38498e9c78152f35b50346101ce57806003193601126101ce576040519080600154908160011c916001811680156106a4575b60208410811461069057838652908115610669575060011461060c575b6102cc846105f881860382611ca1565b604051918291602083526020830190611be7565b600181527fb10e2d527612073b26eecdfd717e6a320cf44b4afac2b0732d9fcbe2b7fa0cf6939250905b80821061064f575090915081016020016105f8826105e8565b919260018160209254838588010152019101909291610636565b60ff191660208087019190915292151560051b850190920192506105f891508390506105e8565b634e487b7160e01b83526022600452602483fd5b92607f16926105cb565b50346101ce57806003193601126101ce576020600954604051908152f35b50346101ce5760403660031901126101ce5760406106e8611c27565b9160043581526006602052209060018060a01b0316600052602052602060ff604060002054166040519015158152f35b50346101ce5760203660031901126101ce576001600160a01b0361073a611c0c565b168015610757578160409160209352600383522054604051908152f35b6322718ad960e21b82526004829052602482fd5b50346101ce5760203660031901126101ce5760406020916004358152600b83522054604051908152f35b50346101ce5760203660031901126101ce5760206107b4600435611f95565b6040516001600160a01b039091168152f35b50346101ce5760603660031901126101ce576004359061ffff82169182810361043c5760243592604435916040516313289ea360e31b815233600482015260208160248173f369f78e3a0492cc4e96a90dae0728a38498e9c75afa908115610f36578591610fcf575b5015610f9a576040516321a08e8b60e21b815233600482015261ffff91909116602482015260208160448173f369f78e3a0492cc4e96a90dae0728a38498e9c75afa908115610e21578491610f7b575b5015610f4157604051620dc04b60e81b815260048101839052602481018590523360448201527f00000000000000000000000000000000000000000000000000000000000000006001600160a01b031690602081606481855afa908115610f36578591610f07575b5015610ec257602060249160405192838092637dd5641160e01b82528960048301525afa908115610e21578491610e7c575b50336001600160a01b0390911603610e4057610936600854611f86565b93846008556109bf61094786612140565b6109d06023604051927f4672616374696f6e616c5265616c747920546f6b656e20230000000000000000602085015280516109a160388660208501936109908184840187611bc4565b81010301601f198101875286611ca1565b6040519586926211949560ea1b602085015251809285850190611bc4565b81010301601f198101845283611ca1565b6040519161163a918284019284841067ffffffffffffffff851117610e2c57610a1e859493610a108c9460609461235c8939608087526080870190611be7565b908582036020870152611be7565b923060408201520152039085f08015610e215760018060a01b0316926040519260c0840184811067ffffffffffffffff821117610e0d579060059392916040528452602084019182526040840190815260608401858152608085019187835260a0860193888552898952600a60205261ffff60408a2097511661ffff1988541617875551600187015551600286015560018060a01b03905116600385019060018060a01b03166bffffffffffffffffffffffff60a01b8254161790555160048401555191015560405163d539139360e01b8152602081600481855afa908115610e02578391610dd0575b50813b15610552578291604483926040519485938492632f2ff15d60e01b845260048401523060248401525af18015610dc557908291610db0575b5050604051602092610b558483611ca1565b8282523315610d9c578083526002845260408320546001600160a01b0316158015610d94575b15610d5a578083526002845260408320546001600160a01b03168015159081610d26575b338086526003875260408087208054600101905584875260028852862080546001600160a01b031916821790558390827fddf252ad1be2c89b69c2b068fc378daa952ba7f163c4a11628f55a4df523b3ef8880a450610d1257333b610c02578280f35b610c3c9184916040519384928392630a85bd0160e11b84523360048501528760248501526044840152608060648401526084830190611be7565b038185335af1829181610cd2575b50610c9e57503d15610c97573d610c6081611cd9565b90610c6e6040519283611ca1565b81523d828483013e5b80519283610c9257633250574960e11b835233600452602483fd5b019050fd5b6060610c77565b9091506001600160e01b03191663757a42ff60e11b01610cbf578038808280f35b633250574960e11b815233600452602490fd5b9091508381813d8311610d0b575b610cea8183611ca1565b8101031261055257516001600160e01b031981168103610552579038610c4a565b503d610ce0565b6339e3563760e11b83526004839052602483fd5b600083815260046020526040902080546001600160a01b031916905580855260038652604085208054600019019055610b9f565b60405162461bcd60e51b8152600481018590526012602482015271151bdad95b881a5cc81cdbdd5b189bdd5b9960721b6044820152606490fd5b506000610b7b565b633250574960e11b83526004839052602483fd5b81610dba91611ca1565b6101ce578038610b43565b6040513d84823e3d90fd5b90506020813d602011610dfa575b81610deb60209383611ca1565b81010312610552575138610b08565b3d9150610dde565b6040513d85823e3d90fd5b634e487b7160e01b87526041600452602487fd5b6040513d86823e3d90fd5b634e487b7160e01b89526041600452602489fd5b60405162461bcd60e51b81526020600482015260146024820152732737ba103a34ba3632903232b2b21037bbb732b960611b6044820152606490fd5b90506020813d602011610eba575b81610e9760209383611ca1565b81010312610eb657516001600160a01b0381168103610eb65738610919565b8380fd5b3d9150610e8a565b60405162461bcd60e51b815260206004820152601c60248201527f496e76616c6964207469746c652064656564206f776e657273686970000000006044820152606490fd5b610f29915060203d602011610f2f575b610f218183611ca1565b810190611f4b565b386108e7565b503d610f17565b6040513d87823e3d90fd5b60405162461bcd60e51b81526020600482015260126024820152714e6f742073616e6374696f6e732d7361666560701b6044820152606490fd5b610f94915060203d602011610f2f57610f218183611ca1565b3861087f565b60405162461bcd60e51b815260206004820152600d60248201526c135d5cdd0818994812d650c9d9609a1b6044820152606490fd5b610fe8915060203d602011610f2f57610f218183611ca1565b3861082f565b50346101ce5760203660031901126101ce5760406020916004358152600c83522054604051908152f35b50346101ce57806003193601126101ce576040517f00000000000000000000000000000000000000000000000000000000000000006001600160a01b03168152602090f35b50346101ce5760203660031901126101ce5760043561107e61031282611f95565b808252600a602090815260408084206003015490516318160ddd60e01b81529190829060049082906001600160a01b03165afa908115610e02578391611218575b506111da57808252600260205260408220546001600160a01b03161580156111d2575b1561119857808252600260205260408220546001600160a01b03168015908115611163575b82845260026020526040842080546001600160a01b03191690558284827fddf252ad1be2c89b69c2b068fc378daa952ba7f163c4a11628f55a4df523b3ef8280a450611151575080f35b637e27328960e01b8252600452602490fd5b600083815260046020526040902080546001600160a01b03191690558084526003602052604084208054600019019055611107565b60405162461bcd60e51b8152602060048201526012602482015271151bdad95b881a5cc81cdbdd5b189bdd5b9960721b6044820152606490fd5b5060016110e2565b60405162461bcd60e51b81526020600482015260166024820152750455243323020737570706c79206d75737420626520360541b6044820152606490fd5b90506020813d602011611242575b8161123360209383611ca1565b810103126105525751386110bf565b3d9150611226565b50346101ce5761043961125c36611c3d565b906040519261126c602085611ca1565b858452610433838383611d33565b50346101ce5760403660031901126101ce57600435611297611c27565b61129f611fcc565b818352600a6020526112ba6004604085200154421015611f0d565b818352600b6020526040832054156113ac57818352600b602052604083205491808452600b602052836040812055808452600a6020528360018060a01b03600360408320015416803b1561043c576040516340c10f1960e01b81526001600160a01b0385166004820152602481018690529082908290604490829084905af18015610dc557611397575b5050604080519182526001600160a01b039092166020820152908101919091527fb62c767496bd5cb8d5c9e915a9cab915737efcf1a87e6130354b3dae71dcec669080606081015b0390a1600160075580f35b816113a191611ca1565b610eb6578338611344565b60405162461bcd60e51b815260206004820152600f60248201526e139bc81c195b991a5b99c81b5a5b9d608a1b6044820152606490fd5b50346101ce5760403660031901126101ce576113fd611c27565b336001600160a01b0382160361141957610271906004356120ba565b63334bd91960e11b8252600482fd5b50346101ce5761143736611c77565b9161144461031282611f95565b6040516313289ea360e31b81526001600160a01b038316600482015260208160248173f369f78e3a0492cc4e96a90dae0728a38498e9c75afa908115610f365785916115f8575b5080611572575b1561153957808452600a60205260408420600501547fce874bb138680cbde7fe0e708d3f67cef8de8bb7d47b2ceba8be55771ae77c3393610394911561152e57828652600a6020526114eb600560408820015442611f63565b838752600a6020526004604088200155828652600b602052806040872055604051938493846040919493926060820195825260018060a01b031660208201520152565b6114eb60095461034b565b60405162461bcd60e51b8152602060048201526011602482015270125b9d985b1a59081c9958da5c1a595b9d607a1b6044820152606490fd5b50808452600a602090815260408086205490516321a08e8b60e21b81526001600160a01b038516600482015261ffff9091166024820152908160448173f369f78e3a0492cc4e96a90dae0728a38498e9c75afa908115610f365785916115d9575b50611492565b6115f2915060203d602011610f2f57610f218183611ca1565b386115d3565b611611915060203d602011610f2f57610f218183611ca1565b3861148b565b50346101ce5760403660031901126101ce57610271600435611637611c27565b9061165361026782600052600660205260016040600020015490565b61202b565b50346101ce5760203660031901126101ce57808052600660209081526040808320336000908152925290205460ff16156116955760043560095580f35b63e2517d3f60e01b8152336004526024819052604490fd5b50346101ce5760403660031901126101ce57600435906116cb611c27565b6116d3611fcc565b828252600a6020526116ee6004604084200154421015611f0d565b828252600c6020526040822054156117f957828252600c602052604082205492808352600c602052826040812055808352600a60205260018060a01b03600360408520015416803b15610eb657604051632770a7eb60e21b81526001600160a01b0384166004820152602481018690529084908290604490829084905af18015610e21576117c3575b50604080519182526001600160a01b03909216602082015290810192909252907f7f749b917532126bb3a8bb0de1911a8aeece558df904b1b95a034c08672de65d90806060810161138c565b836117f27f7f749b917532126bb3a8bb0de1911a8aeece558df904b1b95a034c08672de65d9561138c93611ca1565b9350611777565b60405162461bcd60e51b815260206004820152600f60248201526e2737903832b73234b73390313ab93760891b6044820152606490fd5b50346101ce5760203660031901126101ce57602061185e600435600052600660205260016040600020015490565b604051908152f35b50346101ce5761043961187836611c3d565b91611d33565b50346101ce5760403660031901126101ce576004356024356118a261031283611f95565b60095481106118ee57816040917f74505cdb1e6c062ac229069291ee59be8c9b05bc588c4f526ec515f6d9426241938552600a602052806005848720015582519182526020820152a180f35b60405162461bcd60e51b815260206004820152602360248201527f43616e6e6f74206265206c657373207468616e20676c6f62616c2074696d656c6044820152626f636b60e81b6064820152608490fd5b50346101ce5760403660031901126101ce57611959611c0c565b60243561196581611f95565b33151580611a14575b806119e9575b6119d65781906001600160a01b0384811691167f8c5be1e5ebec7d5bd14f71427d1e84f3dd0314c0f7b2291e5b200ac8c7c3b9258680a4825260046020526040822080546001600160a01b0319166001600160a01b0390921691909117905580f35b63a9fbf51f60e01b845233600452602484fd5b506001600160a01b038116845260056020908152604080862033875290915284205460ff1615611974565b506001600160a01b03811633141561196e565b50346101ce5760203660031901126101ce57602090600435611a4881611f95565b50815260048252604060018060a01b0391205416604051908152f35b50346101ce57806003193601126101ce5760405190808054908160011c91600181168015611b15575b602084108114610690578386529081156106695750600114611ab9576102cc846105f881860382611ca1565b8080527f290decd9548b62a8d60345a988386fc84ba6bc95484008f6362f93160ef3e563939250905b808210611afb575090915081016020016105f8826105e8565b919260018160209254838588010152019101909291611ae2565b92607f1692611a8d565b50346101ce5760203660031901126101ce5760043563ffffffff60e01b811680910361043c57602090637965db0b60e01b8114908115611b65575b506040519015158152f35b6380ac58cd60e01b811491508115611b97575b8115611b86575b5082611b5a565b6301ffc9a760e01b14905082611b7f565b635b5e139f60e01b81149150611b78565b90503461043c578160031936011261043c576020906008548152f35b60005b838110611bd75750506000910152565b8181015183820152602001611bc7565b90602091611c0081518092818552858086019101611bc4565b601f01601f1916010190565b600435906001600160a01b0382168203611c2257565b600080fd5b602435906001600160a01b0382168203611c2257565b6060906003190112611c22576004356001600160a01b0381168103611c2257906024356001600160a01b0381168103611c22579060443590565b6060906003190112611c2257600435906024356001600160a01b0381168103611c22579060443590565b90601f8019910116810190811067ffffffffffffffff821117611cc357604052565b634e487b7160e01b600052604160045260246000fd5b67ffffffffffffffff8111611cc357601f01601f191660200190565b15611cfc57565b60405162461bcd60e51b815260206004820152600f60248201526e2737ba103a37b5b2b71037bbb732b960891b6044820152606490fd5b6001600160a01b0390911691908215611ef7576000828152600260205260408120549093906001600160a01b0316158015611ef0575b1561119857828452600260205260408420546001600160a01b031693839190859033151580611e58575b507fddf252ad1be2c89b69c2b068fc378daa952ba7f163c4a11628f55a4df523b3ef9082611e23575b83815260036020526040812060018154019055848152600260205260408120846bffffffffffffffffffffffff60a01b82541617905580a46001600160a01b0316808303611e0957505050565b6364283d7b60e01b60005260045260245260445260646000fd5b600085815260046020526040902080546001600160a01b03191690558281526003602052604081208054600019019055611dbc565b915091925080611ea1575b15611e72579084849238611d93565b839085611e8b57602491637e27328960e01b8252600452fd5b60449163177e802f60e01b825233600452602452fd5b503385148015611ecf575b80611e635750838152600460205260408120546001600160a01b03163314611e63565b5084815260056020908152604080832033845290915281205460ff16611eac565b5083611d69565b633250574960e11b600052600060045260246000fd5b15611f1457565b60405162461bcd60e51b815260206004820152600f60248201526e54696d656c6f636b2061637469766560881b6044820152606490fd5b90816020910312611c2257518015158103611c225790565b91908201809211611f7057565b634e487b7160e01b600052601160045260246000fd5b6000198114611f705760010190565b6000818152600260205260409020546001600160a01b0316908115611fb8575090565b637e27328960e01b60005260045260246000fd5b600260075414611fdd576002600755565b633ee5aeb560e01b60005260046000fd5b600081815260066020908152604080832033845290915290205460ff16156120135750565b63e2517d3f60e01b6000523360045260245260446000fd5b60008181526006602090815260408083206001600160a01b038616845290915290205460ff166120b35760008181526006602090815260408083206001600160a01b0395909516808452949091528120805460ff19166001179055339291907f2f8788117e7eff1d82e926ec794901d17c78024a50270940304540a733656f0d9080a4600190565b5050600090565b60008181526006602090815260408083206001600160a01b038616845290915290205460ff16156120b35760008181526006602090815260408083206001600160a01b0395909516808452949091528120805460ff19169055339291907ff6391f5c32d9c69d2a47ea670b442974b53935d1edc7fd64eb21e047a839171b9080a4600190565b80156121fe57600081805b6121ea575061215981611cd9565b906121676040519283611ca1565b808252601f1961217682611cd9565b013660208401375b809280156121e3576000198201918211611f70578193600a82066030019283603011611f7057845111156121cd57600a9260f81b6001600160f81b03191660001a908401601f0153049161217e565b634e487b7160e01b600052603260045260246000fd5b5050905090565b906121f6600a91611f86565b91048061214b565b5060405161220d604082611ca1565b60018152600360fc1b602082015290565b823b61222c575b5050505050565b604051630a85bd0160e11b81526001600160a01b039182166004820152918116602483015260448201939093526080606482015291169160209082908190612278906084830190611be7565b03816000865af18091600091612318575b50906122e257503d156122db573d6122a081611cd9565b906122ae6040519283611ca1565b81523d6000602083013e5b805190816122d65782633250574960e11b60005260045260246000fd5b602001fd5b60606122b9565b6001600160e01b03191663757a42ff60e11b0161230457503880808080612225565b633250574960e11b60005260045260246000fd5b6020813d602011612353575b8161233160209383611ca1565b8101031261043c5751906001600160e01b0319821682036101ce575038612289565b3d915061232456fe60c06040523461039f5761163a80380380610019816103a4565b92833981019060808183031261039f5780516001600160401b03811161039f57826100459183016103c9565b602082015190926001600160401b03821161039f576100659183016103c9565b6040820151909290916001600160a01b0383169081840361039f5760600151825190926001600160401b03821161029c5760035490600182811c92168015610395575b602083101461027c5781601f849311610325575b50602090601f83116001146102bd576000926102b2575b50508160011b916000199060031b1c1916176003555b83516001600160401b03811161029c57600454600181811c91168015610292575b602082101461027c57601f8111610217575b506020601f82116001146101ac578190610163966000926101a1575b50508160011b916000199060031b1c1916176004555b60805260a05261015d81610434565b506104b0565b50604051611091908161054982396080518181816104cb015281816106730152610d54015260a051818181610647015281816109960152610d250152f35b015190503880610138565b601f198216956004600052816000209660005b8181106101ff57509161016397918460019594106101e6575b505050811b0160045561014e565b015160001960f88460031b161c191690553880806101d8565b838301518955600190980197602093840193016101bf565b60046000527f8a35acfbc15ff81a39ae7d344fd709f28e8600b4aa8c65c6b64bfe7fe36bd19b601f830160051c81019160208410610272575b601f0160051c01905b818110610266575061011c565b60008155600101610259565b9091508190610250565b634e487b7160e01b600052602260045260246000fd5b90607f169061010a565b634e487b7160e01b600052604160045260246000fd5b0151905038806100d3565b600360009081528281209350601f198516905b81811061030d57509084600195949392106102f4575b505050811b016003556100e9565b015160001960f88460031b161c191690553880806102e6565b929360206001819287860151815501950193016102d0565b60036000529091507fc2575a0e9e593c00f959f8c92f12db2869c3395a3b0502d05e2516446f71f85b601f840160051c8101916020851061038b575b90601f859493920160051c01905b81811061037c57506100bc565b6000815584935060010161036f565b9091508190610361565b91607f16916100a8565b600080fd5b6040519190601f01601f191682016001600160401b0381118382101761029c57604052565b81601f8201121561039f578051906001600160401b03821161029c576103f8601f8301601f19166020016103a4565b928284526020838301011161039f5760005b82811061041f57505060206000918301015290565b8060208092840101518282870101520161040a565b6001600160a01b038116600090815260008051602061161a833981519152602052604090205460ff166104aa576001600160a01b0316600081815260008051602061161a83398151915260205260408120805460ff191660011790553391906000805160206115da8339815191528180a4600190565b50600090565b6001600160a01b03811660009081526000805160206115fa833981519152602052604090205460ff166104aa576001600160a01b031660008181526000805160206115fa83398151915260205260408120805460ff191660011790553391907f9f2df0fed2c77648de5860a4cc508cd0818c85b8b8a1ab4ceeef8d981c8956a6906000805160206115da8339815191529080a460019056fe608080604052600436101561001357600080fd5b600090813560e01c90816301ffc9a714610b205750806306fdde0314610a63578063095ea7b3146109b957806317d70f7c1461097e57806318160ddd1461096057806323b872dd14610880578063248a9ca31461084a5780632f2ff15d14610809578063313ce567146107ed57806336568abe146107a857806340c10f19146104fa578063544abd28146104b557806370a082311461047d57806391d148541461043457806395d89b411461032b57806399a6cddd146102fc5780639dc29fac1461023d578063a217fddf14610221578063a9059cbb146101ef578063d5391393146101b4578063d547741f1461016a5763dd62ed3e1461011357600080fd5b3461016757604036600319011261016757604061012e610bc6565b91610137610be1565b9260018060a01b031681526001602052209060018060a01b03166000526020526020604060002054604051908152f35b80fd5b5034610167576040366003190112610167576101b060043561018a610be1565b906101ab6101a682600052600560205260016040600020015490565b610f1a565b610fe6565b5080f35b503461016757806003193601126101675760206040517f9f2df0fed2c77648de5860a4cc508cd0818c85b8b8a1ab4ceeef8d981c8956a68152f35b50346101675760403660031901126101675761021661020c610bc6565b6024359033610c2f565b602060405160018152f35b5034610167578060031936011261016757602090604051908152f35b503461016757604036600319011261016757610257610bc6565b60243590610263610ea8565b6001600160a01b03169182156102e857506000908282528160205260408220548181106102d05760208285937fddf252ad1be2c89b69c2b068fc378daa952ba7f163c4a11628f55a4df523b3ef93869787528684520360408620558060025403600255604051908152a380f35b60649363391434e360e21b8452600452602452604452fd5b634b637e8f60e11b81526004819052602490fd5b5034610167578060031936011261016757602060405173f369f78e3a0492cc4e96a90dae0728a38498e9c78152f35b50346101675780600319360112610167576040519080600454908160011c9160018116801561042a575b602084108114610416578386529081156103ef5750600114610392575b61038e8461038281860382610bf7565b60405191829182610b7d565b0390f35b600481527f8a35acfbc15ff81a39ae7d344fd709f28e8600b4aa8c65c6b64bfe7fe36bd19b939250905b8082106103d55750909150810160200161038282610372565b9192600181602092548385880101520191019092916103bc565b60ff191660208087019190915292151560051b850190920192506103829150839050610372565b634e487b7160e01b83526022600452602483fd5b92607f1692610355565b50346101675760403660031901126101675760ff6040602092610455610be1565b6004358252600585528282206001600160a01b03909116825284522054604051911615158152f35b5034610167576020366003190112610167576020906040906001600160a01b036104a5610bc6565b1681528083522054604051908152f35b50346101675780600319360112610167576040517f00000000000000000000000000000000000000000000000000000000000000006001600160a01b03168152602090f35b503461016757604036600319011261016757610514610bc6565b60243590610520610ea8565b6001600160a01b0316908115610794576040516313289ea360e31b81526004810183905260208160248173f369f78e3a0492cc4e96a90dae0728a38498e9c75afa908115610729578491610775575b5080610637575b156105df576002548181018091116105cb57602084927fddf252ad1be2c89b69c2b068fc378daa952ba7f163c4a11628f55a4df523b3ef9260025584845283825260408420818154019055604051908152a380f35b634e487b7160e01b84526011600452602484fd5b60405162461bcd60e51b815260206004820152602a60248201527f526563697069656e74206d757374206265204b5943276420616e642073616e6360448201526974696f6e732d7361666560b01b6064820152608490fd5b50604051633edb85cb60e21b81527f000000000000000000000000000000000000000000000000000000000000000060048201526020816024817f00000000000000000000000000000000000000000000000000000000000000006001600160a01b03165afa908115610729578491610734575b5061ffff604051916321a08e8b60e21b835284600484015216602482015260208160448173f369f78e3a0492cc4e96a90dae0728a38498e9c75afa9081156107295784916106fa575b50610576565b61071c915060203d602011610722575b6107148183610bf7565b81019061106c565b386106f4565b503d61070a565b6040513d86823e3d90fd5b90506020813d60201161076d575b8161074f60209383610bf7565b81010312610769575161ffff8116810361076957386106ab565b8380fd5b3d9150610742565b61078e915060203d602011610722576107148183610bf7565b3861056f565b63ec442f0560e01b83526004839052602483fd5b5034610167576040366003190112610167576107c2610be1565b336001600160a01b038216036107de576101b090600435610fe6565b63334bd91960e11b8252600482fd5b5034610167578060031936011261016757602060405160128152f35b5034610167576040366003190112610167576101b0600435610829610be1565b906108456101a682600052600560205260016040600020015490565b610f57565b5034610167576020366003190112610167576020610878600435600052600560205260016040600020015490565b604051908152f35b50346101675760603660031901126101675761089a610bc6565b6108a2610be1565b6001600160a01b0382168084526001602081815260408087203388529091528520546044359492909182016108de575b50506102169350610c2f565b84821061094557801561093157331561091d5760408686926102169852600160205281812060018060a01b0333168252602052209103905538806108d2565b634a1406b160e11b86526004869052602486fd5b63e602df0560e01b86526004869052602486fd5b6064868684637dc7a0d960e11b835233600452602452604452fd5b50346101675780600319360112610167576020600254604051908152f35b503461016757806003193601126101675760206040517f00000000000000000000000000000000000000000000000000000000000000008152f35b5034610167576040366003190112610167576109d3610bc6565b602435903315610a4f576001600160a01b0316918215610a3b5760408291338152600160205281812085825260205220556040519081527f8c5be1e5ebec7d5bd14f71427d1e84f3dd0314c0f7b2291e5b200ac8c7c3b92560203392a3602060405160018152f35b634a1406b160e11b81526004819052602490fd5b63e602df0560e01b83526004839052602483fd5b50346101675780600319360112610167576040519080600354908160011c91600181168015610b16575b602084108114610416578386529081156103ef5750600114610ab95761038e8461038281860382610bf7565b600381527fc2575a0e9e593c00f959f8c92f12db2869c3395a3b0502d05e2516446f71f85b939250905b808210610afc5750909150810160200161038282610372565b919260018160209254838588010152019101909291610ae3565b92607f1692610a8d565b905034610b79576020366003190112610b795760043563ffffffff60e01b8116809103610b755760209250637965db0b60e01b8114908115610b64575b5015158152f35b6301ffc9a760e01b14905038610b5d565b8280fd5b5080fd5b91909160208152825180602083015260005b818110610bb0575060409293506000838284010152601f8019910116010190565b8060208092870101516040828601015201610b8f565b600435906001600160a01b0382168203610bdc57565b600080fd5b602435906001600160a01b0382168203610bdc57565b90601f8019910116810190811067ffffffffffffffff821117610c1957604052565b634e487b7160e01b600052604160045260246000fd5b6001600160a01b0316908115610e92576001600160a01b0316918215610e7c576040516313289ea360e31b815260048101849052600060208260248173f369f78e3a0492cc4e96a90dae0728a38498e9c75afa918215610e6f578192610e4e575b5081610d16575b50156105df576000828152806020526040812054828110610cfc5791604082827fddf252ad1be2c89b69c2b068fc378daa952ba7f163c4a11628f55a4df523b3ef958760209652828652038282205586815280845220818154019055604051908152a3565b916064928463391434e360e21b8452600452602452604452fd5b604051633edb85cb60e21b81527f000000000000000000000000000000000000000000000000000000000000000060048201529091506020816024817f00000000000000000000000000000000000000000000000000000000000000006001600160a01b03165afa908115610e43578291610e06575b5061ffff604051916321a08e8b60e21b835286600484015216602482015260208160448173f369f78e3a0492cc4e96a90dae0728a38498e9c75afa918215610dfa5791610ddb575b5038610c97565b610df4915060203d602011610722576107148183610bf7565b38610dd4565b604051903d90823e3d90fd5b90506020813d602011610e3b575b81610e2160209383610bf7565b81010312610b79575161ffff81168103610b795738610d8c565b3d9150610e14565b6040513d84823e3d90fd5b610e6891925060203d602011610722576107148183610bf7565b9038610c90565b50604051903d90823e3d90fd5b63ec442f0560e01b600052600060045260246000fd5b634b637e8f60e11b600052600060045260246000fd5b3360009081527f15a28d26fa1bf736cf7edc9922607171ccb09c3c73b808e7772a3013e068a522602052604090205460ff1615610ee157565b63e2517d3f60e01b600052336004527f9f2df0fed2c77648de5860a4cc508cd0818c85b8b8a1ab4ceeef8d981c8956a660245260446000fd5b600081815260056020908152604080832033845290915290205460ff1615610f3f5750565b63e2517d3f60e01b6000523360045260245260446000fd5b60008181526005602090815260408083206001600160a01b038616845290915290205460ff16610fdf5760008181526005602090815260408083206001600160a01b0395909516808452949091528120805460ff19166001179055339291907f2f8788117e7eff1d82e926ec794901d17c78024a50270940304540a733656f0d9080a4600190565b5050600090565b60008181526005602090815260408083206001600160a01b038616845290915290205460ff1615610fdf5760008181526005602090815260408083206001600160a01b0395909516808452949091528120805460ff19169055339291907ff6391f5c32d9c69d2a47ea670b442974b53935d1edc7fd64eb21e047a839171b9080a4600190565b90816020910312610bdc57518015158103610bdc579056fea164736f6c634300081b000a2f8788117e7eff1d82e926ec794901d17c78024a50270940304540a733656f0d15a28d26fa1bf736cf7edc9922607171ccb09c3c73b808e7772a3013e068a52205b8ccbb9d4d8fb16ea74ce3c29a41f1b461fbdaff4714a0d9a8eb05499746bca164736f6c634300081b000a54cdd369e4e8a8515e52ca72ec816c2101831ad1f18bf44102ed171459c9b4f8",
  "linkReferences": {},
  "deployedLinkReferences": {}
}